{"contracts/Ink_Governor.sol":{"Ink_Governor":{"abi":[{"inputs":[{"internalType":"contract IVotes","name":"_token","type":"address"}],"stateMutability":"nonpayable","type":"constructor"},{"inputs":[],"name":"Empty","type":"error"},{"inputs":[{"internalType":"string","name":"str","type":"string"}],"name":"StringTooLong","type":"error"},{"anonymous":false,"inputs":[],"name":"EIP712DomainChanged","type":"event"},{"anonymous":false,"inputs":[{"indexed":false,"internalType":"uint256","name":"proposalId","type":"uint256"}],"name":"ProposalCanceled","type":"event"},{"anonymous":false,"inputs":[{"indexed":false,"internalType":"uint256","name":"proposalId","type":"uint256"},{"indexed":false,"internalType":"address","name":"proposer","type":"address"},{"indexed":false,"internalType":"address[]","name":"targets","type":"address[]"},{"indexed":false,"internalType":"uint256[]","name":"values","type":"uint256[]"},{"indexed":false,"internalType":"string[]","name":"signatures","type":"string[]"},{"indexed":false,"internalType":"bytes[]","name":"calldatas","type":"bytes[]"},{"indexed":false,"internalType":"uint256","name":"voteStart","type":"uint256"},{"indexed":false,"internalType":"uint256","name":"voteEnd","type":"uint256"},{"indexed":false,"internalType":"string","name":"description","type":"string"}],"name":"ProposalCreated","type":"event"},{"anonymous":false,"inputs":[{"indexed":false,"internalType":"uint256","name":"proposalId","type":"uint256"}],"name":"ProposalExecuted","type":"event"},{"anonymous":false,"inputs":[{"indexed":false,"internalType":"uint256","name":"oldProposalThreshold","type":"uint256"},{"indexed":false,"internalType":"uint256","name":"newProposalThreshold","type":"uint256"}],"name":"ProposalThresholdSet","type":"event"},{"anonymous":false,"inputs":[{"indexed":false,"internalType":"uint256","name":"oldQuorumNumerator","type":"uint256"},{"indexed":false,"internalType":"uint256","name":"newQuorumNumerator","type":"uint256"}],"name":"QuorumNumeratorUpdated","type":"event"},{"anonymous":false,"inputs":[{"indexed":true,"internalType":"address","name":"voter","type":"address"},{"indexed":false,"internalType":"uint256","name":"proposalId","type":"uint256"},{"indexed":false,"internalType":"uint8","name":"support","type":"uint8"},{"indexed":false,"internalType":"uint256","name":"weight","type":"uint256"},{"indexed":false,"internalType":"string","name":"reason","type":"string"}],"name":"VoteCast","type":"event"},{"anonymous":false,"inputs":[{"indexed":true,"internalType":"address","name":"voter","type":"address"},{"indexed":false,"internalType":"uint256","name":"proposalId","type":"uint256"},{"indexed":false,"internalType":"uint8","name":"support","type":"uint8"},{"indexed":false,"internalType":"uint256","name":"weight","type":"uint256"},{"indexed":false,"internalType":"string","name":"reason","type":"string"},{"indexed":false,"internalType":"bytes","name":"params","type":"bytes"}],"name":"VoteCastWithParams","type":"event"},{"anonymous":false,"inputs":[{"indexed":false,"internalType":"uint256","name":"oldVotingDelay","type":"uint256"},{"indexed":false,"internalType":"uint256","name":"newVotingDelay","type":"uint256"}],"name":"VotingDelaySet","type":"event"},{"anonymous":false,"inputs":[{"indexed":false,"internalType":"uint256","name":"oldVotingPeriod","type":"uint256"},{"indexed":false,"internalType":"uint256","name":"newVotingPeriod","type":"uint256"}],"name":"VotingPeriodSet","type":"event"},{"inputs":[],"name":"BALLOT_TYPEHASH","outputs":[{"internalType":"bytes32","name":"","type":"bytes32"}],"stateMutability":"view","type":"function"},{"inputs":[],"name":"CLOCK_MODE","outputs":[{"internalType":"string","name":"","type":"string"}],"stateMutability":"view","type":"function"},{"inputs":[],"name":"COUNTING_MODE","outputs":[{"internalType":"string","name":"","type":"string"}],"stateMutability":"pure","type":"function"},{"inputs":[],"name":"EXTENDED_BALLOT_TYPEHASH","outputs":[{"internalType":"bytes32","name":"","type":"bytes32"}],"stateMutability":"view","type":"function"},{"inputs":[{"internalType":"address[]","name":"targets","type":"address[]"},{"internalType":"uint256[]","name":"values","type":"uint256[]"},{"internalType":"bytes[]","name":"calldatas","type":"bytes[]"},{"internalType":"bytes32","name":"descriptionHash","type":"bytes32"}],"name":"cancel","outputs":[{"internalType":"uint256","name":"","type":"uint256"}],"stateMutability":"nonpayable","type":"function"},{"inputs":[{"internalType":"address[]","name":"targets","type":"address[]"},{"internalType":"uint256[]","name":"values","type":"uint256[]"},{"internalType":"bytes[]","name":"calldatas","type":"bytes[]"},{"internalType":"bytes32","name":"descriptionHash","type":"bytes32"}],"name":"cancel_","outputs":[{"internalType":"uint256","name":"","type":"uint256"}],"stateMutability":"nonpayable","type":"function"},{"inputs":[{"internalType":"uint256","name":"proposalId","type":"uint256"},{"internalType":"uint8","name":"support","type":"uint8"}],"name":"castVote","outputs":[{"internalType":"uint256","name":"","type":"uint256"}],"stateMutability":"nonpayable","type":"function"},{"inputs":[{"internalType":"uint256","name":"proposalId","type":"uint256"},{"internalType":"uint8","name":"support","type":"uint8"},{"internalType":"uint8","name":"v","type":"uint8"},{"internalType":"bytes32","name":"r","type":"bytes32"},{"internalType":"bytes32","name":"s","type":"bytes32"}],"name":"castVoteBySig","outputs":[{"internalType":"uint256","name":"","type":"uint256"}],"stateMutability":"nonpayable","type":"function"},{"inputs":[{"internalType":"uint256","name":"proposalId","type":"uint256"},{"internalType":"uint8","name":"support","type":"uint8"},{"internalType":"string","name":"reason","type":"string"}],"name":"castVoteWithReason","outputs":[{"internalType":"uint256","name":"","type":"uint256"}],"stateMutability":"nonpayable","type":"function"},{"inputs":[{"internalType":"uint256","name":"proposalId","type":"uint256"},{"internalType":"uint8","name":"support","type":"uint8"},{"internalType":"string","name":"reason","type":"string"},{"internalType":"bytes","name":"params","type":"bytes"}],"name":"castVoteWithReasonAndParams","outputs":[{"internalType":"uint256","name":"","type":"uint256"}],"stateMutability":"nonpayable","type":"function"},{"inputs":[{"internalType":"uint256","name":"proposalId","type":"uint256"},{"internalType":"uint8","name":"support","type":"uint8"},{"internalType":"string","name":"reason","type":"string"},{"internalType":"bytes","name":"params","type":"bytes"},{"internalType":"uint8","name":"v","type":"uint8"},{"internalType":"bytes32","name":"r","type":"bytes32"},{"internalType":"bytes32","name":"s","type":"bytes32"}],"name":"castVoteWithReasonAndParamsBySig","outputs":[{"internalType":"uint256","name":"","type":"uint256"}],"stateMutability":"nonpayable","type":"function"},{"inputs":[],"name":"clock","outputs":[{"internalType":"uint48","name":"","type":"uint48"}],"stateMutability":"view","type":"function"},{"inputs":[],"name":"eip712Domain","outputs":[{"internalType":"bytes1","name":"fields","type":"bytes1"},{"internalType":"string","name":"name","type":"string"},{"internalType":"string","name":"version","type":"string"},{"internalType":"uint256","name":"chainId","type":"uint256"},{"internalType":"address","name":"verifyingContract","type":"address"},{"internalType":"bytes32","name":"salt","type":"bytes32"},{"internalType":"uint256[]","name":"extensions","type":"uint256[]"}],"stateMutability":"view","type":"function"},{"inputs":[{"internalType":"address[]","name":"targets","type":"address[]"},{"internalType":"uint256[]","name":"values","type":"uint256[]"},{"internalType":"bytes[]","name":"calldatas","type":"bytes[]"},{"internalType":"bytes32","name":"descriptionHash","type":"bytes32"}],"name":"execute","outputs":[{"internalType":"uint256","name":"","type":"uint256"}],"stateMutability":"payable","type":"function"},{"inputs":[{"internalType":"address","name":"account","type":"address"},{"internalType":"uint256","name":"timepoint","type":"uint256"}],"name":"getVotes","outputs":[{"internalType":"uint256","name":"","type":"uint256"}],"stateMutability":"view","type":"function"},{"inputs":[{"internalType":"address","name":"account","type":"address"},{"internalType":"uint256","name":"timepoint","type":"uint256"},{"internalType":"bytes","name":"params","type":"bytes"}],"name":"getVotesWithParams","outputs":[{"internalType":"uint256","name":"","type":"uint256"}],"stateMutability":"view","type":"function"},{"inputs":[{"internalType":"uint256","name":"proposalId","type":"uint256"},{"internalType":"address","name":"account","type":"address"}],"name":"hasVoted","outputs":[{"internalType":"bool","name":"","type":"bool"}],"stateMutability":"view","type":"function"},{"inputs":[{"internalType":"address[]","name":"targets","type":"address[]"},{"internalType":"uint256[]","name":"values","type":"uint256[]"},{"internalType":"bytes[]","name":"calldatas","type":"bytes[]"},{"internalType":"bytes32","name":"descriptionHash","type":"bytes32"}],"name":"hashProposal","outputs":[{"internalType":"uint256","name":"","type":"uint256"}],"stateMutability":"pure","type":"function"},{"inputs":[],"name":"name","outputs":[{"internalType":"string","name":"","type":"string"}],"stateMutability":"view","type":"function"},{"inputs":[{"internalType":"uint256","name":"proposalId","type":"uint256"}],"name":"proposalDeadline","outputs":[{"internalType":"uint256","name":"","type":"uint256"}],"stateMutability":"view","type":"function"},{"inputs":[{"internalType":"uint256","name":"proposalId","type":"uint256"}],"name":"proposalSnapshot","outputs":[{"internalType":"uint256","name":"","type":"uint256"}],"stateMutability":"view","type":"function"},{"inputs":[],"name":"proposalThreshold","outputs":[{"internalType":"uint256","name":"","type":"uint256"}],"stateMutability":"view","type":"function"},{"inputs":[{"internalType":"uint256","name":"proposalId","type":"uint256"}],"name":"proposalVotes","outputs":[{"internalType":"uint256","name":"againstVotes","type":"uint256"},{"internalType":"uint256","name":"forVotes","type":"uint256"},{"internalType":"uint256","name":"abstainVotes","type":"uint256"}],"stateMutability":"view","type":"function"},{"inputs":[{"internalType":"address[]","name":"targets","type":"address[]"},{"internalType":"uint256[]","name":"values","type":"uint256[]"},{"internalType":"bytes[]","name":"calldatas","type":"bytes[]"},{"internalType":"string","name":"description","type":"string"}],"name":"propose","outputs":[{"internalType":"uint256","name":"","type":"uint256"}],"stateMutability":"nonpayable","type":"function"},{"inputs":[{"internalType":"uint256","name":"blockNumber","type":"uint256"}],"name":"quorum","outputs":[{"internalType":"uint256","name":"","type":"uint256"}],"stateMutability":"view","type":"function"},{"inputs":[],"name":"quorumDenominator","outputs":[{"internalType":"uint256","name":"","type":"uint256"}],"stateMutability":"view","type":"function"},{"inputs":[{"internalType":"uint256","name":"blockNumber","type":"uint256"}],"name":"quorumNumerator","outputs":[{"internalType":"uint256","name":"","type":"uint256"}],"stateMutability":"view","type":"function"},{"inputs":[],"name":"quorumNumerator","outputs":[{"internalType":"uint256","name":"","type":"uint256"}],"stateMutability":"view","type":"function"},{"inputs":[{"internalType":"address","name":"target","type":"address"},{"internalType":"uint256","name":"value","type":"uint256"},{"internalType":"bytes","name":"data","type":"bytes"}],"name":"relay","outputs":[],"stateMutability":"payable","type":"function"},{"inputs":[{"internalType":"uint256","name":"newProposalThreshold","type":"uint256"}],"name":"setProposalThreshold","outputs":[],"stateMutability":"nonpayable","type":"function"},{"inputs":[{"internalType":"uint256","name":"newVotingDelay","type":"uint256"}],"name":"setVotingDelay","outputs":[],"stateMutability":"nonpayable","type":"function"},{"inputs":[{"internalType":"uint256","name":"newVotingPeriod","type":"uint256"}],"name":"setVotingPeriod","outputs":[],"stateMutability":"nonpayable","type":"function"},{"inputs":[{"internalType":"uint256","name":"proposalId","type":"uint256"}],"name":"state","outputs":[{"internalType":"enum IGovernor.ProposalState","name":"","type":"uint8"}],"stateMutability":"view","type":"function"},{"inputs":[{"internalType":"bytes4","name":"interfaceId","type":"bytes4"}],"name":"supportsInterface","outputs":[{"internalType":"bool","name":"","type":"bool"}],"stateMutability":"view","type":"function"},{"inputs":[],"name":"token","outputs":[{"internalType":"contract IERC5805","name":"","type":"address"}],"stateMutability":"view","type":"function"},{"inputs":[{"internalType":"uint256","name":"newQuorumNumerator","type":"uint256"}],"name":"updateQuorumNumerator","outputs":[],"stateMutability":"nonpayable","type":"function"},{"inputs":[],"name":"version","outputs":[{"internalType":"string","name":"","type":"string"}],"stateMutability":"view","type":"function"},{"inputs":[],"name":"votingDelay","outputs":[{"internalType":"uint256","name":"","type":"uint256"}],"stateMutability":"view","type":"function"},{"inputs":[],"name":"votingPeriod","outputs":[{"internalType":"uint256","name":"","type":"uint256"}],"stateMutability":"view","type":"function"},{"stateMutability":"payable","type":"receive"}],"devdoc":{"errors":{"Empty()":[{"details":"An operation (e.g. {front}) couldn't be completed due to the queue being empty."}]},"kind":"dev","methods":{"CLOCK_MODE()":{"details":"Machine-readable description of the clock as specified in EIP-6372."},"COUNTING_MODE()":{"details":"See {IGovernor-COUNTING_MODE}."},"cancel(address[],uint256[],bytes[],bytes32)":{"details":"Cancel a proposal. A proposal is cancellable by the proposer, but only while it is Pending state, i.e. before the vote starts. Emits a {ProposalCanceled} event."},"castVote(uint256,uint8)":{"details":"Cast a vote Emits a {VoteCast} event."},"castVoteBySig(uint256,uint8,uint8,bytes32,bytes32)":{"details":"Cast a vote using the user's cryptographic signature. Emits a {VoteCast} event."},"castVoteWithReason(uint256,uint8,string)":{"details":"Cast a vote with a reason Emits a {VoteCast} event."},"castVoteWithReasonAndParams(uint256,uint8,string,bytes)":{"details":"Cast a vote with a reason and additional encoded parameters Emits a {VoteCast} or {VoteCastWithParams} event depending on the length of params."},"castVoteWithReasonAndParamsBySig(uint256,uint8,string,bytes,uint8,bytes32,bytes32)":{"details":"Cast a vote with a reason and additional encoded parameters using the user's cryptographic signature. Emits a {VoteCast} or {VoteCastWithParams} event depending on the length of params."},"clock()":{"details":"Clock (as specified in EIP-6372) is set to match the token's clock. Fallback to block numbers if the token does not implement EIP-6372."},"eip712Domain()":{"details":"See {EIP-5267}."},"execute(address[],uint256[],bytes[],bytes32)":{"details":"Execute a successful proposal. This requires the quorum to be reached, the vote to be successful, and the deadline to be reached. Emits a {ProposalExecuted} event. Note: some module can modify the requirements for execution, for example by adding an additional timelock."},"getVotes(address,uint256)":{"details":"Voting power of an `account` at a specific `timepoint`. Note: this can be implemented in a number of ways, for example by reading the delegated balance from one (or multiple), {ERC20Votes} tokens."},"getVotesWithParams(address,uint256,bytes)":{"details":"Voting power of an `account` at a specific `timepoint` given additional encoded parameters."},"hasVoted(uint256,address)":{"details":"See {IGovernor-hasVoted}."},"hashProposal(address[],uint256[],bytes[],bytes32)":{"details":"Hashing function used to (re)build the proposal id from the proposal details.."},"name()":{"details":"Name of the governor instance (used in building the ERC712 domain separator)."},"proposalDeadline(uint256)":{"details":"Timepoint at which votes close. If using block number, votes close at the end of this block, so it is possible to cast a vote during this block."},"proposalSnapshot(uint256)":{"details":"Timepoint used to retrieve user's votes and quorum. If using block number (as per Compound's Comp), the snapshot is performed at the end of this block. Hence, voting for this proposal starts at the beginning of the following block."},"proposalVotes(uint256)":{"details":"Accessor to the internal vote counts."},"propose(address[],uint256[],bytes[],string)":{"details":"Create a new proposal. Vote start after a delay specified by {IGovernor-votingDelay} and lasts for a duration specified by {IGovernor-votingPeriod}. Emits a {ProposalCreated} event."},"quorumDenominator()":{"details":"Returns the quorum denominator. Defaults to 100, but may be overridden."},"quorumNumerator()":{"details":"Returns the current quorum numerator. See {quorumDenominator}."},"quorumNumerator(uint256)":{"details":"Returns the quorum numerator at a specific block number. See {quorumDenominator}."},"setProposalThreshold(uint256)":{"details":"Update the proposal threshold. This operation can only be performed through a governance proposal. Emits a {ProposalThresholdSet} event."},"setVotingDelay(uint256)":{"details":"Update the voting delay. This operation can only be performed through a governance proposal. Emits a {VotingDelaySet} event."},"setVotingPeriod(uint256)":{"details":"Update the voting period. This operation can only be performed through a governance proposal. Emits a {VotingPeriodSet} event."},"state(uint256)":{"details":"Current state of a proposal, following Compound's convention"},"updateQuorumNumerator(uint256)":{"details":"Changes the quorum numerator. Emits a {QuorumNumeratorUpdated} event. Requirements: - Must be called through a governance proposal. - New numerator must be smaller or equal to the denominator."},"version()":{"details":"Version of the governor instance (used in building the ERC712 domain separator). Default: \"1\""}},"version":1},"evm":{"bytecode":{"linkReferences":{},"object":"6101806040523480156200001257600080fd5b50604051620044e0380380620044e083398101604081905262000035916200084e565b600481600461012c600a6040518060400160405280600c81526020016b24b735afa3b7bb32b93737b960a11b81525080620000756200019a60201b60201c565b62000090600083620001b560201b620017461790919060201c565b60e052620000ac816001620001b5602090811b6200174617901c565b61010052815160208084019190912061012052815190820120610140524660a0526200013c6101205161014051604080517f8b73c3c69bb8fe3d512ecc4cf759cc79239f7b179b0ffacaa9a75d522b39400f60208201529081019290925260608201524660808201523060a082015260009060c00160405160208183030381529060405280519060200120905090565b60805250503060c05260026200015382826200091e565b506200016190508362000205565b6200016c8262000246565b6200017781620002ed565b5050506001600160a01b03166101605262000192816200032e565b505062000a81565b6040805180820190915260018152603160f81b602082015290565b6000602083511015620001d557620001cd83620004a6565b9050620001ff565b82620001ec83620004e960201b620017771760201c565b90620001f990826200091e565b50600090505b92915050565b60065460408051918252602082018390527fc565b045403dc03c2eea82b81a0465edad9e2e7fc4d97e11421c209da93d7a93910160405180910390a1600655565b60008111620002ac5760405162461bcd60e51b815260206004820152602760248201527f476f7665726e6f7253657474696e67733a20766f74696e6720706572696f6420604482015266746f6f206c6f7760c81b60648201526084015b60405180910390fd5b60075460408051918252602082018390527f7e3f7f0708a84de9203036abaa450dccc85ad5ff52f78c170f3edb55cf5e8828910160405180910390a1600755565b60085460408051918252602082018390527fccb45da8d5717e6c4544694297c4ba5cf151d455c9bb0ed4fc7a38411bc05461910160405180910390a1600855565b6064811115620003b35760405162461bcd60e51b815260206004820152604360248201527f476f7665726e6f72566f74657351756f72756d4672616374696f6e3a2071756f60448201527f72756d4e756d657261746f72206f7665722071756f72756d44656e6f6d696e616064820152623a37b960e91b608482015260a401620002a3565b6000620003bf620004ec565b90508015801590620003d15750600b54155b156200044c57600b6000016040518060400160405280600063ffffffff1681526020016200040a846200052460201b6200177a1760201c565b6001600160e01b0390811690915282546001810184556000938452602093849020835194909301519091166401000000000263ffffffff909316929092179101555b6200046782600b6200059360201b620017e71790919060201c565b505060408051828152602081018490527f0553476bf02ef2726e8ce5ced78d63e26e602e4a2257b1f559418e24b4633997910160405180910390a15050565b600080829050601f81511115620004d4578260405163305a27a960e01b8152600401620002a39190620009ea565b8051620004e18262000a3a565b179392505050565b90565b600b54600090156200051d576200050f600b620005e660201b6200181d1760201c565b6001600160e01b0316905090565b50600a5490565b60006001600160e01b038211156200058f5760405162461bcd60e51b815260206004820152602760248201527f53616665436173743a2076616c756520646f65736e27742066697420696e20326044820152663234206269747360c81b6064820152608401620002a3565b5090565b600080620005d084600001620005b4436200063460201b620018641760201c565b620005ca866200052460201b6200177a1760201c565b6200069b565b6001600160e01b03918216969116945092505050565b805460009080156200062a5762000612836200060460018462000a5f565b600091825260209091200190565b5464010000000090046001600160e01b03166200062d565b60005b9392505050565b600063ffffffff8211156200058f5760405162461bcd60e51b815260206004820152602660248201527f53616665436173743a2076616c756520646f65736e27742066697420696e203360448201526532206269747360d01b6064820152608401620002a3565b825460009081908015620007f0576000620006bd876200060460018562000a5f565b60408051808201909152905463ffffffff8082168084526401000000009092046001600160e01b031660208401529192509087161015620007415760405162461bcd60e51b815260206004820152601760248201527f436865636b706f696e743a20696e76616c6964206b65790000000000000000006044820152606401620002a3565b805163ffffffff8088169116036200078f578462000766886200060460018662000a5f565b80546001600160e01b03929092166401000000000263ffffffff909216919091179055620007df565b6040805180820190915263ffffffff80881682526001600160e01b0380881660208085019182528b54600181018d5560008d81529190912094519151909216640100000000029216919091179101555b602001519250839150620008469050565b50506040805180820190915263ffffffff80851682526001600160e01b0380851660208085019182528854600181018a5560008a8152918220955192519093166401000000000291909316179201919091559050815b935093915050565b6000602082840312156200086157600080fd5b81516001600160a01b03811681146200062d57600080fd5b634e487b7160e01b600052604160045260246000fd5b600181811c90821680620008a457607f821691505b602082108103620008c557634e487b7160e01b600052602260045260246000fd5b50919050565b601f8211156200091957600081815260208120601f850160051c81016020861015620008f45750805b601f850160051c820191505b81811015620009155782815560010162000900565b5050505b505050565b81516001600160401b038111156200093a576200093a62000879565b62000952816200094b84546200088f565b84620008cb565b602080601f8311600181146200098a5760008415620009715750858301515b600019600386901b1c1916600185901b17855562000915565b600085815260208120601f198616915b82811015620009bb578886015182559484019460019091019084016200099a565b5085821015620009da5787850151600019600388901b60f8161c191681555b5050505050600190811b01905550565b600060208083528351808285015260005b8181101562000a1957858101830151858201604001528201620009fb565b506000604082860101526040601f19601f8301168501019250505092915050565b80516020808301519190811015620008c55760001960209190910360031b1b16919050565b81810381811115620001ff57634e487b7160e01b600052601160045260246000fd5b60805160a05160c05160e051610100516101205161014051610160516139dd62000b03600039600081816107e301528181610e56015281816114b3015281816121d4015261235f015260006126a1015260006126790152600061145f01526000611435015260006125d4015260006125fe0152600061262801526139dd6000f3fe6080604052600436106102345760003560e01c806370b0f6601161012e578063c28bc2fa116100ab578063ea0217cf1161006f578063ea0217cf14610751578063eb9019d414610771578063ece40cc114610791578063f8ce560a146107b1578063fc0c546a146107d157600080fd5b8063c28bc2fa14610684578063c59057e414610697578063cd4265a5146106b7578063dd4e2ba5146106d7578063deaaa7cc1461071d57600080fd5b806397c3d334116100f257806397c3d334146105ed5780639a802a6d14610601578063a7713a7014610621578063b58131b014610636578063c01f9e371461064b57600080fd5b806370b0f660146105395780637b3c71d3146105595780637d5e81e21461057957806384b0196e1461059957806391ddadf4146105c157600080fd5b80633bccf4fd116101bc578063544ffc9c11610180578063544ffc9c1461045a57806354fd4d50146104af57806356781388146104d95780635f398a14146104f957806360c4247f1461051957600080fd5b80633bccf4fd1461038e5780633e4f49e6146103ae57806343859632146103db578063452115d6146104255780634bf5d7e91461044557600080fd5b806306fdde031161020357806306fdde03146102da5780632656227d146102fc5780632d63f6931461030f5780632fe3e261146103455780633932abb11461037957600080fd5b806301ffc9a71461024257806302a251a314610277578063034201811461029a57806306f3f9e6146102ba57600080fd5b3661023d57005b005b600080fd5b34801561024e57600080fd5b5061026261025d366004612b8e565b61081d565b60405190151581526020015b60405180910390f35b34801561028357600080fd5b5061028c61086f565b60405190815260200161026e565b3480156102a657600080fd5b5061028c6102b5366004612cd5565b61087f565b3480156102c657600080fd5b5061023b6102d5366004612d7b565b610977565b3480156102e657600080fd5b506102ef6109c2565b60405161026e9190612de4565b61028c61030a366004612f78565b610a54565b34801561031b57600080fd5b5061028c61032a366004612d7b565b6000908152600360205260409020546001600160401b031690565b34801561035157600080fd5b5061028c7f899f067f60f2c931e7c0101a76deed5359d3888d391b6f78fb75402bb24d0eff81565b34801561038557600080fd5b5061028c610b80565b34801561039a57600080fd5b5061028c6103a9366004613007565b610b8b565b3480156103ba57600080fd5b506103ce6103c9366004612d7b565b610c01565b60405161026e919061306b565b3480156103e757600080fd5b506102626103f6366004613093565b60008281526009602090815260408083206001600160a01b038516845260030190915290205460ff1692915050565b34801561043157600080fd5b5061028c610440366004612f78565b610d41565b34801561045157600080fd5b506102ef610e52565b34801561046657600080fd5b50610494610475366004612d7b565b6000908152600960205260409020805460018201546002909201549092565b6040805193845260208401929092529082015260600161026e565b3480156104bb57600080fd5b506040805180820190915260018152603160f81b60208201526102ef565b3480156104e557600080fd5b5061028c6104f43660046130bf565b610f14565b34801561050557600080fd5b5061028c6105143660046130e2565b610f3d565b34801561052557600080fd5b5061028c610534366004612d7b565b610f87565b34801561054557600080fd5b5061023b610554366004612d7b565b61101e565b34801561056557600080fd5b5061028c610574366004613165565b61105d565b34801561058557600080fd5b5061028c6105943660046131be565b6110a5565b3480156105a557600080fd5b506105ae611427565b60405161026e97969594939291906132b9565b3480156105cd57600080fd5b506105d66114af565b60405165ffffffffffff909116815260200161026e565b3480156105f957600080fd5b50606461028c565b34801561060d57600080fd5b5061028c61061c36600461331b565b611538565b34801561062d57600080fd5b5061028c61154f565b34801561064257600080fd5b5061028c611579565b34801561065757600080fd5b5061028c610666366004612d7b565b6000908152600360205260409020600101546001600160401b031690565b61023b610692366004613371565b611584565b3480156106a357600080fd5b5061028c6106b2366004612f78565b61164b565b3480156106c357600080fd5b5061028c6106d2366004612f78565b611685565b3480156106e357600080fd5b506040805180820190915260208082527f737570706f72743d627261766f2671756f72756d3d666f722c6162737461696e908201526102ef565b34801561072957600080fd5b5061028c7f150214d74d59b7d1e90c73fc22ef3d991dd0a76b046543d4d80ab92d2a50328f81565b34801561075d57600080fd5b5061023b61076c366004612d7b565b61169c565b34801561077d57600080fd5b5061028c61078c3660046133b2565b6116db565b34801561079d57600080fd5b5061023b6107ac366004612d7b565b6116fc565b3480156107bd57600080fd5b5061028c6107cc366004612d7b565b61173b565b3480156107dd57600080fd5b506108057f000000000000000000000000000000000000000000000000000000000000000081565b6040516001600160a01b03909116815260200161026e565b60006001600160e01b03198216635e326c8b60e11b148061084e57506001600160e01b031982166379dd796f60e01b145b8061086957506301ffc9a760e01b6001600160e01b03198316145b92915050565b600061087a60075490565b905090565b60008061092361091b7f899f067f60f2c931e7c0101a76deed5359d3888d391b6f78fb75402bb24d0eff8c8c8c8c6040516108bb9291906133dc565b60405180910390208b80519060200120604051602001610900959493929190948552602085019390935260ff9190911660408401526060830152608082015260a00190565b604051602081830303815290604052805190602001206118c9565b8686866118f6565b90506109698a828b8b8b8080601f0160208091040260200160405190810160405280939291908181526020018383808284376000920191909152508d9250611914915050565b9a9950505050505050505050565b33301461099f5760405162461bcd60e51b8152600401610996906133ec565b60405180910390fd5b6109b6565b806109af6004611a69565b036109a457505b6109bf81611ae8565b50565b6060600280546109d190613423565b80601f01602080910402602001604051908101604052809291908181526020018280546109fd90613423565b8015610a4a5780601f10610a1f57610100808354040283529160200191610a4a565b820191906000526020600020905b815481529060010190602001808311610a2d57829003601f168201915b5050505050905090565b600080610a638686868661164b565b90506000610a7082610c01565b90506004816007811115610a8657610a86613055565b1480610aa357506005816007811115610aa157610aa1613055565b145b610af95760405162461bcd60e51b815260206004820152602160248201527f476f7665726e6f723a2070726f706f73616c206e6f74207375636365737366756044820152601b60fa1b6064820152608401610996565b60008281526003602052604090819020600201805460ff19166001179055517f712ae1383f79ac853f8d882153778e0260ef8f03b504e2866e0593e04d2b291f90610b479084815260200190565b60405180910390a1610b5c8288888888611c34565b610b698288888888611cc1565b610b768288888888611c34565b5095945050505050565b600061087a60065490565b604080517f150214d74d59b7d1e90c73fc22ef3d991dd0a76b046543d4d80ab92d2a50328f602082015290810186905260ff851660608201526000908190610bd99061091b90608001610900565b9050610bf687828860405180602001604052806000815250611db7565b979650505050505050565b6000818152600360205260408120600281015460ff1615610c255750600792915050565b6002810154610100900460ff1615610c405750600292915050565b6000838152600360205260408120546001600160401b031690819003610ca85760405162461bcd60e51b815260206004820152601d60248201527f476f7665726e6f723a20756e6b6e6f776e2070726f706f73616c2069640000006044820152606401610996565b6000610cb26114af565b65ffffffffffff169050808210610cce57506000949350505050565b6000858152600360205260409020600101546001600160401b0316818110610cfc5750600195945050505050565b610d0586611dda565b8015610d24575060008681526009602052604090208054600190910154115b15610d355750600495945050505050565b50600395945050505050565b600080610d508686868661164b565b90506000610d5d82610c01565b6007811115610d6e57610d6e613055565b14610dbb5760405162461bcd60e51b815260206004820152601c60248201527f476f7665726e6f723a20746f6f206c61746520746f2063616e63656c000000006044820152606401610996565b600081815260036020526040902054600160401b90046001600160a01b0316336001600160a01b031614610e3c5760405162461bcd60e51b815260206004820152602260248201527f476f7665726e6f723a206f6e6c792070726f706f7365722063616e2063616e63604482015261195b60f21b6064820152608401610996565b610e4886868686611e26565b9695505050505050565b60607f00000000000000000000000000000000000000000000000000000000000000006001600160a01b0316634bf5d7e96040518163ffffffff1660e01b8152600401600060405180830381865afa925050508015610ed357506040513d6000823e601f3d908101601f19168201604052610ed0919081019061345d565b60015b610f0f575060408051808201909152601d81527f6d6f64653d626c6f636b6e756d6265722666726f6d3d64656661756c74000000602082015290565b919050565b600080339050610f3584828560405180602001604052806000815250611db7565b949350505050565b600080339050610bf687828888888080601f0160208091040260200160405190810160405280939291908181526020018383808284376000920191909152508a9250611914915050565b600b54600090808203610f9e575050600a54919050565b6000600b610fad6001846134e0565b81548110610fbd57610fbd6134f3565b60009182526020918290206040805180820190915291015463ffffffff8116808352600160201b9091046001600160e01b0316928201929092529150841061101357602001516001600160e01b03169392505050565b610f35600b85611f44565b33301461103d5760405162461bcd60e51b8152600401610996906133ec565b611054565b8061104d6004611a69565b0361104257505b6109bf81611ff6565b600080339050610e4886828787878080601f016020809104026020016040519081016040528093929190818152602001838380828437600092019190915250611db792505050565b600033816110b16114af565b65ffffffffffff1690506110c3611579565b6110d28361078c6001856134e0565b101561113a5760405162461bcd60e51b815260206004820152603160248201527f476f7665726e6f723a2070726f706f73657220766f7465732062656c6f7720706044820152701c9bdc1bdcd85b081d1a1c995cda1bdb19607a1b6064820152608401610996565b600061114f888888888051906020012061164b565b905086518851146111725760405162461bcd60e51b815260040161099690613509565b85518851146111935760405162461bcd60e51b815260040161099690613509565b60008851116111e45760405162461bcd60e51b815260206004820152601860248201527f476f7665726e6f723a20656d7074792070726f706f73616c00000000000000006044820152606401610996565b6000818152600360205260409020546001600160401b0316156112535760405162461bcd60e51b815260206004820152602160248201527f476f7665726e6f723a2070726f706f73616c20616c72656164792065786973746044820152607360f81b6064820152608401610996565b600061125d610b80565b611267908461354a565b9050600061127361086f565b61127d908361354a565b90506040518060e0016040528061129384612037565b6001600160401b031681526001600160a01b0387166020820152600060408201526060016112c083612037565b6001600160401b039081168252600060208084018290526040808501839052606094850183905288835260038252918290208551815492870151878501519186166001600160e01b031990941693909317600160401b6001600160a01b039094168402176001600160e01b0316600160e01b60e09290921c91909102178155938501516080860151908416921c0217600183015560a08301516002909201805460c09094015161ffff1990941692151561ff00191692909217610100931515939093029290921790558a517f7d84a6263ae0d98d3329bd7b46bb4e8d6f98cd35a7adb45c274c8b7fd5ebd5e091859188918e918e918111156113c4576113c4612c0a565b6040519080825280602002602001820160405280156113f757816020015b60608152602001906001900390816113e25790505b508d88888f604051611411999897969594939291906135eb565b60405180910390a1509098975050505050505050565b60006060808280808361145a7f00000000000000000000000000000000000000000000000000000000000000008361209f565b6114857f0000000000000000000000000000000000000000000000000000000000000000600161209f565b60408051600080825260208201909252600f60f81b9b939a50919850469750309650945092509050565b60007f00000000000000000000000000000000000000000000000000000000000000006001600160a01b03166391ddadf46040518163ffffffff1660e01b8152600401602060405180830381865afa92505050801561152b575060408051601f3d908101601f19168201909252611528918101906136c2565b60015b610f0f5761087a43612144565b60006115458484846121ab565b90505b9392505050565b600b546000901561157257611564600b61181d565b6001600160e01b0316905090565b50600a5490565b600061087a60085490565b3330146115a35760405162461bcd60e51b8152600401610996906133ec565b6115ba565b806115b36004611a69565b036115a857505b600080856001600160a01b03168585856040516115d89291906133dc565b60006040518083038185875af1925050503d8060008114611615576040519150601f19603f3d011682016040523d82523d6000602084013e61161a565b606091505b5091509150611642828260405180606001604052806028815260200161395960289139612241565b50505050505050565b60008484848460405160200161166494939291906136ea565b60408051601f19818403018152919052805160209091012095945050505050565b600061169385858585611e26565b95945050505050565b3330146116bb5760405162461bcd60e51b8152600401610996906133ec565b6116d2565b806116cb6004611a69565b036116c057505b6109bf8161225a565b600061154883836116f760408051602081019091526000815290565b6121ab565b33301461171b5760405162461bcd60e51b8152600401610996906133ec565b611732565b8061172b6004611a69565b0361172057505b6109bf816122fb565b60006108698261233c565b60006020835110156117625761175b836123e6565b9050610869565b8161176d8482613780565b5060009050610869565b90565b60006001600160e01b038211156117e35760405162461bcd60e51b815260206004820152602760248201527f53616665436173743a2076616c756520646f65736e27742066697420696e20326044820152663234206269747360c81b6064820152608401610996565b5090565b600080611805846117f743611864565b6118008661177a565b612424565b6001600160e01b0391821693501690505b9250929050565b8054600090801561185b57611845836118376001846134e0565b600091825260209091200190565b54600160201b90046001600160e01b0316611548565b60009392505050565b600063ffffffff8211156117e35760405162461bcd60e51b815260206004820152602660248201527f53616665436173743a2076616c756520646f65736e27742066697420696e203360448201526532206269747360d01b6064820152608401610996565b60006108696118d66125c7565b8360405161190160f01b8152600281019290925260228201526042902090565b6000806000611907878787876126f2565b91509150610b76816127b6565b6000858152600360205260408120600161192d88610c01565b600781111561193e5761193e613055565b146119975760405162461bcd60e51b815260206004820152602360248201527f476f7665726e6f723a20766f7465206e6f742063757272656e746c792061637460448201526269766560e81b6064820152608401610996565b80546000906119b19088906001600160401b0316866121ab565b90506119c08888888488612900565b8351600003611a1557866001600160a01b03167fb8e138887d0aa13bab447e82de9d5c1777041ecd21ca36ba824ff1e6c07ddda489888489604051611a08949392919061383f565b60405180910390a2610bf6565b866001600160a01b03167fe2babfbac5889a709b63bb7f598b324e08bc5a4fb9ec647fb3cbc9ec07eb87128988848989604051611a56959493929190613867565b60405180910390a2979650505050505050565b6000611a848254600f81810b600160801b909204900b131590565b15611aa257604051631ed9509560e11b815260040160405180910390fd5b508054600f0b6000818152600180840160205260408220805492905583546fffffffffffffffffffffffffffffffff191692016001600160801b03169190911790915590565b6064811115611b6b5760405162461bcd60e51b815260206004820152604360248201527f476f7665726e6f72566f74657351756f72756d4672616374696f6e3a2071756f60448201527f72756d4e756d657261746f72206f7665722071756f72756d44656e6f6d696e616064820152623a37b960e91b608482015260a401610996565b6000611b7561154f565b90508015801590611b865750600b54155b15611bea576040805180820190915260008152600b9060208101611ba98461177a565b6001600160e01b039081169091528254600181018455600093845260209384902083519490930151909116600160201b0263ffffffff909316929092179101555b611bf5600b836117e7565b505060408051828152602081018490527f0553476bf02ef2726e8ce5ced78d63e26e602e4a2257b1f559418e24b4633997910160405180910390a15050565b611cba565b8451811015611cb857306001600160a01b0316858281518110611c5e57611c5e6134f3565b60200260200101516001600160a01b031603611ca857611ca8838281518110611c8957611c896134f3565b6020026020010151805190602001206004612a7a90919063ffffffff16565b611cb1816138ad565b9050611c39565b505b5050505050565b600060405180606001604052806027815260200161398160279139905060005b855181101561164257600080878381518110611cff57611cff6134f3565b60200260200101516001600160a01b0316878481518110611d2257611d226134f3565b6020026020010151878581518110611d3c57611d3c6134f3565b6020026020010151604051611d5191906138c6565b60006040518083038185875af1925050503d8060008114611d8e576040519150601f19603f3d011682016040523d82523d6000602084013e611d93565b606091505b5091509150611da3828286612241565b50505080611db0906138ad565b9050611ce1565b600061169385858585611dd560408051602081019091526000815290565b611914565b600081815260096020526040812060028101546001820154611dfc919061354a565b600084815260036020526040902054611e1d906001600160401b031661173b565b11159392505050565b600080611e358686868661164b565b90506000611e4282610c01565b90506002816007811115611e5857611e58613055565b14158015611e7857506006816007811115611e7557611e75613055565b14155b8015611e9657506007816007811115611e9357611e93613055565b14155b611ee25760405162461bcd60e51b815260206004820152601d60248201527f476f7665726e6f723a2070726f706f73616c206e6f74206163746976650000006044820152606401610996565b60008281526003602052604090819020600201805461ff001916610100179055517f789cf55be980739dad1d0699b93b58e806b51c9d96619bfa8fe0a28abaa7b30c90611f329084815260200190565b60405180910390a15095945050505050565b6000438210611f955760405162461bcd60e51b815260206004820181905260248201527f436865636b706f696e74733a20626c6f636b206e6f7420796574206d696e65646044820152606401610996565b6000611fa083611864565b84549091506000611fb386848385612ab6565b90508015611fe057611fca866118376001846134e0565b54600160201b90046001600160e01b0316611fe3565b60005b6001600160e01b03169695505050505050565b60065460408051918252602082018390527fc565b045403dc03c2eea82b81a0465edad9e2e7fc4d97e11421c209da93d7a93910160405180910390a1600655565b60006001600160401b038211156117e35760405162461bcd60e51b815260206004820152602660248201527f53616665436173743a2076616c756520646f65736e27742066697420696e203660448201526534206269747360d01b6064820152608401610996565b606060ff8316156120b35761175b83612b14565b8180546120bf90613423565b80601f01602080910402602001604051908101604052809291908181526020018280546120eb90613423565b80156121385780601f1061210d57610100808354040283529160200191612138565b820191906000526020600020905b81548152906001019060200180831161211b57829003601f168201915b50505050509050610869565b600065ffffffffffff8211156117e35760405162461bcd60e51b815260206004820152602660248201527f53616665436173743a2076616c756520646f65736e27742066697420696e203460448201526538206269747360d01b6064820152608401610996565b604051630748d63560e31b81526001600160a01b038481166004830152602482018490526000917f000000000000000000000000000000000000000000000000000000000000000090911690633a46b1a890604401602060405180830381865afa15801561221d573d6000803e3d6000fd5b505050506040513d601f19601f8201168201806040525081019061154591906138e2565b60608315612250575081611548565b6115488383612b49565b600081116122ba5760405162461bcd60e51b815260206004820152602760248201527f476f7665726e6f7253657474696e67733a20766f74696e6720706572696f6420604482015266746f6f206c6f7760c81b6064820152608401610996565b60075460408051918252602082018390527f7e3f7f0708a84de9203036abaa450dccc85ad5ff52f78c170f3edb55cf5e8828910160405180910390a1600755565b60085460408051918252602082018390527fccb45da8d5717e6c4544694297c4ba5cf151d455c9bb0ed4fc7a38411bc05461910160405180910390a1600855565b6000606461234983610f87565b604051632394e7a360e21b8152600481018590527f00000000000000000000000000000000000000000000000000000000000000006001600160a01b031690638e539e8c90602401602060405180830381865afa1580156123ae573d6000803e3d6000fd5b505050506040513d601f19601f820116820180604052508101906123d291906138e2565b6123dc91906138fb565b6108699190613912565b600080829050601f81511115612411578260405163305a27a960e01b81526004016109969190612de4565b805161241c82613934565b179392505050565b82546000908190801561256a576000612442876118376001856134e0565b60408051808201909152905463ffffffff808216808452600160201b9092046001600160e01b0316602084015291925090871610156124c35760405162461bcd60e51b815260206004820152601760248201527f436865636b706f696e743a20696e76616c6964206b65790000000000000000006044820152606401610996565b805163ffffffff80881691160361250b57846124e4886118376001866134e0565b80546001600160e01b0392909216600160201b0263ffffffff90921691909117905561255a565b6040805180820190915263ffffffff80881682526001600160e01b0380881660208085019182528b54600181018d5560008d81529190912094519151909216600160201b029216919091179101555b6020015192508391506125bf9050565b50506040805180820190915263ffffffff80851682526001600160e01b0380851660208085019182528854600181018a5560008a815291822095519251909316600160201b0291909316179201919091559050815b935093915050565b6000306001600160a01b037f00000000000000000000000000000000000000000000000000000000000000001614801561262057507f000000000000000000000000000000000000000000000000000000000000000046145b1561264a57507f000000000000000000000000000000000000000000000000000000000000000090565b61087a604080517f8b73c3c69bb8fe3d512ecc4cf759cc79239f7b179b0ffacaa9a75d522b39400f60208201527f0000000000000000000000000000000000000000000000000000000000000000918101919091527f000000000000000000000000000000000000000000000000000000000000000060608201524660808201523060a082015260009060c00160405160208183030381529060405280519060200120905090565b6000807f7fffffffffffffffffffffffffffffff5d576e7357a4501ddfe92f46681b20a083111561272957506000905060036127ad565b6040805160008082526020820180845289905260ff881692820192909252606081018690526080810185905260019060a0016020604051602081039080840390855afa15801561277d573d6000803e3d6000fd5b5050604051601f1901519150506001600160a01b0381166127a6576000600192509250506127ad565b9150600090505b94509492505050565b60008160048111156127ca576127ca613055565b036127d25750565b60018160048111156127e6576127e6613055565b036128335760405162461bcd60e51b815260206004820152601860248201527f45434453413a20696e76616c6964207369676e617475726500000000000000006044820152606401610996565b600281600481111561284757612847613055565b036128945760405162461bcd60e51b815260206004820152601f60248201527f45434453413a20696e76616c6964207369676e6174757265206c656e677468006044820152606401610996565b60038160048111156128a8576128a8613055565b036109bf5760405162461bcd60e51b815260206004820152602260248201527f45434453413a20696e76616c6964207369676e6174757265202773272076616c604482015261756560f01b6064820152608401610996565b60008581526009602090815260408083206001600160a01b0388168452600381019092529091205460ff16156129885760405162461bcd60e51b815260206004820152602760248201527f476f7665726e6f72566f74696e6753696d706c653a20766f746520616c726561604482015266191e4818d85cdd60ca1b6064820152608401610996565b6001600160a01b03851660009081526003820160205260409020805460ff1916600117905560ff84166129d457828160000160008282546129c9919061354a565b90915550611cb89050565b60001960ff8516016129f457828160010160008282546129c9919061354a565b60011960ff851601612a1457828160020160008282546129c9919061354a565b60405162461bcd60e51b815260206004820152603560248201527f476f7665726e6f72566f74696e6753696d706c653a20696e76616c69642076616044820152746c756520666f7220656e756d20566f74655479706560581b6064820152608401610996565b8154600160801b90819004600f0b6000818152600180860160205260409091209390935583546001600160801b03908116939091011602179055565b60005b81831015612b0c576000612acd8484612b73565b60008781526020902090915063ffffffff86169082015463ffffffff161115612af857809250612b06565b612b0381600161354a565b93505b50612ab9565b509392505050565b60408051602080825281830190925260609160ff84169160009180820181803683375050509182525060208101929092525090565b815115612b595781518083602001fd5b8060405162461bcd60e51b81526004016109969190612de4565b6000612b826002848418613912565b6115489084841661354a565b600060208284031215612ba057600080fd5b81356001600160e01b03198116811461154857600080fd5b803560ff81168114610f0f57600080fd5b60008083601f840112612bdb57600080fd5b5081356001600160401b03811115612bf257600080fd5b60208301915083602082850101111561181657600080fd5b634e487b7160e01b600052604160045260246000fd5b604051601f8201601f191681016001600160401b0381118282101715612c4857612c48612c0a565b604052919050565b60006001600160401b03821115612c6957612c69612c0a565b50601f01601f191660200190565b6000612c8a612c8584612c50565b612c20565b9050828152838383011115612c9e57600080fd5b828260208301376000602084830101529392505050565b600082601f830112612cc657600080fd5b61154883833560208501612c77565b60008060008060008060008060e0898b031215612cf157600080fd5b88359750612d0160208a01612bb8565b965060408901356001600160401b0380821115612d1d57600080fd5b612d298c838d01612bc9565b909850965060608b0135915080821115612d4257600080fd5b50612d4f8b828c01612cb5565b945050612d5e60808a01612bb8565b925060a0890135915060c089013590509295985092959890939650565b600060208284031215612d8d57600080fd5b5035919050565b60005b83811015612daf578181015183820152602001612d97565b50506000910152565b60008151808452612dd0816020860160208601612d94565b601f01601f19169290920160200192915050565b6020815260006115486020830184612db8565b60006001600160401b03821115612e1057612e10612c0a565b5060051b60200190565b80356001600160a01b0381168114610f0f57600080fd5b600082601f830112612e4257600080fd5b81356020612e52612c8583612df7565b82815260059290921b84018101918181019086841115612e7157600080fd5b8286015b84811015612e9357612e8681612e1a565b8352918301918301612e75565b509695505050505050565b600082601f830112612eaf57600080fd5b81356020612ebf612c8583612df7565b82815260059290921b84018101918181019086841115612ede57600080fd5b8286015b84811015612e935780358352918301918301612ee2565b600082601f830112612f0a57600080fd5b81356020612f1a612c8583612df7565b82815260059290921b84018101918181019086841115612f3957600080fd5b8286015b84811015612e935780356001600160401b03811115612f5c5760008081fd5b612f6a8986838b0101612cb5565b845250918301918301612f3d565b60008060008060808587031215612f8e57600080fd5b84356001600160401b0380821115612fa557600080fd5b612fb188838901612e31565b95506020870135915080821115612fc757600080fd5b612fd388838901612e9e565b94506040870135915080821115612fe957600080fd5b50612ff687828801612ef9565b949793965093946060013593505050565b600080600080600060a0868803121561301f57600080fd5b8535945061302f60208701612bb8565b935061303d60408701612bb8565b94979396509394606081013594506080013592915050565b634e487b7160e01b600052602160045260246000fd5b602081016008831061308d57634e487b7160e01b600052602160045260246000fd5b91905290565b600080604083850312156130a657600080fd5b823591506130b660208401612e1a565b90509250929050565b600080604083850312156130d257600080fd5b823591506130b660208401612bb8565b6000806000806000608086880312156130fa57600080fd5b8535945061310a60208701612bb8565b935060408601356001600160401b038082111561312657600080fd5b61313289838a01612bc9565b9095509350606088013591508082111561314b57600080fd5b5061315888828901612cb5565b9150509295509295909350565b6000806000806060858703121561317b57600080fd5b8435935061318b60208601612bb8565b925060408501356001600160401b038111156131a657600080fd5b6131b287828801612bc9565b95989497509550505050565b600080600080608085870312156131d457600080fd5b84356001600160401b03808211156131eb57600080fd5b6131f788838901612e31565b9550602087013591508082111561320d57600080fd5b61321988838901612e9e565b9450604087013591508082111561322f57600080fd5b61323b88838901612ef9565b9350606087013591508082111561325157600080fd5b508501601f8101871361326357600080fd5b61327287823560208401612c77565b91505092959194509250565b600081518084526020808501945080840160005b838110156132ae57815187529582019590820190600101613292565b509495945050505050565b60ff60f81b8816815260e0602082015260006132d860e0830189612db8565b82810360408401526132ea8189612db8565b606084018890526001600160a01b038716608085015260a0840186905283810360c08501529050610969818561327e565b60008060006060848603121561333057600080fd5b61333984612e1a565b92506020840135915060408401356001600160401b0381111561335b57600080fd5b61336786828701612cb5565b9150509250925092565b6000806000806060858703121561338757600080fd5b61339085612e1a565b93506020850135925060408501356001600160401b038111156131a657600080fd5b600080604083850312156133c557600080fd5b6133ce83612e1a565b946020939093013593505050565b8183823760009101908152919050565b60208082526018908201527f476f7665726e6f723a206f6e6c79476f7665726e616e63650000000000000000604082015260600190565b600181811c9082168061343757607f821691505b60208210810361345757634e487b7160e01b600052602260045260246000fd5b50919050565b60006020828403121561346f57600080fd5b81516001600160401b0381111561348557600080fd5b8201601f8101841361349657600080fd5b80516134a4612c8582612c50565b8181528560208385010111156134b957600080fd5b611693826020830160208601612d94565b634e487b7160e01b600052601160045260246000fd5b81810381811115610869576108696134ca565b634e487b7160e01b600052603260045260246000fd5b60208082526021908201527f476f7665726e6f723a20696e76616c69642070726f706f73616c206c656e67746040820152600d60fb1b606082015260800190565b80820180821115610869576108696134ca565b600081518084526020808501945080840160005b838110156132ae5781516001600160a01b031687529582019590820190600101613571565b600081518084526020808501808196508360051b8101915082860160005b858110156135de5782840389526135cc848351612db8565b988501989350908401906001016135b4565b5091979650505050505050565b60006101208b8352602060018060a01b038c16818501528160408501526136148285018c61355d565b91508382036060850152613628828b61327e565b915083820360808501528189518084528284019150828160051b850101838c0160005b8381101561367957601f19878403018552613667838351612db8565b9486019492509085019060010161364b565b505086810360a088015261368d818c613596565b9450505050508560c08401528460e08401528281036101008401526136b28185612db8565b9c9b505050505050505050505050565b6000602082840312156136d457600080fd5b815165ffffffffffff8116811461154857600080fd5b6080815260006136fd608083018761355d565b828103602084015261370f818761327e565b905082810360408401526137238186613596565b91505082606083015295945050505050565b601f82111561377b57600081815260208120601f850160051c8101602086101561375c5750805b601f850160051c820191505b81811015611cb857828155600101613768565b505050565b81516001600160401b0381111561379957613799612c0a565b6137ad816137a78454613423565b84613735565b602080601f8311600181146137e257600084156137ca5750858301515b600019600386901b1c1916600185901b178555611cb8565b600085815260208120601f198616915b82811015613811578886015182559484019460019091019084016137f2565b508582101561382f5787850151600019600388901b60f8161c191681555b5050505050600190811b01905550565b84815260ff84166020820152826040820152608060608201526000610e486080830184612db8565b85815260ff8516602082015283604082015260a06060820152600061388f60a0830185612db8565b82810360808401526138a18185612db8565b98975050505050505050565b6000600182016138bf576138bf6134ca565b5060010190565b600082516138d8818460208701612d94565b9190910192915050565b6000602082840312156138f457600080fd5b5051919050565b8082028115828204841417610869576108696134ca565b60008261392f57634e487b7160e01b600052601260045260246000fd5b500490565b805160208083015191908110156134575760001960209190910360031b1b1691905056fe476f7665726e6f723a2072656c617920726576657274656420776974686f7574206d657373616765476f7665726e6f723a2063616c6c20726576657274656420776974686f7574206d657373616765a2646970667358221220ed17e48ed1c69b8aaadb523befba876516037108a7d2c83509ed2c79c65093b964736f6c63430008110033","opcodes":"PUSH2 0x180 PUSH1 0x40 MSTORE CALLVALUE DUP1 ISZERO PUSH3 0x12 JUMPI PUSH1 0x0 DUP1 REVERT JUMPDEST POP PUSH1 0x40 MLOAD PUSH3 0x44E0 CODESIZE SUB DUP1 PUSH3 0x44E0 DUP4 CODECOPY DUP2 ADD PUSH1 0x40 DUP2 SWAP1 MSTORE PUSH3 0x35 SWAP2 PUSH3 0x84E JUMP JUMPDEST PUSH1 0x4 DUP2 PUSH1 0x4 PUSH2 0x12C PUSH1 0xA PUSH1 0x40 MLOAD DUP1 PUSH1 0x40 ADD PUSH1 0x40 MSTORE DUP1 PUSH1 0xC DUP2 MSTORE PUSH1 0x20 ADD PUSH12 0x24B735AFA3B7BB32B93737B9 PUSH1 0xA1 SHL DUP2 MSTORE POP DUP1 PUSH3 0x75 PUSH3 0x19A PUSH1 0x20 SHL PUSH1 0x20 SHR JUMP JUMPDEST PUSH3 0x90 PUSH1 0x0 DUP4 PUSH3 0x1B5 PUSH1 0x20 SHL PUSH3 0x1746 OR SWAP1 SWAP2 SWAP1 PUSH1 0x20 SHR JUMP JUMPDEST PUSH1 0xE0 MSTORE PUSH3 0xAC DUP2 PUSH1 0x1 PUSH3 0x1B5 PUSH1 0x20 SWAP1 DUP2 SHL PUSH3 0x1746 OR SWAP1 SHR JUMP JUMPDEST PUSH2 0x100 MSTORE DUP2 MLOAD PUSH1 0x20 DUP1 DUP5 ADD SWAP2 SWAP1 SWAP2 KECCAK256 PUSH2 0x120 MSTORE DUP2 MLOAD SWAP1 DUP3 ADD KECCAK256 PUSH2 0x140 MSTORE CHAINID PUSH1 0xA0 MSTORE PUSH3 0x13C PUSH2 0x120 MLOAD PUSH2 0x140 MLOAD PUSH1 0x40 DUP1 MLOAD PUSH32 0x8B73C3C69BB8FE3D512ECC4CF759CC79239F7B179B0FFACAA9A75D522B39400F PUSH1 0x20 DUP3 ADD MSTORE SWAP1 DUP2 ADD SWAP3 SWAP1 SWAP3 MSTORE PUSH1 0x60 DUP3 ADD MSTORE CHAINID PUSH1 0x80 DUP3 ADD MSTORE ADDRESS PUSH1 0xA0 DUP3 ADD MSTORE PUSH1 0x0 SWAP1 PUSH1 0xC0 ADD PUSH1 0x40 MLOAD PUSH1 0x20 DUP2 DUP4 SUB SUB DUP2 MSTORE SWAP1 PUSH1 0x40 MSTORE DUP1 MLOAD SWAP1 PUSH1 0x20 ADD KECCAK256 SWAP1 POP SWAP1 JUMP JUMPDEST PUSH1 0x80 MSTORE POP POP ADDRESS PUSH1 0xC0 MSTORE PUSH1 0x2 PUSH3 0x153 DUP3 DUP3 PUSH3 0x91E JUMP JUMPDEST POP PUSH3 0x161 SWAP1 POP DUP4 PUSH3 0x205 JUMP JUMPDEST PUSH3 0x16C DUP3 PUSH3 0x246 JUMP JUMPDEST PUSH3 0x177 DUP2 PUSH3 0x2ED JUMP JUMPDEST POP POP POP PUSH1 0x1 PUSH1 0x1 PUSH1 0xA0 SHL SUB AND PUSH2 0x160 MSTORE PUSH3 0x192 DUP2 PUSH3 0x32E JUMP JUMPDEST POP POP PUSH3 0xA81 JUMP JUMPDEST PUSH1 0x40 DUP1 MLOAD DUP1 DUP3 ADD SWAP1 SWAP2 MSTORE PUSH1 0x1 DUP2 MSTORE PUSH1 0x31 PUSH1 0xF8 SHL PUSH1 0x20 DUP3 ADD MSTORE SWAP1 JUMP JUMPDEST PUSH1 0x0 PUSH1 0x20 DUP4 MLOAD LT ISZERO PUSH3 0x1D5 JUMPI PUSH3 0x1CD DUP4 PUSH3 0x4A6 JUMP JUMPDEST SWAP1 POP PUSH3 0x1FF JUMP JUMPDEST DUP3 PUSH3 0x1EC DUP4 PUSH3 0x4E9 PUSH1 0x20 SHL PUSH3 0x1777 OR PUSH1 0x20 SHR JUMP JUMPDEST SWAP1 PUSH3 0x1F9 SWAP1 DUP3 PUSH3 0x91E JUMP JUMPDEST POP PUSH1 0x0 SWAP1 POP JUMPDEST SWAP3 SWAP2 POP POP JUMP JUMPDEST PUSH1 0x6 SLOAD PUSH1 0x40 DUP1 MLOAD SWAP2 DUP3 MSTORE PUSH1 0x20 DUP3 ADD DUP4 SWAP1 MSTORE PUSH32 0xC565B045403DC03C2EEA82B81A0465EDAD9E2E7FC4D97E11421C209DA93D7A93 SWAP2 ADD PUSH1 0x40 MLOAD DUP1 SWAP2 SUB SWAP1 LOG1 PUSH1 0x6 SSTORE JUMP JUMPDEST PUSH1 0x0 DUP2 GT PUSH3 0x2AC JUMPI PUSH1 0x40 MLOAD PUSH3 0x461BCD PUSH1 0xE5 SHL DUP2 MSTORE PUSH1 0x20 PUSH1 0x4 DUP3 ADD MSTORE PUSH1 0x27 PUSH1 0x24 DUP3 ADD MSTORE PUSH32 0x476F7665726E6F7253657474696E67733A20766F74696E6720706572696F6420 PUSH1 0x44 DUP3 ADD MSTORE PUSH7 0x746F6F206C6F77 PUSH1 0xC8 SHL PUSH1 0x64 DUP3 ADD MSTORE PUSH1 0x84 ADD JUMPDEST PUSH1 0x40 MLOAD DUP1 SWAP2 SUB SWAP1 REVERT JUMPDEST PUSH1 0x7 SLOAD PUSH1 0x40 DUP1 MLOAD SWAP2 DUP3 MSTORE PUSH1 0x20 DUP3 ADD DUP4 SWAP1 MSTORE PUSH32 0x7E3F7F0708A84DE9203036ABAA450DCCC85AD5FF52F78C170F3EDB55CF5E8828 SWAP2 ADD PUSH1 0x40 MLOAD DUP1 SWAP2 SUB SWAP1 LOG1 PUSH1 0x7 SSTORE JUMP JUMPDEST PUSH1 0x8 SLOAD PUSH1 0x40 DUP1 MLOAD SWAP2 DUP3 MSTORE PUSH1 0x20 DUP3 ADD DUP4 SWAP1 MSTORE PUSH32 0xCCB45DA8D5717E6C4544694297C4BA5CF151D455C9BB0ED4FC7A38411BC05461 SWAP2 ADD PUSH1 0x40 MLOAD DUP1 SWAP2 SUB SWAP1 LOG1 PUSH1 0x8 SSTORE JUMP JUMPDEST PUSH1 0x64 DUP2 GT ISZERO PUSH3 0x3B3 JUMPI PUSH1 0x40 MLOAD PUSH3 0x461BCD PUSH1 0xE5 SHL DUP2 MSTORE PUSH1 0x20 PUSH1 0x4 DUP3 ADD MSTORE PUSH1 0x43 PUSH1 0x24 DUP3 ADD MSTORE PUSH32 0x476F7665726E6F72566F74657351756F72756D4672616374696F6E3A2071756F PUSH1 0x44 DUP3 ADD MSTORE PUSH32 0x72756D4E756D657261746F72206F7665722071756F72756D44656E6F6D696E61 PUSH1 0x64 DUP3 ADD MSTORE PUSH3 0x3A37B9 PUSH1 0xE9 SHL PUSH1 0x84 DUP3 ADD MSTORE PUSH1 0xA4 ADD PUSH3 0x2A3 JUMP JUMPDEST PUSH1 0x0 PUSH3 0x3BF PUSH3 0x4EC JUMP JUMPDEST SWAP1 POP DUP1 ISZERO DUP1 ISZERO SWAP1 PUSH3 0x3D1 JUMPI POP PUSH1 0xB SLOAD ISZERO JUMPDEST ISZERO PUSH3 0x44C JUMPI PUSH1 0xB PUSH1 0x0 ADD PUSH1 0x40 MLOAD DUP1 PUSH1 0x40 ADD PUSH1 0x40 MSTORE DUP1 PUSH1 0x0 PUSH4 0xFFFFFFFF AND DUP2 MSTORE PUSH1 0x20 ADD PUSH3 0x40A DUP5 PUSH3 0x524 PUSH1 0x20 SHL PUSH3 0x177A OR PUSH1 0x20 SHR JUMP JUMPDEST PUSH1 0x1 PUSH1 0x1 PUSH1 0xE0 SHL SUB SWAP1 DUP2 AND SWAP1 SWAP2 MSTORE DUP3 SLOAD PUSH1 0x1 DUP2 ADD DUP5 SSTORE PUSH1 0x0 SWAP4 DUP5 MSTORE PUSH1 0x20 SWAP4 DUP5 SWAP1 KECCAK256 DUP4 MLOAD SWAP5 SWAP1 SWAP4 ADD MLOAD SWAP1 SWAP2 AND PUSH5 0x100000000 MUL PUSH4 0xFFFFFFFF SWAP1 SWAP4 AND SWAP3 SWAP1 SWAP3 OR SWAP2 ADD SSTORE JUMPDEST PUSH3 0x467 DUP3 PUSH1 0xB PUSH3 0x593 PUSH1 0x20 SHL PUSH3 0x17E7 OR SWAP1 SWAP2 SWAP1 PUSH1 0x20 SHR JUMP JUMPDEST POP POP PUSH1 0x40 DUP1 MLOAD DUP3 DUP2 MSTORE PUSH1 0x20 DUP2 ADD DUP5 SWAP1 MSTORE PUSH32 0x553476BF02EF2726E8CE5CED78D63E26E602E4A2257B1F559418E24B4633997 SWAP2 ADD PUSH1 0x40 MLOAD DUP1 SWAP2 SUB SWAP1 LOG1 POP POP JUMP JUMPDEST PUSH1 0x0 DUP1 DUP3 SWAP1 POP PUSH1 0x1F DUP2 MLOAD GT ISZERO PUSH3 0x4D4 JUMPI DUP3 PUSH1 0x40 MLOAD PUSH4 0x305A27A9 PUSH1 0xE0 SHL DUP2 MSTORE PUSH1 0x4 ADD PUSH3 0x2A3 SWAP2 SWAP1 PUSH3 0x9EA JUMP JUMPDEST DUP1 MLOAD PUSH3 0x4E1 DUP3 PUSH3 0xA3A JUMP JUMPDEST OR SWAP4 SWAP3 POP POP POP JUMP JUMPDEST SWAP1 JUMP JUMPDEST PUSH1 0xB SLOAD PUSH1 0x0 SWAP1 ISZERO PUSH3 0x51D JUMPI PUSH3 0x50F PUSH1 0xB PUSH3 0x5E6 PUSH1 0x20 SHL PUSH3 0x181D OR PUSH1 0x20 SHR JUMP JUMPDEST PUSH1 0x1 PUSH1 0x1 PUSH1 0xE0 SHL SUB AND SWAP1 POP SWAP1 JUMP JUMPDEST POP PUSH1 0xA SLOAD SWAP1 JUMP JUMPDEST PUSH1 0x0 PUSH1 0x1 PUSH1 0x1 PUSH1 0xE0 SHL SUB DUP3 GT ISZERO PUSH3 0x58F JUMPI PUSH1 0x40 MLOAD PUSH3 0x461BCD PUSH1 0xE5 SHL DUP2 MSTORE PUSH1 0x20 PUSH1 0x4 DUP3 ADD MSTORE PUSH1 0x27 PUSH1 0x24 DUP3 ADD MSTORE PUSH32 0x53616665436173743A2076616C756520646F65736E27742066697420696E2032 PUSH1 0x44 DUP3 ADD MSTORE PUSH7 0x32342062697473 PUSH1 0xC8 SHL PUSH1 0x64 DUP3 ADD MSTORE PUSH1 0x84 ADD PUSH3 0x2A3 JUMP JUMPDEST POP SWAP1 JUMP JUMPDEST PUSH1 0x0 DUP1 PUSH3 0x5D0 DUP5 PUSH1 0x0 ADD PUSH3 0x5B4 NUMBER PUSH3 0x634 PUSH1 0x20 SHL PUSH3 0x1864 OR PUSH1 0x20 SHR JUMP JUMPDEST PUSH3 0x5CA DUP7 PUSH3 0x524 PUSH1 0x20 SHL PUSH3 0x177A OR PUSH1 0x20 SHR JUMP JUMPDEST PUSH3 0x69B JUMP JUMPDEST PUSH1 0x1 PUSH1 0x1 PUSH1 0xE0 SHL SUB SWAP2 DUP3 AND SWAP7 SWAP2 AND SWAP5 POP SWAP3 POP POP POP JUMP JUMPDEST DUP1 SLOAD PUSH1 0x0 SWAP1 DUP1 ISZERO PUSH3 0x62A JUMPI PUSH3 0x612 DUP4 PUSH3 0x604 PUSH1 0x1 DUP5 PUSH3 0xA5F JUMP JUMPDEST PUSH1 0x0 SWAP2 DUP3 MSTORE PUSH1 0x20 SWAP1 SWAP2 KECCAK256 ADD SWAP1 JUMP JUMPDEST SLOAD PUSH5 0x100000000 SWAP1 DIV PUSH1 0x1 PUSH1 0x1 PUSH1 0xE0 SHL SUB AND PUSH3 0x62D JUMP JUMPDEST PUSH1 0x0 JUMPDEST SWAP4 SWAP3 POP POP POP JUMP JUMPDEST PUSH1 0x0 PUSH4 0xFFFFFFFF DUP3 GT ISZERO PUSH3 0x58F JUMPI PUSH1 0x40 MLOAD PUSH3 0x461BCD PUSH1 0xE5 SHL DUP2 MSTORE PUSH1 0x20 PUSH1 0x4 DUP3 ADD MSTORE PUSH1 0x26 PUSH1 0x24 DUP3 ADD MSTORE PUSH32 0x53616665436173743A2076616C756520646F65736E27742066697420696E2033 PUSH1 0x44 DUP3 ADD MSTORE PUSH6 0x322062697473 PUSH1 0xD0 SHL PUSH1 0x64 DUP3 ADD MSTORE PUSH1 0x84 ADD PUSH3 0x2A3 JUMP JUMPDEST DUP3 SLOAD PUSH1 0x0 SWAP1 DUP2 SWAP1 DUP1 ISZERO PUSH3 0x7F0 JUMPI PUSH1 0x0 PUSH3 0x6BD DUP8 PUSH3 0x604 PUSH1 0x1 DUP6 PUSH3 0xA5F JUMP JUMPDEST PUSH1 0x40 DUP1 MLOAD DUP1 DUP3 ADD SWAP1 SWAP2 MSTORE SWAP1 SLOAD PUSH4 0xFFFFFFFF DUP1 DUP3 AND DUP1 DUP5 MSTORE PUSH5 0x100000000 SWAP1 SWAP3 DIV PUSH1 0x1 PUSH1 0x1 PUSH1 0xE0 SHL SUB AND PUSH1 0x20 DUP5 ADD MSTORE SWAP2 SWAP3 POP SWAP1 DUP8 AND LT ISZERO PUSH3 0x741 JUMPI PUSH1 0x40 MLOAD PUSH3 0x461BCD PUSH1 0xE5 SHL DUP2 MSTORE PUSH1 0x20 PUSH1 0x4 DUP3 ADD MSTORE PUSH1 0x17 PUSH1 0x24 DUP3 ADD MSTORE PUSH32 0x436865636B706F696E743A20696E76616C6964206B6579000000000000000000 PUSH1 0x44 DUP3 ADD MSTORE PUSH1 0x64 ADD PUSH3 0x2A3 JUMP JUMPDEST DUP1 MLOAD PUSH4 0xFFFFFFFF DUP1 DUP9 AND SWAP2 AND SUB PUSH3 0x78F JUMPI DUP5 PUSH3 0x766 DUP9 PUSH3 0x604 PUSH1 0x1 DUP7 PUSH3 0xA5F JUMP JUMPDEST DUP1 SLOAD PUSH1 0x1 PUSH1 0x1 PUSH1 0xE0 SHL SUB SWAP3 SWAP1 SWAP3 AND PUSH5 0x100000000 MUL PUSH4 0xFFFFFFFF SWAP1 SWAP3 AND SWAP2 SWAP1 SWAP2 OR SWAP1 SSTORE PUSH3 0x7DF JUMP JUMPDEST PUSH1 0x40 DUP1 MLOAD DUP1 DUP3 ADD SWAP1 SWAP2 MSTORE PUSH4 0xFFFFFFFF DUP1 DUP9 AND DUP3 MSTORE PUSH1 0x1 PUSH1 0x1 PUSH1 0xE0 SHL SUB DUP1 DUP9 AND PUSH1 0x20 DUP1 DUP6 ADD SWAP2 DUP3 MSTORE DUP12 SLOAD PUSH1 0x1 DUP2 ADD DUP14 SSTORE PUSH1 0x0 DUP14 DUP2 MSTORE SWAP2 SWAP1 SWAP2 KECCAK256 SWAP5 MLOAD SWAP2 MLOAD SWAP1 SWAP3 AND PUSH5 0x100000000 MUL SWAP3 AND SWAP2 SWAP1 SWAP2 OR SWAP2 ADD SSTORE JUMPDEST PUSH1 0x20 ADD MLOAD SWAP3 POP DUP4 SWAP2 POP PUSH3 0x846 SWAP1 POP JUMP JUMPDEST POP POP PUSH1 0x40 DUP1 MLOAD DUP1 DUP3 ADD SWAP1 SWAP2 MSTORE PUSH4 0xFFFFFFFF DUP1 DUP6 AND DUP3 MSTORE PUSH1 0x1 PUSH1 0x1 PUSH1 0xE0 SHL SUB DUP1 DUP6 AND PUSH1 0x20 DUP1 DUP6 ADD SWAP2 DUP3 MSTORE DUP9 SLOAD PUSH1 0x1 DUP2 ADD DUP11 SSTORE PUSH1 0x0 DUP11 DUP2 MSTORE SWAP2 DUP3 KECCAK256 SWAP6 MLOAD SWAP3 MLOAD SWAP1 SWAP4 AND PUSH5 0x100000000 MUL SWAP2 SWAP1 SWAP4 AND OR SWAP3 ADD SWAP2 SWAP1 SWAP2 SSTORE SWAP1 POP DUP2 JUMPDEST SWAP4 POP SWAP4 SWAP2 POP POP JUMP JUMPDEST PUSH1 0x0 PUSH1 0x20 DUP3 DUP5 SUB SLT ISZERO PUSH3 0x861 JUMPI PUSH1 0x0 DUP1 REVERT JUMPDEST DUP2 MLOAD PUSH1 0x1 PUSH1 0x1 PUSH1 0xA0 SHL SUB DUP2 AND DUP2 EQ PUSH3 0x62D JUMPI PUSH1 0x0 DUP1 REVERT JUMPDEST PUSH4 0x4E487B71 PUSH1 0xE0 SHL PUSH1 0x0 MSTORE PUSH1 0x41 PUSH1 0x4 MSTORE PUSH1 0x24 PUSH1 0x0 REVERT JUMPDEST PUSH1 0x1 DUP2 DUP2 SHR SWAP1 DUP3 AND DUP1 PUSH3 0x8A4 JUMPI PUSH1 0x7F DUP3 AND SWAP2 POP JUMPDEST PUSH1 0x20 DUP3 LT DUP2 SUB PUSH3 0x8C5 JUMPI PUSH4 0x4E487B71 PUSH1 0xE0 SHL PUSH1 0x0 MSTORE PUSH1 0x22 PUSH1 0x4 MSTORE PUSH1 0x24 PUSH1 0x0 REVERT JUMPDEST POP SWAP2 SWAP1 POP JUMP JUMPDEST PUSH1 0x1F DUP3 GT ISZERO PUSH3 0x919 JUMPI PUSH1 0x0 DUP2 DUP2 MSTORE PUSH1 0x20 DUP2 KECCAK256 PUSH1 0x1F DUP6 ADD PUSH1 0x5 SHR DUP2 ADD PUSH1 0x20 DUP7 LT ISZERO PUSH3 0x8F4 JUMPI POP DUP1 JUMPDEST PUSH1 0x1F DUP6 ADD PUSH1 0x5 SHR DUP3 ADD SWAP2 POP JUMPDEST DUP2 DUP2 LT ISZERO PUSH3 0x915 JUMPI DUP3 DUP2 SSTORE PUSH1 0x1 ADD PUSH3 0x900 JUMP JUMPDEST POP POP POP JUMPDEST POP POP POP JUMP JUMPDEST DUP2 MLOAD PUSH1 0x1 PUSH1 0x1 PUSH1 0x40 SHL SUB DUP2 GT ISZERO PUSH3 0x93A JUMPI PUSH3 0x93A PUSH3 0x879 JUMP JUMPDEST PUSH3 0x952 DUP2 PUSH3 0x94B DUP5 SLOAD PUSH3 0x88F JUMP JUMPDEST DUP5 PUSH3 0x8CB JUMP JUMPDEST PUSH1 0x20 DUP1 PUSH1 0x1F DUP4 GT PUSH1 0x1 DUP2 EQ PUSH3 0x98A JUMPI PUSH1 0x0 DUP5 ISZERO PUSH3 0x971 JUMPI POP DUP6 DUP4 ADD MLOAD JUMPDEST PUSH1 0x0 NOT PUSH1 0x3 DUP7 SWAP1 SHL SHR NOT AND PUSH1 0x1 DUP6 SWAP1 SHL OR DUP6 SSTORE PUSH3 0x915 JUMP JUMPDEST PUSH1 0x0 DUP6 DUP2 MSTORE PUSH1 0x20 DUP2 KECCAK256 PUSH1 0x1F NOT DUP7 AND SWAP2 JUMPDEST DUP3 DUP2 LT ISZERO PUSH3 0x9BB JUMPI DUP9 DUP7 ADD MLOAD DUP3 SSTORE SWAP5 DUP5 ADD SWAP5 PUSH1 0x1 SWAP1 SWAP2 ADD SWAP1 DUP5 ADD PUSH3 0x99A JUMP JUMPDEST POP DUP6 DUP3 LT ISZERO PUSH3 0x9DA JUMPI DUP8 DUP6 ADD MLOAD PUSH1 0x0 NOT PUSH1 0x3 DUP9 SWAP1 SHL PUSH1 0xF8 AND SHR NOT AND DUP2 SSTORE JUMPDEST POP POP POP POP POP PUSH1 0x1 SWAP1 DUP2 SHL ADD SWAP1 SSTORE POP JUMP JUMPDEST PUSH1 0x0 PUSH1 0x20 DUP1 DUP4 MSTORE DUP4 MLOAD DUP1 DUP3 DUP6 ADD MSTORE PUSH1 0x0 JUMPDEST DUP2 DUP2 LT ISZERO PUSH3 0xA19 JUMPI DUP6 DUP2 ADD DUP4 ADD MLOAD DUP6 DUP3 ADD PUSH1 0x40 ADD MSTORE DUP3 ADD PUSH3 0x9FB JUMP JUMPDEST POP PUSH1 0x0 PUSH1 0x40 DUP3 DUP7 ADD ADD MSTORE PUSH1 0x40 PUSH1 0x1F NOT PUSH1 0x1F DUP4 ADD AND DUP6 ADD ADD SWAP3 POP POP POP SWAP3 SWAP2 POP POP JUMP JUMPDEST DUP1 MLOAD PUSH1 0x20 DUP1 DUP4 ADD MLOAD SWAP2 SWAP1 DUP2 LT ISZERO PUSH3 0x8C5 JUMPI PUSH1 0x0 NOT PUSH1 0x20 SWAP2 SWAP1 SWAP2 SUB PUSH1 0x3 SHL SHL AND SWAP2 SWAP1 POP JUMP JUMPDEST DUP2 DUP2 SUB DUP2 DUP2 GT ISZERO PUSH3 0x1FF JUMPI PUSH4 0x4E487B71 PUSH1 0xE0 SHL PUSH1 0x0 MSTORE PUSH1 0x11 PUSH1 0x4 MSTORE PUSH1 0x24 PUSH1 0x0 REVERT JUMPDEST PUSH1 0x80 MLOAD PUSH1 0xA0 MLOAD PUSH1 0xC0 MLOAD PUSH1 0xE0 MLOAD PUSH2 0x100 MLOAD PUSH2 0x120 MLOAD PUSH2 0x140 MLOAD PUSH2 0x160 MLOAD PUSH2 0x39DD PUSH3 0xB03 PUSH1 0x0 CODECOPY PUSH1 0x0 DUP2 DUP2 PUSH2 0x7E3 ADD MSTORE DUP2 DUP2 PUSH2 0xE56 ADD MSTORE DUP2 DUP2 PUSH2 0x14B3 ADD MSTORE DUP2 DUP2 PUSH2 0x21D4 ADD MSTORE PUSH2 0x235F ADD MSTORE PUSH1 0x0 PUSH2 0x26A1 ADD MSTORE PUSH1 0x0 PUSH2 0x2679 ADD MSTORE PUSH1 0x0 PUSH2 0x145F ADD MSTORE PUSH1 0x0 PUSH2 0x1435 ADD MSTORE PUSH1 0x0 PUSH2 0x25D4 ADD MSTORE PUSH1 0x0 PUSH2 0x25FE ADD MSTORE PUSH1 0x0 PUSH2 0x2628 ADD MSTORE PUSH2 0x39DD PUSH1 0x0 RETURN INVALID PUSH1 0x80 PUSH1 0x40 MSTORE PUSH1 0x4 CALLDATASIZE LT PUSH2 0x234 JUMPI PUSH1 0x0 CALLDATALOAD PUSH1 0xE0 SHR DUP1 PUSH4 0x70B0F660 GT PUSH2 0x12E JUMPI DUP1 PUSH4 0xC28BC2FA GT PUSH2 0xAB JUMPI DUP1 PUSH4 0xEA0217CF GT PUSH2 0x6F JUMPI DUP1 PUSH4 0xEA0217CF EQ PUSH2 0x751 JUMPI DUP1 PUSH4 0xEB9019D4 EQ PUSH2 0x771 JUMPI DUP1 PUSH4 0xECE40CC1 EQ PUSH2 0x791 JUMPI DUP1 PUSH4 0xF8CE560A EQ PUSH2 0x7B1 JUMPI DUP1 PUSH4 0xFC0C546A EQ PUSH2 0x7D1 JUMPI PUSH1 0x0 DUP1 REVERT JUMPDEST DUP1 PUSH4 0xC28BC2FA EQ PUSH2 0x684 JUMPI DUP1 PUSH4 0xC59057E4 EQ PUSH2 0x697 JUMPI DUP1 PUSH4 0xCD4265A5 EQ PUSH2 0x6B7 JUMPI DUP1 PUSH4 0xDD4E2BA5 EQ PUSH2 0x6D7 JUMPI DUP1 PUSH4 0xDEAAA7CC EQ PUSH2 0x71D JUMPI PUSH1 0x0 DUP1 REVERT JUMPDEST DUP1 PUSH4 0x97C3D334 GT PUSH2 0xF2 JUMPI DUP1 PUSH4 0x97C3D334 EQ PUSH2 0x5ED JUMPI DUP1 PUSH4 0x9A802A6D EQ PUSH2 0x601 JUMPI DUP1 PUSH4 0xA7713A70 EQ PUSH2 0x621 JUMPI DUP1 PUSH4 0xB58131B0 EQ PUSH2 0x636 JUMPI DUP1 PUSH4 0xC01F9E37 EQ PUSH2 0x64B JUMPI PUSH1 0x0 DUP1 REVERT JUMPDEST DUP1 PUSH4 0x70B0F660 EQ PUSH2 0x539 JUMPI DUP1 PUSH4 0x7B3C71D3 EQ PUSH2 0x559 JUMPI DUP1 PUSH4 0x7D5E81E2 EQ PUSH2 0x579 JUMPI DUP1 PUSH4 0x84B0196E EQ PUSH2 0x599 JUMPI DUP1 PUSH4 0x91DDADF4 EQ PUSH2 0x5C1 JUMPI PUSH1 0x0 DUP1 REVERT JUMPDEST DUP1 PUSH4 0x3BCCF4FD GT PUSH2 0x1BC JUMPI DUP1 PUSH4 0x544FFC9C GT PUSH2 0x180 JUMPI DUP1 PUSH4 0x544FFC9C EQ PUSH2 0x45A JUMPI DUP1 PUSH4 0x54FD4D50 EQ PUSH2 0x4AF JUMPI DUP1 PUSH4 0x56781388 EQ PUSH2 0x4D9 JUMPI DUP1 PUSH4 0x5F398A14 EQ PUSH2 0x4F9 JUMPI DUP1 PUSH4 0x60C4247F EQ PUSH2 0x519 JUMPI PUSH1 0x0 DUP1 REVERT JUMPDEST DUP1 PUSH4 0x3BCCF4FD EQ PUSH2 0x38E JUMPI DUP1 PUSH4 0x3E4F49E6 EQ PUSH2 0x3AE JUMPI DUP1 PUSH4 0x43859632 EQ PUSH2 0x3DB JUMPI DUP1 PUSH4 0x452115D6 EQ PUSH2 0x425 JUMPI DUP1 PUSH4 0x4BF5D7E9 EQ PUSH2 0x445 JUMPI PUSH1 0x0 DUP1 REVERT JUMPDEST DUP1 PUSH4 0x6FDDE03 GT PUSH2 0x203 JUMPI DUP1 PUSH4 0x6FDDE03 EQ PUSH2 0x2DA JUMPI DUP1 PUSH4 0x2656227D EQ PUSH2 0x2FC JUMPI DUP1 PUSH4 0x2D63F693 EQ PUSH2 0x30F JUMPI DUP1 PUSH4 0x2FE3E261 EQ PUSH2 0x345 JUMPI DUP1 PUSH4 0x3932ABB1 EQ PUSH2 0x379 JUMPI PUSH1 0x0 DUP1 REVERT JUMPDEST DUP1 PUSH4 0x1FFC9A7 EQ PUSH2 0x242 JUMPI DUP1 PUSH4 0x2A251A3 EQ PUSH2 0x277 JUMPI DUP1 PUSH4 0x3420181 EQ PUSH2 0x29A JUMPI DUP1 PUSH4 0x6F3F9E6 EQ PUSH2 0x2BA JUMPI PUSH1 0x0 DUP1 REVERT JUMPDEST CALLDATASIZE PUSH2 0x23D JUMPI STOP JUMPDEST STOP JUMPDEST PUSH1 0x0 DUP1 REVERT JUMPDEST CALLVALUE DUP1 ISZERO PUSH2 0x24E JUMPI PUSH1 0x0 DUP1 REVERT JUMPDEST POP PUSH2 0x262 PUSH2 0x25D CALLDATASIZE PUSH1 0x4 PUSH2 0x2B8E JUMP JUMPDEST PUSH2 0x81D JUMP JUMPDEST PUSH1 0x40 MLOAD SWAP1 ISZERO ISZERO DUP2 MSTORE PUSH1 0x20 ADD JUMPDEST PUSH1 0x40 MLOAD DUP1 SWAP2 SUB SWAP1 RETURN JUMPDEST CALLVALUE DUP1 ISZERO PUSH2 0x283 JUMPI PUSH1 0x0 DUP1 REVERT JUMPDEST POP PUSH2 0x28C PUSH2 0x86F JUMP JUMPDEST PUSH1 0x40 MLOAD SWAP1 DUP2 MSTORE PUSH1 0x20 ADD PUSH2 0x26E JUMP JUMPDEST CALLVALUE DUP1 ISZERO PUSH2 0x2A6 JUMPI PUSH1 0x0 DUP1 REVERT JUMPDEST POP PUSH2 0x28C PUSH2 0x2B5 CALLDATASIZE PUSH1 0x4 PUSH2 0x2CD5 JUMP JUMPDEST PUSH2 0x87F JUMP JUMPDEST CALLVALUE DUP1 ISZERO PUSH2 0x2C6 JUMPI PUSH1 0x0 DUP1 REVERT JUMPDEST POP PUSH2 0x23B PUSH2 0x2D5 CALLDATASIZE PUSH1 0x4 PUSH2 0x2D7B JUMP JUMPDEST PUSH2 0x977 JUMP JUMPDEST CALLVALUE DUP1 ISZERO PUSH2 0x2E6 JUMPI PUSH1 0x0 DUP1 REVERT JUMPDEST POP PUSH2 0x2EF PUSH2 0x9C2 JUMP JUMPDEST PUSH1 0x40 MLOAD PUSH2 0x26E SWAP2 SWAP1 PUSH2 0x2DE4 JUMP JUMPDEST PUSH2 0x28C PUSH2 0x30A CALLDATASIZE PUSH1 0x4 PUSH2 0x2F78 JUMP JUMPDEST PUSH2 0xA54 JUMP JUMPDEST CALLVALUE DUP1 ISZERO PUSH2 0x31B JUMPI PUSH1 0x0 DUP1 REVERT JUMPDEST POP PUSH2 0x28C PUSH2 0x32A CALLDATASIZE PUSH1 0x4 PUSH2 0x2D7B JUMP JUMPDEST PUSH1 0x0 SWAP1 DUP2 MSTORE PUSH1 0x3 PUSH1 0x20 MSTORE PUSH1 0x40 SWAP1 KECCAK256 SLOAD PUSH1 0x1 PUSH1 0x1 PUSH1 0x40 SHL SUB AND SWAP1 JUMP JUMPDEST CALLVALUE DUP1 ISZERO PUSH2 0x351 JUMPI PUSH1 0x0 DUP1 REVERT JUMPDEST POP PUSH2 0x28C PUSH32 0x899F067F60F2C931E7C0101A76DEED5359D3888D391B6F78FB75402BB24D0EFF DUP2 JUMP JUMPDEST CALLVALUE DUP1 ISZERO PUSH2 0x385 JUMPI PUSH1 0x0 DUP1 REVERT JUMPDEST POP PUSH2 0x28C PUSH2 0xB80 JUMP JUMPDEST CALLVALUE DUP1 ISZERO PUSH2 0x39A JUMPI PUSH1 0x0 DUP1 REVERT JUMPDEST POP PUSH2 0x28C PUSH2 0x3A9 CALLDATASIZE PUSH1 0x4 PUSH2 0x3007 JUMP JUMPDEST PUSH2 0xB8B JUMP JUMPDEST CALLVALUE DUP1 ISZERO PUSH2 0x3BA JUMPI PUSH1 0x0 DUP1 REVERT JUMPDEST POP PUSH2 0x3CE PUSH2 0x3C9 CALLDATASIZE PUSH1 0x4 PUSH2 0x2D7B JUMP JUMPDEST PUSH2 0xC01 JUMP JUMPDEST PUSH1 0x40 MLOAD PUSH2 0x26E SWAP2 SWAP1 PUSH2 0x306B JUMP JUMPDEST CALLVALUE DUP1 ISZERO PUSH2 0x3E7 JUMPI PUSH1 0x0 DUP1 REVERT JUMPDEST POP PUSH2 0x262 PUSH2 0x3F6 CALLDATASIZE PUSH1 0x4 PUSH2 0x3093 JUMP JUMPDEST PUSH1 0x0 DUP3 DUP2 MSTORE PUSH1 0x9 PUSH1 0x20 SWAP1 DUP2 MSTORE PUSH1 0x40 DUP1 DUP4 KECCAK256 PUSH1 0x1 PUSH1 0x1 PUSH1 0xA0 SHL SUB DUP6 AND DUP5 MSTORE PUSH1 0x3 ADD SWAP1 SWAP2 MSTORE SWAP1 KECCAK256 SLOAD PUSH1 0xFF AND SWAP3 SWAP2 POP POP JUMP JUMPDEST CALLVALUE DUP1 ISZERO PUSH2 0x431 JUMPI PUSH1 0x0 DUP1 REVERT JUMPDEST POP PUSH2 0x28C PUSH2 0x440 CALLDATASIZE PUSH1 0x4 PUSH2 0x2F78 JUMP JUMPDEST PUSH2 0xD41 JUMP JUMPDEST CALLVALUE DUP1 ISZERO PUSH2 0x451 JUMPI PUSH1 0x0 DUP1 REVERT JUMPDEST POP PUSH2 0x2EF PUSH2 0xE52 JUMP JUMPDEST CALLVALUE DUP1 ISZERO PUSH2 0x466 JUMPI PUSH1 0x0 DUP1 REVERT JUMPDEST POP PUSH2 0x494 PUSH2 0x475 CALLDATASIZE PUSH1 0x4 PUSH2 0x2D7B JUMP JUMPDEST PUSH1 0x0 SWAP1 DUP2 MSTORE PUSH1 0x9 PUSH1 0x20 MSTORE PUSH1 0x40 SWAP1 KECCAK256 DUP1 SLOAD PUSH1 0x1 DUP3 ADD SLOAD PUSH1 0x2 SWAP1 SWAP3 ADD SLOAD SWAP1 SWAP3 JUMP JUMPDEST PUSH1 0x40 DUP1 MLOAD SWAP4 DUP5 MSTORE PUSH1 0x20 DUP5 ADD SWAP3 SWAP1 SWAP3 MSTORE SWAP1 DUP3 ADD MSTORE PUSH1 0x60 ADD PUSH2 0x26E JUMP JUMPDEST CALLVALUE DUP1 ISZERO PUSH2 0x4BB JUMPI PUSH1 0x0 DUP1 REVERT JUMPDEST POP PUSH1 0x40 DUP1 MLOAD DUP1 DUP3 ADD SWAP1 SWAP2 MSTORE PUSH1 0x1 DUP2 MSTORE PUSH1 0x31 PUSH1 0xF8 SHL PUSH1 0x20 DUP3 ADD MSTORE PUSH2 0x2EF JUMP JUMPDEST CALLVALUE DUP1 ISZERO PUSH2 0x4E5 JUMPI PUSH1 0x0 DUP1 REVERT JUMPDEST POP PUSH2 0x28C PUSH2 0x4F4 CALLDATASIZE PUSH1 0x4 PUSH2 0x30BF JUMP JUMPDEST PUSH2 0xF14 JUMP JUMPDEST CALLVALUE DUP1 ISZERO PUSH2 0x505 JUMPI PUSH1 0x0 DUP1 REVERT JUMPDEST POP PUSH2 0x28C PUSH2 0x514 CALLDATASIZE PUSH1 0x4 PUSH2 0x30E2 JUMP JUMPDEST PUSH2 0xF3D JUMP JUMPDEST CALLVALUE DUP1 ISZERO PUSH2 0x525 JUMPI PUSH1 0x0 DUP1 REVERT JUMPDEST POP PUSH2 0x28C PUSH2 0x534 CALLDATASIZE PUSH1 0x4 PUSH2 0x2D7B JUMP JUMPDEST PUSH2 0xF87 JUMP JUMPDEST CALLVALUE DUP1 ISZERO PUSH2 0x545 JUMPI PUSH1 0x0 DUP1 REVERT JUMPDEST POP PUSH2 0x23B PUSH2 0x554 CALLDATASIZE PUSH1 0x4 PUSH2 0x2D7B JUMP JUMPDEST PUSH2 0x101E JUMP JUMPDEST CALLVALUE DUP1 ISZERO PUSH2 0x565 JUMPI PUSH1 0x0 DUP1 REVERT JUMPDEST POP PUSH2 0x28C PUSH2 0x574 CALLDATASIZE PUSH1 0x4 PUSH2 0x3165 JUMP JUMPDEST PUSH2 0x105D JUMP JUMPDEST CALLVALUE DUP1 ISZERO PUSH2 0x585 JUMPI PUSH1 0x0 DUP1 REVERT JUMPDEST POP PUSH2 0x28C PUSH2 0x594 CALLDATASIZE PUSH1 0x4 PUSH2 0x31BE JUMP JUMPDEST PUSH2 0x10A5 JUMP JUMPDEST CALLVALUE DUP1 ISZERO PUSH2 0x5A5 JUMPI PUSH1 0x0 DUP1 REVERT JUMPDEST POP PUSH2 0x5AE PUSH2 0x1427 JUMP JUMPDEST PUSH1 0x40 MLOAD PUSH2 0x26E SWAP8 SWAP7 SWAP6 SWAP5 SWAP4 SWAP3 SWAP2 SWAP1 PUSH2 0x32B9 JUMP JUMPDEST CALLVALUE DUP1 ISZERO PUSH2 0x5CD JUMPI PUSH1 0x0 DUP1 REVERT JUMPDEST POP PUSH2 0x5D6 PUSH2 0x14AF JUMP JUMPDEST PUSH1 0x40 MLOAD PUSH6 0xFFFFFFFFFFFF SWAP1 SWAP2 AND DUP2 MSTORE PUSH1 0x20 ADD PUSH2 0x26E JUMP JUMPDEST CALLVALUE DUP1 ISZERO PUSH2 0x5F9 JUMPI PUSH1 0x0 DUP1 REVERT JUMPDEST POP PUSH1 0x64 PUSH2 0x28C JUMP JUMPDEST CALLVALUE DUP1 ISZERO PUSH2 0x60D JUMPI PUSH1 0x0 DUP1 REVERT JUMPDEST POP PUSH2 0x28C PUSH2 0x61C CALLDATASIZE PUSH1 0x4 PUSH2 0x331B JUMP JUMPDEST PUSH2 0x1538 JUMP JUMPDEST CALLVALUE DUP1 ISZERO PUSH2 0x62D JUMPI PUSH1 0x0 DUP1 REVERT JUMPDEST POP PUSH2 0x28C PUSH2 0x154F JUMP JUMPDEST CALLVALUE DUP1 ISZERO PUSH2 0x642 JUMPI PUSH1 0x0 DUP1 REVERT JUMPDEST POP PUSH2 0x28C PUSH2 0x1579 JUMP JUMPDEST CALLVALUE DUP1 ISZERO PUSH2 0x657 JUMPI PUSH1 0x0 DUP1 REVERT JUMPDEST POP PUSH2 0x28C PUSH2 0x666 CALLDATASIZE PUSH1 0x4 PUSH2 0x2D7B JUMP JUMPDEST PUSH1 0x0 SWAP1 DUP2 MSTORE PUSH1 0x3 PUSH1 0x20 MSTORE PUSH1 0x40 SWAP1 KECCAK256 PUSH1 0x1 ADD SLOAD PUSH1 0x1 PUSH1 0x1 PUSH1 0x40 SHL SUB AND SWAP1 JUMP JUMPDEST PUSH2 0x23B PUSH2 0x692 CALLDATASIZE PUSH1 0x4 PUSH2 0x3371 JUMP JUMPDEST PUSH2 0x1584 JUMP JUMPDEST CALLVALUE DUP1 ISZERO PUSH2 0x6A3 JUMPI PUSH1 0x0 DUP1 REVERT JUMPDEST POP PUSH2 0x28C PUSH2 0x6B2 CALLDATASIZE PUSH1 0x4 PUSH2 0x2F78 JUMP JUMPDEST PUSH2 0x164B JUMP JUMPDEST CALLVALUE DUP1 ISZERO PUSH2 0x6C3 JUMPI PUSH1 0x0 DUP1 REVERT JUMPDEST POP PUSH2 0x28C PUSH2 0x6D2 CALLDATASIZE PUSH1 0x4 PUSH2 0x2F78 JUMP JUMPDEST PUSH2 0x1685 JUMP JUMPDEST CALLVALUE DUP1 ISZERO PUSH2 0x6E3 JUMPI PUSH1 0x0 DUP1 REVERT JUMPDEST POP PUSH1 0x40 DUP1 MLOAD DUP1 DUP3 ADD SWAP1 SWAP2 MSTORE PUSH1 0x20 DUP1 DUP3 MSTORE PUSH32 0x737570706F72743D627261766F2671756F72756D3D666F722C6162737461696E SWAP1 DUP3 ADD MSTORE PUSH2 0x2EF JUMP JUMPDEST CALLVALUE DUP1 ISZERO PUSH2 0x729 JUMPI PUSH1 0x0 DUP1 REVERT JUMPDEST POP PUSH2 0x28C PUSH32 0x150214D74D59B7D1E90C73FC22EF3D991DD0A76B046543D4D80AB92D2A50328F DUP2 JUMP JUMPDEST CALLVALUE DUP1 ISZERO PUSH2 0x75D JUMPI PUSH1 0x0 DUP1 REVERT JUMPDEST POP PUSH2 0x23B PUSH2 0x76C CALLDATASIZE PUSH1 0x4 PUSH2 0x2D7B JUMP JUMPDEST PUSH2 0x169C JUMP JUMPDEST CALLVALUE DUP1 ISZERO PUSH2 0x77D JUMPI PUSH1 0x0 DUP1 REVERT JUMPDEST POP PUSH2 0x28C PUSH2 0x78C CALLDATASIZE PUSH1 0x4 PUSH2 0x33B2 JUMP JUMPDEST PUSH2 0x16DB JUMP JUMPDEST CALLVALUE DUP1 ISZERO PUSH2 0x79D JUMPI PUSH1 0x0 DUP1 REVERT JUMPDEST POP PUSH2 0x23B PUSH2 0x7AC CALLDATASIZE PUSH1 0x4 PUSH2 0x2D7B JUMP JUMPDEST PUSH2 0x16FC JUMP JUMPDEST CALLVALUE DUP1 ISZERO PUSH2 0x7BD JUMPI PUSH1 0x0 DUP1 REVERT JUMPDEST POP PUSH2 0x28C PUSH2 0x7CC CALLDATASIZE PUSH1 0x4 PUSH2 0x2D7B JUMP JUMPDEST PUSH2 0x173B JUMP JUMPDEST CALLVALUE DUP1 ISZERO PUSH2 0x7DD JUMPI PUSH1 0x0 DUP1 REVERT JUMPDEST POP PUSH2 0x805 PUSH32 0x0 DUP2 JUMP JUMPDEST PUSH1 0x40 MLOAD PUSH1 0x1 PUSH1 0x1 PUSH1 0xA0 SHL SUB SWAP1 SWAP2 AND DUP2 MSTORE PUSH1 0x20 ADD PUSH2 0x26E JUMP JUMPDEST PUSH1 0x0 PUSH1 0x1 PUSH1 0x1 PUSH1 0xE0 SHL SUB NOT DUP3 AND PUSH4 0x5E326C8B PUSH1 0xE1 SHL EQ DUP1 PUSH2 0x84E JUMPI POP PUSH1 0x1 PUSH1 0x1 PUSH1 0xE0 SHL SUB NOT DUP3 AND PUSH4 0x79DD796F PUSH1 0xE0 SHL EQ JUMPDEST DUP1 PUSH2 0x869 JUMPI POP PUSH4 0x1FFC9A7 PUSH1 0xE0 SHL PUSH1 0x1 PUSH1 0x1 PUSH1 0xE0 SHL SUB NOT DUP4 AND EQ JUMPDEST SWAP3 SWAP2 POP POP JUMP JUMPDEST PUSH1 0x0 PUSH2 0x87A PUSH1 0x7 SLOAD SWAP1 JUMP JUMPDEST SWAP1 POP SWAP1 JUMP JUMPDEST PUSH1 0x0 DUP1 PUSH2 0x923 PUSH2 0x91B PUSH32 0x899F067F60F2C931E7C0101A76DEED5359D3888D391B6F78FB75402BB24D0EFF DUP13 DUP13 DUP13 DUP13 PUSH1 0x40 MLOAD PUSH2 0x8BB SWAP3 SWAP2 SWAP1 PUSH2 0x33DC JUMP JUMPDEST PUSH1 0x40 MLOAD DUP1 SWAP2 SUB SWAP1 KECCAK256 DUP12 DUP1 MLOAD SWAP1 PUSH1 0x20 ADD KECCAK256 PUSH1 0x40 MLOAD PUSH1 0x20 ADD PUSH2 0x900 SWAP6 SWAP5 SWAP4 SWAP3 SWAP2 SWAP1 SWAP5 DUP6 MSTORE PUSH1 0x20 DUP6 ADD SWAP4 SWAP1 SWAP4 MSTORE PUSH1 0xFF SWAP2 SWAP1 SWAP2 AND PUSH1 0x40 DUP5 ADD MSTORE PUSH1 0x60 DUP4 ADD MSTORE PUSH1 0x80 DUP3 ADD MSTORE PUSH1 0xA0 ADD SWAP1 JUMP JUMPDEST PUSH1 0x40 MLOAD PUSH1 0x20 DUP2 DUP4 SUB SUB DUP2 MSTORE SWAP1 PUSH1 0x40 MSTORE DUP1 MLOAD SWAP1 PUSH1 0x20 ADD KECCAK256 PUSH2 0x18C9 JUMP JUMPDEST DUP7 DUP7 DUP7 PUSH2 0x18F6 JUMP JUMPDEST SWAP1 POP PUSH2 0x969 DUP11 DUP3 DUP12 DUP12 DUP12 DUP1 DUP1 PUSH1 0x1F ADD PUSH1 0x20 DUP1 SWAP2 DIV MUL PUSH1 0x20 ADD PUSH1 0x40 MLOAD SWAP1 DUP2 ADD PUSH1 0x40 MSTORE DUP1 SWAP4 SWAP3 SWAP2 SWAP1 DUP2 DUP2 MSTORE PUSH1 0x20 ADD DUP4 DUP4 DUP1 DUP3 DUP5 CALLDATACOPY PUSH1 0x0 SWAP3 ADD SWAP2 SWAP1 SWAP2 MSTORE POP DUP14 SWAP3 POP PUSH2 0x1914 SWAP2 POP POP JUMP JUMPDEST SWAP11 SWAP10 POP POP POP POP POP POP POP POP POP POP JUMP JUMPDEST CALLER ADDRESS EQ PUSH2 0x99F JUMPI PUSH1 0x40 MLOAD PUSH3 0x461BCD PUSH1 0xE5 SHL DUP2 MSTORE PUSH1 0x4 ADD PUSH2 0x996 SWAP1 PUSH2 0x33EC JUMP JUMPDEST PUSH1 0x40 MLOAD DUP1 SWAP2 SUB SWAP1 REVERT JUMPDEST PUSH2 0x9B6 JUMP JUMPDEST DUP1 PUSH2 0x9AF PUSH1 0x4 PUSH2 0x1A69 JUMP JUMPDEST SUB PUSH2 0x9A4 JUMPI POP JUMPDEST PUSH2 0x9BF DUP2 PUSH2 0x1AE8 JUMP JUMPDEST POP JUMP JUMPDEST PUSH1 0x60 PUSH1 0x2 DUP1 SLOAD PUSH2 0x9D1 SWAP1 PUSH2 0x3423 JUMP JUMPDEST DUP1 PUSH1 0x1F ADD PUSH1 0x20 DUP1 SWAP2 DIV MUL PUSH1 0x20 ADD PUSH1 0x40 MLOAD SWAP1 DUP2 ADD PUSH1 0x40 MSTORE DUP1 SWAP3 SWAP2 SWAP1 DUP2 DUP2 MSTORE PUSH1 0x20 ADD DUP3 DUP1 SLOAD PUSH2 0x9FD SWAP1 PUSH2 0x3423 JUMP JUMPDEST DUP1 ISZERO PUSH2 0xA4A JUMPI DUP1 PUSH1 0x1F LT PUSH2 0xA1F JUMPI PUSH2 0x100 DUP1 DUP4 SLOAD DIV MUL DUP4 MSTORE SWAP2 PUSH1 0x20 ADD SWAP2 PUSH2 0xA4A JUMP JUMPDEST DUP3 ADD SWAP2 SWAP1 PUSH1 0x0 MSTORE PUSH1 0x20 PUSH1 0x0 KECCAK256 SWAP1 JUMPDEST DUP2 SLOAD DUP2 MSTORE SWAP1 PUSH1 0x1 ADD SWAP1 PUSH1 0x20 ADD DUP1 DUP4 GT PUSH2 0xA2D JUMPI DUP3 SWAP1 SUB PUSH1 0x1F AND DUP3 ADD SWAP2 JUMPDEST POP POP POP POP POP SWAP1 POP SWAP1 JUMP JUMPDEST PUSH1 0x0 DUP1 PUSH2 0xA63 DUP7 DUP7 DUP7 DUP7 PUSH2 0x164B JUMP JUMPDEST SWAP1 POP PUSH1 0x0 PUSH2 0xA70 DUP3 PUSH2 0xC01 JUMP JUMPDEST SWAP1 POP PUSH1 0x4 DUP2 PUSH1 0x7 DUP2 GT ISZERO PUSH2 0xA86 JUMPI PUSH2 0xA86 PUSH2 0x3055 JUMP JUMPDEST EQ DUP1 PUSH2 0xAA3 JUMPI POP PUSH1 0x5 DUP2 PUSH1 0x7 DUP2 GT ISZERO PUSH2 0xAA1 JUMPI PUSH2 0xAA1 PUSH2 0x3055 JUMP JUMPDEST EQ JUMPDEST PUSH2 0xAF9 JUMPI PUSH1 0x40 MLOAD PUSH3 0x461BCD PUSH1 0xE5 SHL DUP2 MSTORE PUSH1 0x20 PUSH1 0x4 DUP3 ADD MSTORE PUSH1 0x21 PUSH1 0x24 DUP3 ADD MSTORE PUSH32 0x476F7665726E6F723A2070726F706F73616C206E6F7420737563636573736675 PUSH1 0x44 DUP3 ADD MSTORE PUSH1 0x1B PUSH1 0xFA SHL PUSH1 0x64 DUP3 ADD MSTORE PUSH1 0x84 ADD PUSH2 0x996 JUMP JUMPDEST PUSH1 0x0 DUP3 DUP2 MSTORE PUSH1 0x3 PUSH1 0x20 MSTORE PUSH1 0x40 SWAP1 DUP2 SWAP1 KECCAK256 PUSH1 0x2 ADD DUP1 SLOAD PUSH1 0xFF NOT AND PUSH1 0x1 OR SWAP1 SSTORE MLOAD PUSH32 0x712AE1383F79AC853F8D882153778E0260EF8F03B504E2866E0593E04D2B291F SWAP1 PUSH2 0xB47 SWAP1 DUP5 DUP2 MSTORE PUSH1 0x20 ADD SWAP1 JUMP JUMPDEST PUSH1 0x40 MLOAD DUP1 SWAP2 SUB SWAP1 LOG1 PUSH2 0xB5C DUP3 DUP9 DUP9 DUP9 DUP9 PUSH2 0x1C34 JUMP JUMPDEST PUSH2 0xB69 DUP3 DUP9 DUP9 DUP9 DUP9 PUSH2 0x1CC1 JUMP JUMPDEST PUSH2 0xB76 DUP3 DUP9 DUP9 DUP9 DUP9 PUSH2 0x1C34 JUMP JUMPDEST POP SWAP6 SWAP5 POP POP POP POP POP JUMP JUMPDEST PUSH1 0x0 PUSH2 0x87A PUSH1 0x6 SLOAD SWAP1 JUMP JUMPDEST PUSH1 0x40 DUP1 MLOAD PUSH32 0x150214D74D59B7D1E90C73FC22EF3D991DD0A76B046543D4D80AB92D2A50328F PUSH1 0x20 DUP3 ADD MSTORE SWAP1 DUP2 ADD DUP7 SWAP1 MSTORE PUSH1 0xFF DUP6 AND PUSH1 0x60 DUP3 ADD MSTORE PUSH1 0x0 SWAP1 DUP2 SWAP1 PUSH2 0xBD9 SWAP1 PUSH2 0x91B SWAP1 PUSH1 0x80 ADD PUSH2 0x900 JUMP JUMPDEST SWAP1 POP PUSH2 0xBF6 DUP8 DUP3 DUP9 PUSH1 0x40 MLOAD DUP1 PUSH1 0x20 ADD PUSH1 0x40 MSTORE DUP1 PUSH1 0x0 DUP2 MSTORE POP PUSH2 0x1DB7 JUMP JUMPDEST SWAP8 SWAP7 POP POP POP POP POP POP POP JUMP JUMPDEST PUSH1 0x0 DUP2 DUP2 MSTORE PUSH1 0x3 PUSH1 0x20 MSTORE PUSH1 0x40 DUP2 KECCAK256 PUSH1 0x2 DUP2 ADD SLOAD PUSH1 0xFF AND ISZERO PUSH2 0xC25 JUMPI POP PUSH1 0x7 SWAP3 SWAP2 POP POP JUMP JUMPDEST PUSH1 0x2 DUP2 ADD SLOAD PUSH2 0x100 SWAP1 DIV PUSH1 0xFF AND ISZERO PUSH2 0xC40 JUMPI POP PUSH1 0x2 SWAP3 SWAP2 POP POP JUMP JUMPDEST PUSH1 0x0 DUP4 DUP2 MSTORE PUSH1 0x3 PUSH1 0x20 MSTORE PUSH1 0x40 DUP2 KECCAK256 SLOAD PUSH1 0x1 PUSH1 0x1 PUSH1 0x40 SHL SUB AND SWAP1 DUP2 SWAP1 SUB PUSH2 0xCA8 JUMPI PUSH1 0x40 MLOAD PUSH3 0x461BCD PUSH1 0xE5 SHL DUP2 MSTORE PUSH1 0x20 PUSH1 0x4 DUP3 ADD MSTORE PUSH1 0x1D PUSH1 0x24 DUP3 ADD MSTORE PUSH32 0x476F7665726E6F723A20756E6B6E6F776E2070726F706F73616C206964000000 PUSH1 0x44 DUP3 ADD MSTORE PUSH1 0x64 ADD PUSH2 0x996 JUMP JUMPDEST PUSH1 0x0 PUSH2 0xCB2 PUSH2 0x14AF JUMP JUMPDEST PUSH6 0xFFFFFFFFFFFF AND SWAP1 POP DUP1 DUP3 LT PUSH2 0xCCE JUMPI POP PUSH1 0x0 SWAP5 SWAP4 POP POP POP POP JUMP JUMPDEST PUSH1 0x0 DUP6 DUP2 MSTORE PUSH1 0x3 PUSH1 0x20 MSTORE PUSH1 0x40 SWAP1 KECCAK256 PUSH1 0x1 ADD SLOAD PUSH1 0x1 PUSH1 0x1 PUSH1 0x40 SHL SUB AND DUP2 DUP2 LT PUSH2 0xCFC JUMPI POP PUSH1 0x1 SWAP6 SWAP5 POP POP POP POP POP JUMP JUMPDEST PUSH2 0xD05 DUP7 PUSH2 0x1DDA JUMP JUMPDEST DUP1 ISZERO PUSH2 0xD24 JUMPI POP PUSH1 0x0 DUP7 DUP2 MSTORE PUSH1 0x9 PUSH1 0x20 MSTORE PUSH1 0x40 SWAP1 KECCAK256 DUP1 SLOAD PUSH1 0x1 SWAP1 SWAP2 ADD SLOAD GT JUMPDEST ISZERO PUSH2 0xD35 JUMPI POP PUSH1 0x4 SWAP6 SWAP5 POP POP POP POP POP JUMP JUMPDEST POP PUSH1 0x3 SWAP6 SWAP5 POP POP POP POP POP JUMP JUMPDEST PUSH1 0x0 DUP1 PUSH2 0xD50 DUP7 DUP7 DUP7 DUP7 PUSH2 0x164B JUMP JUMPDEST SWAP1 POP PUSH1 0x0 PUSH2 0xD5D DUP3 PUSH2 0xC01 JUMP JUMPDEST PUSH1 0x7 DUP2 GT ISZERO PUSH2 0xD6E JUMPI PUSH2 0xD6E PUSH2 0x3055 JUMP JUMPDEST EQ PUSH2 0xDBB JUMPI PUSH1 0x40 MLOAD PUSH3 0x461BCD PUSH1 0xE5 SHL DUP2 MSTORE PUSH1 0x20 PUSH1 0x4 DUP3 ADD MSTORE PUSH1 0x1C PUSH1 0x24 DUP3 ADD MSTORE PUSH32 0x476F7665726E6F723A20746F6F206C61746520746F2063616E63656C00000000 PUSH1 0x44 DUP3 ADD MSTORE PUSH1 0x64 ADD PUSH2 0x996 JUMP JUMPDEST PUSH1 0x0 DUP2 DUP2 MSTORE PUSH1 0x3 PUSH1 0x20 MSTORE PUSH1 0x40 SWAP1 KECCAK256 SLOAD PUSH1 0x1 PUSH1 0x40 SHL SWAP1 DIV PUSH1 0x1 PUSH1 0x1 PUSH1 0xA0 SHL SUB AND CALLER PUSH1 0x1 PUSH1 0x1 PUSH1 0xA0 SHL SUB AND EQ PUSH2 0xE3C JUMPI PUSH1 0x40 MLOAD PUSH3 0x461BCD PUSH1 0xE5 SHL DUP2 MSTORE PUSH1 0x20 PUSH1 0x4 DUP3 ADD MSTORE PUSH1 0x22 PUSH1 0x24 DUP3 ADD MSTORE PUSH32 0x476F7665726E6F723A206F6E6C792070726F706F7365722063616E2063616E63 PUSH1 0x44 DUP3 ADD MSTORE PUSH2 0x195B PUSH1 0xF2 SHL PUSH1 0x64 DUP3 ADD MSTORE PUSH1 0x84 ADD PUSH2 0x996 JUMP JUMPDEST PUSH2 0xE48 DUP7 DUP7 DUP7 DUP7 PUSH2 0x1E26 JUMP JUMPDEST SWAP7 SWAP6 POP POP POP POP POP POP JUMP JUMPDEST PUSH1 0x60 PUSH32 0x0 PUSH1 0x1 PUSH1 0x1 PUSH1 0xA0 SHL SUB AND PUSH4 0x4BF5D7E9 PUSH1 0x40 MLOAD DUP2 PUSH4 0xFFFFFFFF AND PUSH1 0xE0 SHL DUP2 MSTORE PUSH1 0x4 ADD PUSH1 0x0 PUSH1 0x40 MLOAD DUP1 DUP4 SUB DUP2 DUP7 GAS STATICCALL SWAP3 POP POP POP DUP1 ISZERO PUSH2 0xED3 JUMPI POP PUSH1 0x40 MLOAD RETURNDATASIZE PUSH1 0x0 DUP3 RETURNDATACOPY PUSH1 0x1F RETURNDATASIZE SWAP1 DUP2 ADD PUSH1 0x1F NOT AND DUP3 ADD PUSH1 0x40 MSTORE PUSH2 0xED0 SWAP2 SWAP1 DUP2 ADD SWAP1 PUSH2 0x345D JUMP JUMPDEST PUSH1 0x1 JUMPDEST PUSH2 0xF0F JUMPI POP PUSH1 0x40 DUP1 MLOAD DUP1 DUP3 ADD SWAP1 SWAP2 MSTORE PUSH1 0x1D DUP2 MSTORE PUSH32 0x6D6F64653D626C6F636B6E756D6265722666726F6D3D64656661756C74000000 PUSH1 0x20 DUP3 ADD MSTORE SWAP1 JUMP JUMPDEST SWAP2 SWAP1 POP JUMP JUMPDEST PUSH1 0x0 DUP1 CALLER SWAP1 POP PUSH2 0xF35 DUP5 DUP3 DUP6 PUSH1 0x40 MLOAD DUP1 PUSH1 0x20 ADD PUSH1 0x40 MSTORE DUP1 PUSH1 0x0 DUP2 MSTORE POP PUSH2 0x1DB7 JUMP JUMPDEST SWAP5 SWAP4 POP POP POP POP JUMP JUMPDEST PUSH1 0x0 DUP1 CALLER SWAP1 POP PUSH2 0xBF6 DUP8 DUP3 DUP9 DUP9 DUP9 DUP1 DUP1 PUSH1 0x1F ADD PUSH1 0x20 DUP1 SWAP2 DIV MUL PUSH1 0x20 ADD PUSH1 0x40 MLOAD SWAP1 DUP2 ADD PUSH1 0x40 MSTORE DUP1 SWAP4 SWAP3 SWAP2 SWAP1 DUP2 DUP2 MSTORE PUSH1 0x20 ADD DUP4 DUP4 DUP1 DUP3 DUP5 CALLDATACOPY PUSH1 0x0 SWAP3 ADD SWAP2 SWAP1 SWAP2 MSTORE POP DUP11 SWAP3 POP PUSH2 0x1914 SWAP2 POP POP JUMP JUMPDEST PUSH1 0xB SLOAD PUSH1 0x0 SWAP1 DUP1 DUP3 SUB PUSH2 0xF9E JUMPI POP POP PUSH1 0xA SLOAD SWAP2 SWAP1 POP JUMP JUMPDEST PUSH1 0x0 PUSH1 0xB PUSH2 0xFAD PUSH1 0x1 DUP5 PUSH2 0x34E0 JUMP JUMPDEST DUP2 SLOAD DUP2 LT PUSH2 0xFBD JUMPI PUSH2 0xFBD PUSH2 0x34F3 JUMP JUMPDEST PUSH1 0x0 SWAP2 DUP3 MSTORE PUSH1 0x20 SWAP2 DUP3 SWAP1 KECCAK256 PUSH1 0x40 DUP1 MLOAD DUP1 DUP3 ADD SWAP1 SWAP2 MSTORE SWAP2 ADD SLOAD PUSH4 0xFFFFFFFF DUP2 AND DUP1 DUP4 MSTORE PUSH1 0x1 PUSH1 0x20 SHL SWAP1 SWAP2 DIV PUSH1 0x1 PUSH1 0x1 PUSH1 0xE0 SHL SUB AND SWAP3 DUP3 ADD SWAP3 SWAP1 SWAP3 MSTORE SWAP2 POP DUP5 LT PUSH2 0x1013 JUMPI PUSH1 0x20 ADD MLOAD PUSH1 0x1 PUSH1 0x1 PUSH1 0xE0 SHL SUB AND SWAP4 SWAP3 POP POP POP JUMP JUMPDEST PUSH2 0xF35 PUSH1 0xB DUP6 PUSH2 0x1F44 JUMP JUMPDEST CALLER ADDRESS EQ PUSH2 0x103D JUMPI PUSH1 0x40 MLOAD PUSH3 0x461BCD PUSH1 0xE5 SHL DUP2 MSTORE PUSH1 0x4 ADD PUSH2 0x996 SWAP1 PUSH2 0x33EC JUMP JUMPDEST PUSH2 0x1054 JUMP JUMPDEST DUP1 PUSH2 0x104D PUSH1 0x4 PUSH2 0x1A69 JUMP JUMPDEST SUB PUSH2 0x1042 JUMPI POP JUMPDEST PUSH2 0x9BF DUP2 PUSH2 0x1FF6 JUMP JUMPDEST PUSH1 0x0 DUP1 CALLER SWAP1 POP PUSH2 0xE48 DUP7 DUP3 DUP8 DUP8 DUP8 DUP1 DUP1 PUSH1 0x1F ADD PUSH1 0x20 DUP1 SWAP2 DIV MUL PUSH1 0x20 ADD PUSH1 0x40 MLOAD SWAP1 DUP2 ADD PUSH1 0x40 MSTORE DUP1 SWAP4 SWAP3 SWAP2 SWAP1 DUP2 DUP2 MSTORE PUSH1 0x20 ADD DUP4 DUP4 DUP1 DUP3 DUP5 CALLDATACOPY PUSH1 0x0 SWAP3 ADD SWAP2 SWAP1 SWAP2 MSTORE POP PUSH2 0x1DB7 SWAP3 POP POP POP JUMP JUMPDEST PUSH1 0x0 CALLER DUP2 PUSH2 0x10B1 PUSH2 0x14AF JUMP JUMPDEST PUSH6 0xFFFFFFFFFFFF AND SWAP1 POP PUSH2 0x10C3 PUSH2 0x1579 JUMP JUMPDEST PUSH2 0x10D2 DUP4 PUSH2 0x78C PUSH1 0x1 DUP6 PUSH2 0x34E0 JUMP JUMPDEST LT ISZERO PUSH2 0x113A JUMPI PUSH1 0x40 MLOAD PUSH3 0x461BCD PUSH1 0xE5 SHL DUP2 MSTORE PUSH1 0x20 PUSH1 0x4 DUP3 ADD MSTORE PUSH1 0x31 PUSH1 0x24 DUP3 ADD MSTORE PUSH32 0x476F7665726E6F723A2070726F706F73657220766F7465732062656C6F772070 PUSH1 0x44 DUP3 ADD MSTORE PUSH17 0x1C9BDC1BDCD85B081D1A1C995CDA1BDB19 PUSH1 0x7A SHL PUSH1 0x64 DUP3 ADD MSTORE PUSH1 0x84 ADD PUSH2 0x996 JUMP JUMPDEST PUSH1 0x0 PUSH2 0x114F DUP9 DUP9 DUP9 DUP9 DUP1 MLOAD SWAP1 PUSH1 0x20 ADD KECCAK256 PUSH2 0x164B JUMP JUMPDEST SWAP1 POP DUP7 MLOAD DUP9 MLOAD EQ PUSH2 0x1172 JUMPI PUSH1 0x40 MLOAD PUSH3 0x461BCD PUSH1 0xE5 SHL DUP2 MSTORE PUSH1 0x4 ADD PUSH2 0x996 SWAP1 PUSH2 0x3509 JUMP JUMPDEST DUP6 MLOAD DUP9 MLOAD EQ PUSH2 0x1193 JUMPI PUSH1 0x40 MLOAD PUSH3 0x461BCD PUSH1 0xE5 SHL DUP2 MSTORE PUSH1 0x4 ADD PUSH2 0x996 SWAP1 PUSH2 0x3509 JUMP JUMPDEST PUSH1 0x0 DUP9 MLOAD GT PUSH2 0x11E4 JUMPI PUSH1 0x40 MLOAD PUSH3 0x461BCD PUSH1 0xE5 SHL DUP2 MSTORE PUSH1 0x20 PUSH1 0x4 DUP3 ADD MSTORE PUSH1 0x18 PUSH1 0x24 DUP3 ADD MSTORE PUSH32 0x476F7665726E6F723A20656D7074792070726F706F73616C0000000000000000 PUSH1 0x44 DUP3 ADD MSTORE PUSH1 0x64 ADD PUSH2 0x996 JUMP JUMPDEST PUSH1 0x0 DUP2 DUP2 MSTORE PUSH1 0x3 PUSH1 0x20 MSTORE PUSH1 0x40 SWAP1 KECCAK256 SLOAD PUSH1 0x1 PUSH1 0x1 PUSH1 0x40 SHL SUB AND ISZERO PUSH2 0x1253 JUMPI PUSH1 0x40 MLOAD PUSH3 0x461BCD PUSH1 0xE5 SHL DUP2 MSTORE PUSH1 0x20 PUSH1 0x4 DUP3 ADD MSTORE PUSH1 0x21 PUSH1 0x24 DUP3 ADD MSTORE PUSH32 0x476F7665726E6F723A2070726F706F73616C20616C7265616479206578697374 PUSH1 0x44 DUP3 ADD MSTORE PUSH1 0x73 PUSH1 0xF8 SHL PUSH1 0x64 DUP3 ADD MSTORE PUSH1 0x84 ADD PUSH2 0x996 JUMP JUMPDEST PUSH1 0x0 PUSH2 0x125D PUSH2 0xB80 JUMP JUMPDEST PUSH2 0x1267 SWAP1 DUP5 PUSH2 0x354A JUMP JUMPDEST SWAP1 POP PUSH1 0x0 PUSH2 0x1273 PUSH2 0x86F JUMP JUMPDEST PUSH2 0x127D SWAP1 DUP4 PUSH2 0x354A JUMP JUMPDEST SWAP1 POP PUSH1 0x40 MLOAD DUP1 PUSH1 0xE0 ADD PUSH1 0x40 MSTORE DUP1 PUSH2 0x1293 DUP5 PUSH2 0x2037 JUMP JUMPDEST PUSH1 0x1 PUSH1 0x1 PUSH1 0x40 SHL SUB AND DUP2 MSTORE PUSH1 0x1 PUSH1 0x1 PUSH1 0xA0 SHL SUB DUP8 AND PUSH1 0x20 DUP3 ADD MSTORE PUSH1 0x0 PUSH1 0x40 DUP3 ADD MSTORE PUSH1 0x60 ADD PUSH2 0x12C0 DUP4 PUSH2 0x2037 JUMP JUMPDEST PUSH1 0x1 PUSH1 0x1 PUSH1 0x40 SHL SUB SWAP1 DUP2 AND DUP3 MSTORE PUSH1 0x0 PUSH1 0x20 DUP1 DUP5 ADD DUP3 SWAP1 MSTORE PUSH1 0x40 DUP1 DUP6 ADD DUP4 SWAP1 MSTORE PUSH1 0x60 SWAP5 DUP6 ADD DUP4 SWAP1 MSTORE DUP9 DUP4 MSTORE PUSH1 0x3 DUP3 MSTORE SWAP2 DUP3 SWAP1 KECCAK256 DUP6 MLOAD DUP2 SLOAD SWAP3 DUP8 ADD MLOAD DUP8 DUP6 ADD MLOAD SWAP2 DUP7 AND PUSH1 0x1 PUSH1 0x1 PUSH1 0xE0 SHL SUB NOT SWAP1 SWAP5 AND SWAP4 SWAP1 SWAP4 OR PUSH1 0x1 PUSH1 0x40 SHL PUSH1 0x1 PUSH1 0x1 PUSH1 0xA0 SHL SUB SWAP1 SWAP5 AND DUP5 MUL OR PUSH1 0x1 PUSH1 0x1 PUSH1 0xE0 SHL SUB AND PUSH1 0x1 PUSH1 0xE0 SHL PUSH1 0xE0 SWAP3 SWAP1 SWAP3 SHR SWAP2 SWAP1 SWAP2 MUL OR DUP2 SSTORE SWAP4 DUP6 ADD MLOAD PUSH1 0x80 DUP7 ADD MLOAD SWAP1 DUP5 AND SWAP3 SHR MUL OR PUSH1 0x1 DUP4 ADD SSTORE PUSH1 0xA0 DUP4 ADD MLOAD PUSH1 0x2 SWAP1 SWAP3 ADD DUP1 SLOAD PUSH1 0xC0 SWAP1 SWAP5 ADD MLOAD PUSH2 0xFFFF NOT SWAP1 SWAP5 AND SWAP3 ISZERO ISZERO PUSH2 0xFF00 NOT AND SWAP3 SWAP1 SWAP3 OR PUSH2 0x100 SWAP4 ISZERO ISZERO SWAP4 SWAP1 SWAP4 MUL SWAP3 SWAP1 SWAP3 OR SWAP1 SSTORE DUP11 MLOAD PUSH32 0x7D84A6263AE0D98D3329BD7B46BB4E8D6F98CD35A7ADB45C274C8B7FD5EBD5E0 SWAP2 DUP6 SWAP2 DUP9 SWAP2 DUP15 SWAP2 DUP15 SWAP2 DUP2 GT ISZERO PUSH2 0x13C4 JUMPI PUSH2 0x13C4 PUSH2 0x2C0A JUMP JUMPDEST PUSH1 0x40 MLOAD SWAP1 DUP1 DUP3 MSTORE DUP1 PUSH1 0x20 MUL PUSH1 0x20 ADD DUP3 ADD PUSH1 0x40 MSTORE DUP1 ISZERO PUSH2 0x13F7 JUMPI DUP2 PUSH1 0x20 ADD JUMPDEST PUSH1 0x60 DUP2 MSTORE PUSH1 0x20 ADD SWAP1 PUSH1 0x1 SWAP1 SUB SWAP1 DUP2 PUSH2 0x13E2 JUMPI SWAP1 POP JUMPDEST POP DUP14 DUP9 DUP9 DUP16 PUSH1 0x40 MLOAD PUSH2 0x1411 SWAP10 SWAP9 SWAP8 SWAP7 SWAP6 SWAP5 SWAP4 SWAP3 SWAP2 SWAP1 PUSH2 0x35EB JUMP JUMPDEST PUSH1 0x40 MLOAD DUP1 SWAP2 SUB SWAP1 LOG1 POP SWAP1 SWAP9 SWAP8 POP POP POP POP POP POP POP POP JUMP JUMPDEST PUSH1 0x0 PUSH1 0x60 DUP1 DUP3 DUP1 DUP1 DUP4 PUSH2 0x145A PUSH32 0x0 DUP4 PUSH2 0x209F JUMP JUMPDEST PUSH2 0x1485 PUSH32 0x0 PUSH1 0x1 PUSH2 0x209F JUMP JUMPDEST PUSH1 0x40 DUP1 MLOAD PUSH1 0x0 DUP1 DUP3 MSTORE PUSH1 0x20 DUP3 ADD SWAP1 SWAP3 MSTORE PUSH1 0xF PUSH1 0xF8 SHL SWAP12 SWAP4 SWAP11 POP SWAP2 SWAP9 POP CHAINID SWAP8 POP ADDRESS SWAP7 POP SWAP5 POP SWAP3 POP SWAP1 POP JUMP JUMPDEST PUSH1 0x0 PUSH32 0x0 PUSH1 0x1 PUSH1 0x1 PUSH1 0xA0 SHL SUB AND PUSH4 0x91DDADF4 PUSH1 0x40 MLOAD DUP2 PUSH4 0xFFFFFFFF AND PUSH1 0xE0 SHL DUP2 MSTORE PUSH1 0x4 ADD PUSH1 0x20 PUSH1 0x40 MLOAD DUP1 DUP4 SUB DUP2 DUP7 GAS STATICCALL SWAP3 POP POP POP DUP1 ISZERO PUSH2 0x152B JUMPI POP PUSH1 0x40 DUP1 MLOAD PUSH1 0x1F RETURNDATASIZE SWAP1 DUP2 ADD PUSH1 0x1F NOT AND DUP3 ADD SWAP1 SWAP3 MSTORE PUSH2 0x1528 SWAP2 DUP2 ADD SWAP1 PUSH2 0x36C2 JUMP JUMPDEST PUSH1 0x1 JUMPDEST PUSH2 0xF0F JUMPI PUSH2 0x87A NUMBER PUSH2 0x2144 JUMP JUMPDEST PUSH1 0x0 PUSH2 0x1545 DUP5 DUP5 DUP5 PUSH2 0x21AB JUMP JUMPDEST SWAP1 POP JUMPDEST SWAP4 SWAP3 POP POP POP JUMP JUMPDEST PUSH1 0xB SLOAD PUSH1 0x0 SWAP1 ISZERO PUSH2 0x1572 JUMPI PUSH2 0x1564 PUSH1 0xB PUSH2 0x181D JUMP JUMPDEST PUSH1 0x1 PUSH1 0x1 PUSH1 0xE0 SHL SUB AND SWAP1 POP SWAP1 JUMP JUMPDEST POP PUSH1 0xA SLOAD SWAP1 JUMP JUMPDEST PUSH1 0x0 PUSH2 0x87A PUSH1 0x8 SLOAD SWAP1 JUMP JUMPDEST CALLER ADDRESS EQ PUSH2 0x15A3 JUMPI PUSH1 0x40 MLOAD PUSH3 0x461BCD PUSH1 0xE5 SHL DUP2 MSTORE PUSH1 0x4 ADD PUSH2 0x996 SWAP1 PUSH2 0x33EC JUMP JUMPDEST PUSH2 0x15BA JUMP JUMPDEST DUP1 PUSH2 0x15B3 PUSH1 0x4 PUSH2 0x1A69 JUMP JUMPDEST SUB PUSH2 0x15A8 JUMPI POP JUMPDEST PUSH1 0x0 DUP1 DUP6 PUSH1 0x1 PUSH1 0x1 PUSH1 0xA0 SHL SUB AND DUP6 DUP6 DUP6 PUSH1 0x40 MLOAD PUSH2 0x15D8 SWAP3 SWAP2 SWAP1 PUSH2 0x33DC JUMP JUMPDEST PUSH1 0x0 PUSH1 0x40 MLOAD DUP1 DUP4 SUB DUP2 DUP6 DUP8 GAS CALL SWAP3 POP POP POP RETURNDATASIZE DUP1 PUSH1 0x0 DUP2 EQ PUSH2 0x1615 JUMPI PUSH1 0x40 MLOAD SWAP2 POP PUSH1 0x1F NOT PUSH1 0x3F RETURNDATASIZE ADD AND DUP3 ADD PUSH1 0x40 MSTORE RETURNDATASIZE DUP3 MSTORE RETURNDATASIZE PUSH1 0x0 PUSH1 0x20 DUP5 ADD RETURNDATACOPY PUSH2 0x161A JUMP JUMPDEST PUSH1 0x60 SWAP2 POP JUMPDEST POP SWAP2 POP SWAP2 POP PUSH2 0x1642 DUP3 DUP3 PUSH1 0x40 MLOAD DUP1 PUSH1 0x60 ADD PUSH1 0x40 MSTORE DUP1 PUSH1 0x28 DUP2 MSTORE PUSH1 0x20 ADD PUSH2 0x3959 PUSH1 0x28 SWAP2 CODECOPY PUSH2 0x2241 JUMP JUMPDEST POP POP POP POP POP POP POP JUMP JUMPDEST PUSH1 0x0 DUP5 DUP5 DUP5 DUP5 PUSH1 0x40 MLOAD PUSH1 0x20 ADD PUSH2 0x1664 SWAP5 SWAP4 SWAP3 SWAP2 SWAP1 PUSH2 0x36EA JUMP JUMPDEST PUSH1 0x40 DUP1 MLOAD PUSH1 0x1F NOT DUP2 DUP5 SUB ADD DUP2 MSTORE SWAP2 SWAP1 MSTORE DUP1 MLOAD PUSH1 0x20 SWAP1 SWAP2 ADD KECCAK256 SWAP6 SWAP5 POP POP POP POP POP JUMP JUMPDEST PUSH1 0x0 PUSH2 0x1693 DUP6 DUP6 DUP6 DUP6 PUSH2 0x1E26 JUMP JUMPDEST SWAP6 SWAP5 POP POP POP POP POP JUMP JUMPDEST CALLER ADDRESS EQ PUSH2 0x16BB JUMPI PUSH1 0x40 MLOAD PUSH3 0x461BCD PUSH1 0xE5 SHL DUP2 MSTORE PUSH1 0x4 ADD PUSH2 0x996 SWAP1 PUSH2 0x33EC JUMP JUMPDEST PUSH2 0x16D2 JUMP JUMPDEST DUP1 PUSH2 0x16CB PUSH1 0x4 PUSH2 0x1A69 JUMP JUMPDEST SUB PUSH2 0x16C0 JUMPI POP JUMPDEST PUSH2 0x9BF DUP2 PUSH2 0x225A JUMP JUMPDEST PUSH1 0x0 PUSH2 0x1548 DUP4 DUP4 PUSH2 0x16F7 PUSH1 0x40 DUP1 MLOAD PUSH1 0x20 DUP2 ADD SWAP1 SWAP2 MSTORE PUSH1 0x0 DUP2 MSTORE SWAP1 JUMP JUMPDEST PUSH2 0x21AB JUMP JUMPDEST CALLER ADDRESS EQ PUSH2 0x171B JUMPI PUSH1 0x40 MLOAD PUSH3 0x461BCD PUSH1 0xE5 SHL DUP2 MSTORE PUSH1 0x4 ADD PUSH2 0x996 SWAP1 PUSH2 0x33EC JUMP JUMPDEST PUSH2 0x1732 JUMP JUMPDEST DUP1 PUSH2 0x172B PUSH1 0x4 PUSH2 0x1A69 JUMP JUMPDEST SUB PUSH2 0x1720 JUMPI POP JUMPDEST PUSH2 0x9BF DUP2 PUSH2 0x22FB JUMP JUMPDEST PUSH1 0x0 PUSH2 0x869 DUP3 PUSH2 0x233C JUMP JUMPDEST PUSH1 0x0 PUSH1 0x20 DUP4 MLOAD LT ISZERO PUSH2 0x1762 JUMPI PUSH2 0x175B DUP4 PUSH2 0x23E6 JUMP JUMPDEST SWAP1 POP PUSH2 0x869 JUMP JUMPDEST DUP2 PUSH2 0x176D DUP5 DUP3 PUSH2 0x3780 JUMP JUMPDEST POP PUSH1 0x0 SWAP1 POP PUSH2 0x869 JUMP JUMPDEST SWAP1 JUMP JUMPDEST PUSH1 0x0 PUSH1 0x1 PUSH1 0x1 PUSH1 0xE0 SHL SUB DUP3 GT ISZERO PUSH2 0x17E3 JUMPI PUSH1 0x40 MLOAD PUSH3 0x461BCD PUSH1 0xE5 SHL DUP2 MSTORE PUSH1 0x20 PUSH1 0x4 DUP3 ADD MSTORE PUSH1 0x27 PUSH1 0x24 DUP3 ADD MSTORE PUSH32 0x53616665436173743A2076616C756520646F65736E27742066697420696E2032 PUSH1 0x44 DUP3 ADD MSTORE PUSH7 0x32342062697473 PUSH1 0xC8 SHL PUSH1 0x64 DUP3 ADD MSTORE PUSH1 0x84 ADD PUSH2 0x996 JUMP JUMPDEST POP SWAP1 JUMP JUMPDEST PUSH1 0x0 DUP1 PUSH2 0x1805 DUP5 PUSH2 0x17F7 NUMBER PUSH2 0x1864 JUMP JUMPDEST PUSH2 0x1800 DUP7 PUSH2 0x177A JUMP JUMPDEST PUSH2 0x2424 JUMP JUMPDEST PUSH1 0x1 PUSH1 0x1 PUSH1 0xE0 SHL SUB SWAP2 DUP3 AND SWAP4 POP AND SWAP1 POP JUMPDEST SWAP3 POP SWAP3 SWAP1 POP JUMP JUMPDEST DUP1 SLOAD PUSH1 0x0 SWAP1 DUP1 ISZERO PUSH2 0x185B JUMPI PUSH2 0x1845 DUP4 PUSH2 0x1837 PUSH1 0x1 DUP5 PUSH2 0x34E0 JUMP JUMPDEST PUSH1 0x0 SWAP2 DUP3 MSTORE PUSH1 0x20 SWAP1 SWAP2 KECCAK256 ADD SWAP1 JUMP JUMPDEST SLOAD PUSH1 0x1 PUSH1 0x20 SHL SWAP1 DIV PUSH1 0x1 PUSH1 0x1 PUSH1 0xE0 SHL SUB AND PUSH2 0x1548 JUMP JUMPDEST PUSH1 0x0 SWAP4 SWAP3 POP POP POP JUMP JUMPDEST PUSH1 0x0 PUSH4 0xFFFFFFFF DUP3 GT ISZERO PUSH2 0x17E3 JUMPI PUSH1 0x40 MLOAD PUSH3 0x461BCD PUSH1 0xE5 SHL DUP2 MSTORE PUSH1 0x20 PUSH1 0x4 DUP3 ADD MSTORE PUSH1 0x26 PUSH1 0x24 DUP3 ADD MSTORE PUSH32 0x53616665436173743A2076616C756520646F65736E27742066697420696E2033 PUSH1 0x44 DUP3 ADD MSTORE PUSH6 0x322062697473 PUSH1 0xD0 SHL PUSH1 0x64 DUP3 ADD MSTORE PUSH1 0x84 ADD PUSH2 0x996 JUMP JUMPDEST PUSH1 0x0 PUSH2 0x869 PUSH2 0x18D6 PUSH2 0x25C7 JUMP JUMPDEST DUP4 PUSH1 0x40 MLOAD PUSH2 0x1901 PUSH1 0xF0 SHL DUP2 MSTORE PUSH1 0x2 DUP2 ADD SWAP3 SWAP1 SWAP3 MSTORE PUSH1 0x22 DUP3 ADD MSTORE PUSH1 0x42 SWAP1 KECCAK256 SWAP1 JUMP JUMPDEST PUSH1 0x0 DUP1 PUSH1 0x0 PUSH2 0x1907 DUP8 DUP8 DUP8 DUP8 PUSH2 0x26F2 JUMP JUMPDEST SWAP2 POP SWAP2 POP PUSH2 0xB76 DUP2 PUSH2 0x27B6 JUMP JUMPDEST PUSH1 0x0 DUP6 DUP2 MSTORE PUSH1 0x3 PUSH1 0x20 MSTORE PUSH1 0x40 DUP2 KECCAK256 PUSH1 0x1 PUSH2 0x192D DUP9 PUSH2 0xC01 JUMP JUMPDEST PUSH1 0x7 DUP2 GT ISZERO PUSH2 0x193E JUMPI PUSH2 0x193E PUSH2 0x3055 JUMP JUMPDEST EQ PUSH2 0x1997 JUMPI PUSH1 0x40 MLOAD PUSH3 0x461BCD PUSH1 0xE5 SHL DUP2 MSTORE PUSH1 0x20 PUSH1 0x4 DUP3 ADD MSTORE PUSH1 0x23 PUSH1 0x24 DUP3 ADD MSTORE PUSH32 0x476F7665726E6F723A20766F7465206E6F742063757272656E746C7920616374 PUSH1 0x44 DUP3 ADD MSTORE PUSH3 0x697665 PUSH1 0xE8 SHL PUSH1 0x64 DUP3 ADD MSTORE PUSH1 0x84 ADD PUSH2 0x996 JUMP JUMPDEST DUP1 SLOAD PUSH1 0x0 SWAP1 PUSH2 0x19B1 SWAP1 DUP9 SWAP1 PUSH1 0x1 PUSH1 0x1 PUSH1 0x40 SHL SUB AND DUP7 PUSH2 0x21AB JUMP JUMPDEST SWAP1 POP PUSH2 0x19C0 DUP9 DUP9 DUP9 DUP5 DUP9 PUSH2 0x2900 JUMP JUMPDEST DUP4 MLOAD PUSH1 0x0 SUB PUSH2 0x1A15 JUMPI DUP7 PUSH1 0x1 PUSH1 0x1 PUSH1 0xA0 SHL SUB AND PUSH32 0xB8E138887D0AA13BAB447E82DE9D5C1777041ECD21CA36BA824FF1E6C07DDDA4 DUP10 DUP9 DUP5 DUP10 PUSH1 0x40 MLOAD PUSH2 0x1A08 SWAP5 SWAP4 SWAP3 SWAP2 SWAP1 PUSH2 0x383F JUMP JUMPDEST PUSH1 0x40 MLOAD DUP1 SWAP2 SUB SWAP1 LOG2 PUSH2 0xBF6 JUMP JUMPDEST DUP7 PUSH1 0x1 PUSH1 0x1 PUSH1 0xA0 SHL SUB AND PUSH32 0xE2BABFBAC5889A709B63BB7F598B324E08BC5A4FB9EC647FB3CBC9EC07EB8712 DUP10 DUP9 DUP5 DUP10 DUP10 PUSH1 0x40 MLOAD PUSH2 0x1A56 SWAP6 SWAP5 SWAP4 SWAP3 SWAP2 SWAP1 PUSH2 0x3867 JUMP JUMPDEST PUSH1 0x40 MLOAD DUP1 SWAP2 SUB SWAP1 LOG2 SWAP8 SWAP7 POP POP POP POP POP POP POP JUMP JUMPDEST PUSH1 0x0 PUSH2 0x1A84 DUP3 SLOAD PUSH1 0xF DUP2 DUP2 SIGNEXTEND PUSH1 0x1 PUSH1 0x80 SHL SWAP1 SWAP3 DIV SWAP1 SIGNEXTEND SGT ISZERO SWAP1 JUMP JUMPDEST ISZERO PUSH2 0x1AA2 JUMPI PUSH1 0x40 MLOAD PUSH4 0x1ED95095 PUSH1 0xE1 SHL DUP2 MSTORE PUSH1 0x4 ADD PUSH1 0x40 MLOAD DUP1 SWAP2 SUB SWAP1 REVERT JUMPDEST POP DUP1 SLOAD PUSH1 0xF SIGNEXTEND PUSH1 0x0 DUP2 DUP2 MSTORE PUSH1 0x1 DUP1 DUP5 ADD PUSH1 0x20 MSTORE PUSH1 0x40 DUP3 KECCAK256 DUP1 SLOAD SWAP3 SWAP1 SSTORE DUP4 SLOAD PUSH16 0xFFFFFFFFFFFFFFFFFFFFFFFFFFFFFFFF NOT AND SWAP3 ADD PUSH1 0x1 PUSH1 0x1 PUSH1 0x80 SHL SUB AND SWAP2 SWAP1 SWAP2 OR SWAP1 SWAP2 SSTORE SWAP1 JUMP JUMPDEST PUSH1 0x64 DUP2 GT ISZERO PUSH2 0x1B6B JUMPI PUSH1 0x40 MLOAD PUSH3 0x461BCD PUSH1 0xE5 SHL DUP2 MSTORE PUSH1 0x20 PUSH1 0x4 DUP3 ADD MSTORE PUSH1 0x43 PUSH1 0x24 DUP3 ADD MSTORE PUSH32 0x476F7665726E6F72566F74657351756F72756D4672616374696F6E3A2071756F PUSH1 0x44 DUP3 ADD MSTORE PUSH32 0x72756D4E756D657261746F72206F7665722071756F72756D44656E6F6D696E61 PUSH1 0x64 DUP3 ADD MSTORE PUSH3 0x3A37B9 PUSH1 0xE9 SHL PUSH1 0x84 DUP3 ADD MSTORE PUSH1 0xA4 ADD PUSH2 0x996 JUMP JUMPDEST PUSH1 0x0 PUSH2 0x1B75 PUSH2 0x154F JUMP JUMPDEST SWAP1 POP DUP1 ISZERO DUP1 ISZERO SWAP1 PUSH2 0x1B86 JUMPI POP PUSH1 0xB SLOAD ISZERO JUMPDEST ISZERO PUSH2 0x1BEA JUMPI PUSH1 0x40 DUP1 MLOAD DUP1 DUP3 ADD SWAP1 SWAP2 MSTORE PUSH1 0x0 DUP2 MSTORE PUSH1 0xB SWAP1 PUSH1 0x20 DUP2 ADD PUSH2 0x1BA9 DUP5 PUSH2 0x177A JUMP JUMPDEST PUSH1 0x1 PUSH1 0x1 PUSH1 0xE0 SHL SUB SWAP1 DUP2 AND SWAP1 SWAP2 MSTORE DUP3 SLOAD PUSH1 0x1 DUP2 ADD DUP5 SSTORE PUSH1 0x0 SWAP4 DUP5 MSTORE PUSH1 0x20 SWAP4 DUP5 SWAP1 KECCAK256 DUP4 MLOAD SWAP5 SWAP1 SWAP4 ADD MLOAD SWAP1 SWAP2 AND PUSH1 0x1 PUSH1 0x20 SHL MUL PUSH4 0xFFFFFFFF SWAP1 SWAP4 AND SWAP3 SWAP1 SWAP3 OR SWAP2 ADD SSTORE JUMPDEST PUSH2 0x1BF5 PUSH1 0xB DUP4 PUSH2 0x17E7 JUMP JUMPDEST POP POP PUSH1 0x40 DUP1 MLOAD DUP3 DUP2 MSTORE PUSH1 0x20 DUP2 ADD DUP5 SWAP1 MSTORE PUSH32 0x553476BF02EF2726E8CE5CED78D63E26E602E4A2257B1F559418E24B4633997 SWAP2 ADD PUSH1 0x40 MLOAD DUP1 SWAP2 SUB SWAP1 LOG1 POP POP JUMP JUMPDEST PUSH2 0x1CBA JUMP JUMPDEST DUP5 MLOAD DUP2 LT ISZERO PUSH2 0x1CB8 JUMPI ADDRESS PUSH1 0x1 PUSH1 0x1 PUSH1 0xA0 SHL SUB AND DUP6 DUP3 DUP2 MLOAD DUP2 LT PUSH2 0x1C5E JUMPI PUSH2 0x1C5E PUSH2 0x34F3 JUMP JUMPDEST PUSH1 0x20 MUL PUSH1 0x20 ADD ADD MLOAD PUSH1 0x1 PUSH1 0x1 PUSH1 0xA0 SHL SUB AND SUB PUSH2 0x1CA8 JUMPI PUSH2 0x1CA8 DUP4 DUP3 DUP2 MLOAD DUP2 LT PUSH2 0x1C89 JUMPI PUSH2 0x1C89 PUSH2 0x34F3 JUMP JUMPDEST PUSH1 0x20 MUL PUSH1 0x20 ADD ADD MLOAD DUP1 MLOAD SWAP1 PUSH1 0x20 ADD KECCAK256 PUSH1 0x4 PUSH2 0x2A7A SWAP1 SWAP2 SWAP1 PUSH4 0xFFFFFFFF AND JUMP JUMPDEST PUSH2 0x1CB1 DUP2 PUSH2 0x38AD JUMP JUMPDEST SWAP1 POP PUSH2 0x1C39 JUMP JUMPDEST POP JUMPDEST POP POP POP POP POP JUMP JUMPDEST PUSH1 0x0 PUSH1 0x40 MLOAD DUP1 PUSH1 0x60 ADD PUSH1 0x40 MSTORE DUP1 PUSH1 0x27 DUP2 MSTORE PUSH1 0x20 ADD PUSH2 0x3981 PUSH1 0x27 SWAP2 CODECOPY SWAP1 POP PUSH1 0x0 JUMPDEST DUP6 MLOAD DUP2 LT ISZERO PUSH2 0x1642 JUMPI PUSH1 0x0 DUP1 DUP8 DUP4 DUP2 MLOAD DUP2 LT PUSH2 0x1CFF JUMPI PUSH2 0x1CFF PUSH2 0x34F3 JUMP JUMPDEST PUSH1 0x20 MUL PUSH1 0x20 ADD ADD MLOAD PUSH1 0x1 PUSH1 0x1 PUSH1 0xA0 SHL SUB AND DUP8 DUP5 DUP2 MLOAD DUP2 LT PUSH2 0x1D22 JUMPI PUSH2 0x1D22 PUSH2 0x34F3 JUMP JUMPDEST PUSH1 0x20 MUL PUSH1 0x20 ADD ADD MLOAD DUP8 DUP6 DUP2 MLOAD DUP2 LT PUSH2 0x1D3C JUMPI PUSH2 0x1D3C PUSH2 0x34F3 JUMP JUMPDEST PUSH1 0x20 MUL PUSH1 0x20 ADD ADD MLOAD PUSH1 0x40 MLOAD PUSH2 0x1D51 SWAP2 SWAP1 PUSH2 0x38C6 JUMP JUMPDEST PUSH1 0x0 PUSH1 0x40 MLOAD DUP1 DUP4 SUB DUP2 DUP6 DUP8 GAS CALL SWAP3 POP POP POP RETURNDATASIZE DUP1 PUSH1 0x0 DUP2 EQ PUSH2 0x1D8E JUMPI PUSH1 0x40 MLOAD SWAP2 POP PUSH1 0x1F NOT PUSH1 0x3F RETURNDATASIZE ADD AND DUP3 ADD PUSH1 0x40 MSTORE RETURNDATASIZE DUP3 MSTORE RETURNDATASIZE PUSH1 0x0 PUSH1 0x20 DUP5 ADD RETURNDATACOPY PUSH2 0x1D93 JUMP JUMPDEST PUSH1 0x60 SWAP2 POP JUMPDEST POP SWAP2 POP SWAP2 POP PUSH2 0x1DA3 DUP3 DUP3 DUP7 PUSH2 0x2241 JUMP JUMPDEST POP POP POP DUP1 PUSH2 0x1DB0 SWAP1 PUSH2 0x38AD JUMP JUMPDEST SWAP1 POP PUSH2 0x1CE1 JUMP JUMPDEST PUSH1 0x0 PUSH2 0x1693 DUP6 DUP6 DUP6 DUP6 PUSH2 0x1DD5 PUSH1 0x40 DUP1 MLOAD PUSH1 0x20 DUP2 ADD SWAP1 SWAP2 MSTORE PUSH1 0x0 DUP2 MSTORE SWAP1 JUMP JUMPDEST PUSH2 0x1914 JUMP JUMPDEST PUSH1 0x0 DUP2 DUP2 MSTORE PUSH1 0x9 PUSH1 0x20 MSTORE PUSH1 0x40 DUP2 KECCAK256 PUSH1 0x2 DUP2 ADD SLOAD PUSH1 0x1 DUP3 ADD SLOAD PUSH2 0x1DFC SWAP2 SWAP1 PUSH2 0x354A JUMP JUMPDEST PUSH1 0x0 DUP5 DUP2 MSTORE PUSH1 0x3 PUSH1 0x20 MSTORE PUSH1 0x40 SWAP1 KECCAK256 SLOAD PUSH2 0x1E1D SWAP1 PUSH1 0x1 PUSH1 0x1 PUSH1 0x40 SHL SUB AND PUSH2 0x173B JUMP JUMPDEST GT ISZERO SWAP4 SWAP3 POP POP POP JUMP JUMPDEST PUSH1 0x0 DUP1 PUSH2 0x1E35 DUP7 DUP7 DUP7 DUP7 PUSH2 0x164B JUMP JUMPDEST SWAP1 POP PUSH1 0x0 PUSH2 0x1E42 DUP3 PUSH2 0xC01 JUMP JUMPDEST SWAP1 POP PUSH1 0x2 DUP2 PUSH1 0x7 DUP2 GT ISZERO PUSH2 0x1E58 JUMPI PUSH2 0x1E58 PUSH2 0x3055 JUMP JUMPDEST EQ ISZERO DUP1 ISZERO PUSH2 0x1E78 JUMPI POP PUSH1 0x6 DUP2 PUSH1 0x7 DUP2 GT ISZERO PUSH2 0x1E75 JUMPI PUSH2 0x1E75 PUSH2 0x3055 JUMP JUMPDEST EQ ISZERO JUMPDEST DUP1 ISZERO PUSH2 0x1E96 JUMPI POP PUSH1 0x7 DUP2 PUSH1 0x7 DUP2 GT ISZERO PUSH2 0x1E93 JUMPI PUSH2 0x1E93 PUSH2 0x3055 JUMP JUMPDEST EQ ISZERO JUMPDEST PUSH2 0x1EE2 JUMPI PUSH1 0x40 MLOAD PUSH3 0x461BCD PUSH1 0xE5 SHL DUP2 MSTORE PUSH1 0x20 PUSH1 0x4 DUP3 ADD MSTORE PUSH1 0x1D PUSH1 0x24 DUP3 ADD MSTORE PUSH32 0x476F7665726E6F723A2070726F706F73616C206E6F7420616374697665000000 PUSH1 0x44 DUP3 ADD MSTORE PUSH1 0x64 ADD PUSH2 0x996 JUMP JUMPDEST PUSH1 0x0 DUP3 DUP2 MSTORE PUSH1 0x3 PUSH1 0x20 MSTORE PUSH1 0x40 SWAP1 DUP2 SWAP1 KECCAK256 PUSH1 0x2 ADD DUP1 SLOAD PUSH2 0xFF00 NOT AND PUSH2 0x100 OR SWAP1 SSTORE MLOAD PUSH32 0x789CF55BE980739DAD1D0699B93B58E806B51C9D96619BFA8FE0A28ABAA7B30C SWAP1 PUSH2 0x1F32 SWAP1 DUP5 DUP2 MSTORE PUSH1 0x20 ADD SWAP1 JUMP JUMPDEST PUSH1 0x40 MLOAD DUP1 SWAP2 SUB SWAP1 LOG1 POP SWAP6 SWAP5 POP POP POP POP POP JUMP JUMPDEST PUSH1 0x0 NUMBER DUP3 LT PUSH2 0x1F95 JUMPI PUSH1 0x40 MLOAD PUSH3 0x461BCD PUSH1 0xE5 SHL DUP2 MSTORE PUSH1 0x20 PUSH1 0x4 DUP3 ADD DUP2 SWAP1 MSTORE PUSH1 0x24 DUP3 ADD MSTORE PUSH32 0x436865636B706F696E74733A20626C6F636B206E6F7420796574206D696E6564 PUSH1 0x44 DUP3 ADD MSTORE PUSH1 0x64 ADD PUSH2 0x996 JUMP JUMPDEST PUSH1 0x0 PUSH2 0x1FA0 DUP4 PUSH2 0x1864 JUMP JUMPDEST DUP5 SLOAD SWAP1 SWAP2 POP PUSH1 0x0 PUSH2 0x1FB3 DUP7 DUP5 DUP4 DUP6 PUSH2 0x2AB6 JUMP JUMPDEST SWAP1 POP DUP1 ISZERO PUSH2 0x1FE0 JUMPI PUSH2 0x1FCA DUP7 PUSH2 0x1837 PUSH1 0x1 DUP5 PUSH2 0x34E0 JUMP JUMPDEST SLOAD PUSH1 0x1 PUSH1 0x20 SHL SWAP1 DIV PUSH1 0x1 PUSH1 0x1 PUSH1 0xE0 SHL SUB AND PUSH2 0x1FE3 JUMP JUMPDEST PUSH1 0x0 JUMPDEST PUSH1 0x1 PUSH1 0x1 PUSH1 0xE0 SHL SUB AND SWAP7 SWAP6 POP POP POP POP POP POP JUMP JUMPDEST PUSH1 0x6 SLOAD PUSH1 0x40 DUP1 MLOAD SWAP2 DUP3 MSTORE PUSH1 0x20 DUP3 ADD DUP4 SWAP1 MSTORE PUSH32 0xC565B045403DC03C2EEA82B81A0465EDAD9E2E7FC4D97E11421C209DA93D7A93 SWAP2 ADD PUSH1 0x40 MLOAD DUP1 SWAP2 SUB SWAP1 LOG1 PUSH1 0x6 SSTORE JUMP JUMPDEST PUSH1 0x0 PUSH1 0x1 PUSH1 0x1 PUSH1 0x40 SHL SUB DUP3 GT ISZERO PUSH2 0x17E3 JUMPI PUSH1 0x40 MLOAD PUSH3 0x461BCD PUSH1 0xE5 SHL DUP2 MSTORE PUSH1 0x20 PUSH1 0x4 DUP3 ADD MSTORE PUSH1 0x26 PUSH1 0x24 DUP3 ADD MSTORE PUSH32 0x53616665436173743A2076616C756520646F65736E27742066697420696E2036 PUSH1 0x44 DUP3 ADD MSTORE PUSH6 0x342062697473 PUSH1 0xD0 SHL PUSH1 0x64 DUP3 ADD MSTORE PUSH1 0x84 ADD PUSH2 0x996 JUMP JUMPDEST PUSH1 0x60 PUSH1 0xFF DUP4 AND ISZERO PUSH2 0x20B3 JUMPI PUSH2 0x175B DUP4 PUSH2 0x2B14 JUMP JUMPDEST DUP2 DUP1 SLOAD PUSH2 0x20BF SWAP1 PUSH2 0x3423 JUMP JUMPDEST DUP1 PUSH1 0x1F ADD PUSH1 0x20 DUP1 SWAP2 DIV MUL PUSH1 0x20 ADD PUSH1 0x40 MLOAD SWAP1 DUP2 ADD PUSH1 0x40 MSTORE DUP1 SWAP3 SWAP2 SWAP1 DUP2 DUP2 MSTORE PUSH1 0x20 ADD DUP3 DUP1 SLOAD PUSH2 0x20EB SWAP1 PUSH2 0x3423 JUMP JUMPDEST DUP1 ISZERO PUSH2 0x2138 JUMPI DUP1 PUSH1 0x1F LT PUSH2 0x210D JUMPI PUSH2 0x100 DUP1 DUP4 SLOAD DIV MUL DUP4 MSTORE SWAP2 PUSH1 0x20 ADD SWAP2 PUSH2 0x2138 JUMP JUMPDEST DUP3 ADD SWAP2 SWAP1 PUSH1 0x0 MSTORE PUSH1 0x20 PUSH1 0x0 KECCAK256 SWAP1 JUMPDEST DUP2 SLOAD DUP2 MSTORE SWAP1 PUSH1 0x1 ADD SWAP1 PUSH1 0x20 ADD DUP1 DUP4 GT PUSH2 0x211B JUMPI DUP3 SWAP1 SUB PUSH1 0x1F AND DUP3 ADD SWAP2 JUMPDEST POP POP POP POP POP SWAP1 POP PUSH2 0x869 JUMP JUMPDEST PUSH1 0x0 PUSH6 0xFFFFFFFFFFFF DUP3 GT ISZERO PUSH2 0x17E3 JUMPI PUSH1 0x40 MLOAD PUSH3 0x461BCD PUSH1 0xE5 SHL DUP2 MSTORE PUSH1 0x20 PUSH1 0x4 DUP3 ADD MSTORE PUSH1 0x26 PUSH1 0x24 DUP3 ADD MSTORE PUSH32 0x53616665436173743A2076616C756520646F65736E27742066697420696E2034 PUSH1 0x44 DUP3 ADD MSTORE PUSH6 0x382062697473 PUSH1 0xD0 SHL PUSH1 0x64 DUP3 ADD MSTORE PUSH1 0x84 ADD PUSH2 0x996 JUMP JUMPDEST PUSH1 0x40 MLOAD PUSH4 0x748D635 PUSH1 0xE3 SHL DUP2 MSTORE PUSH1 0x1 PUSH1 0x1 PUSH1 0xA0 SHL SUB DUP5 DUP2 AND PUSH1 0x4 DUP4 ADD MSTORE PUSH1 0x24 DUP3 ADD DUP5 SWAP1 MSTORE PUSH1 0x0 SWAP2 PUSH32 0x0 SWAP1 SWAP2 AND SWAP1 PUSH4 0x3A46B1A8 SWAP1 PUSH1 0x44 ADD PUSH1 0x20 PUSH1 0x40 MLOAD DUP1 DUP4 SUB DUP2 DUP7 GAS STATICCALL ISZERO DUP1 ISZERO PUSH2 0x221D JUMPI RETURNDATASIZE PUSH1 0x0 DUP1 RETURNDATACOPY RETURNDATASIZE PUSH1 0x0 REVERT JUMPDEST POP POP POP POP PUSH1 0x40 MLOAD RETURNDATASIZE PUSH1 0x1F NOT PUSH1 0x1F DUP3 ADD AND DUP3 ADD DUP1 PUSH1 0x40 MSTORE POP DUP2 ADD SWAP1 PUSH2 0x1545 SWAP2 SWAP1 PUSH2 0x38E2 JUMP JUMPDEST PUSH1 0x60 DUP4 ISZERO PUSH2 0x2250 JUMPI POP DUP2 PUSH2 0x1548 JUMP JUMPDEST PUSH2 0x1548 DUP4 DUP4 PUSH2 0x2B49 JUMP JUMPDEST PUSH1 0x0 DUP2 GT PUSH2 0x22BA JUMPI PUSH1 0x40 MLOAD PUSH3 0x461BCD PUSH1 0xE5 SHL DUP2 MSTORE PUSH1 0x20 PUSH1 0x4 DUP3 ADD MSTORE PUSH1 0x27 PUSH1 0x24 DUP3 ADD MSTORE PUSH32 0x476F7665726E6F7253657474696E67733A20766F74696E6720706572696F6420 PUSH1 0x44 DUP3 ADD MSTORE PUSH7 0x746F6F206C6F77 PUSH1 0xC8 SHL PUSH1 0x64 DUP3 ADD MSTORE PUSH1 0x84 ADD PUSH2 0x996 JUMP JUMPDEST PUSH1 0x7 SLOAD PUSH1 0x40 DUP1 MLOAD SWAP2 DUP3 MSTORE PUSH1 0x20 DUP3 ADD DUP4 SWAP1 MSTORE PUSH32 0x7E3F7F0708A84DE9203036ABAA450DCCC85AD5FF52F78C170F3EDB55CF5E8828 SWAP2 ADD PUSH1 0x40 MLOAD DUP1 SWAP2 SUB SWAP1 LOG1 PUSH1 0x7 SSTORE JUMP JUMPDEST PUSH1 0x8 SLOAD PUSH1 0x40 DUP1 MLOAD SWAP2 DUP3 MSTORE PUSH1 0x20 DUP3 ADD DUP4 SWAP1 MSTORE PUSH32 0xCCB45DA8D5717E6C4544694297C4BA5CF151D455C9BB0ED4FC7A38411BC05461 SWAP2 ADD PUSH1 0x40 MLOAD DUP1 SWAP2 SUB SWAP1 LOG1 PUSH1 0x8 SSTORE JUMP JUMPDEST PUSH1 0x0 PUSH1 0x64 PUSH2 0x2349 DUP4 PUSH2 0xF87 JUMP JUMPDEST PUSH1 0x40 MLOAD PUSH4 0x2394E7A3 PUSH1 0xE2 SHL DUP2 MSTORE PUSH1 0x4 DUP2 ADD DUP6 SWAP1 MSTORE PUSH32 0x0 PUSH1 0x1 PUSH1 0x1 PUSH1 0xA0 SHL SUB AND SWAP1 PUSH4 0x8E539E8C SWAP1 PUSH1 0x24 ADD PUSH1 0x20 PUSH1 0x40 MLOAD DUP1 DUP4 SUB DUP2 DUP7 GAS STATICCALL ISZERO DUP1 ISZERO PUSH2 0x23AE JUMPI RETURNDATASIZE PUSH1 0x0 DUP1 RETURNDATACOPY RETURNDATASIZE PUSH1 0x0 REVERT JUMPDEST POP POP POP POP PUSH1 0x40 MLOAD RETURNDATASIZE PUSH1 0x1F NOT PUSH1 0x1F DUP3 ADD AND DUP3 ADD DUP1 PUSH1 0x40 MSTORE POP DUP2 ADD SWAP1 PUSH2 0x23D2 SWAP2 SWAP1 PUSH2 0x38E2 JUMP JUMPDEST PUSH2 0x23DC SWAP2 SWAP1 PUSH2 0x38FB JUMP JUMPDEST PUSH2 0x869 SWAP2 SWAP1 PUSH2 0x3912 JUMP JUMPDEST PUSH1 0x0 DUP1 DUP3 SWAP1 POP PUSH1 0x1F DUP2 MLOAD GT ISZERO PUSH2 0x2411 JUMPI DUP3 PUSH1 0x40 MLOAD PUSH4 0x305A27A9 PUSH1 0xE0 SHL DUP2 MSTORE PUSH1 0x4 ADD PUSH2 0x996 SWAP2 SWAP1 PUSH2 0x2DE4 JUMP JUMPDEST DUP1 MLOAD PUSH2 0x241C DUP3 PUSH2 0x3934 JUMP JUMPDEST OR SWAP4 SWAP3 POP POP POP JUMP JUMPDEST DUP3 SLOAD PUSH1 0x0 SWAP1 DUP2 SWAP1 DUP1 ISZERO PUSH2 0x256A JUMPI PUSH1 0x0 PUSH2 0x2442 DUP8 PUSH2 0x1837 PUSH1 0x1 DUP6 PUSH2 0x34E0 JUMP JUMPDEST PUSH1 0x40 DUP1 MLOAD DUP1 DUP3 ADD SWAP1 SWAP2 MSTORE SWAP1 SLOAD PUSH4 0xFFFFFFFF DUP1 DUP3 AND DUP1 DUP5 MSTORE PUSH1 0x1 PUSH1 0x20 SHL SWAP1 SWAP3 DIV PUSH1 0x1 PUSH1 0x1 PUSH1 0xE0 SHL SUB AND PUSH1 0x20 DUP5 ADD MSTORE SWAP2 SWAP3 POP SWAP1 DUP8 AND LT ISZERO PUSH2 0x24C3 JUMPI PUSH1 0x40 MLOAD PUSH3 0x461BCD PUSH1 0xE5 SHL DUP2 MSTORE PUSH1 0x20 PUSH1 0x4 DUP3 ADD MSTORE PUSH1 0x17 PUSH1 0x24 DUP3 ADD MSTORE PUSH32 0x436865636B706F696E743A20696E76616C6964206B6579000000000000000000 PUSH1 0x44 DUP3 ADD MSTORE PUSH1 0x64 ADD PUSH2 0x996 JUMP JUMPDEST DUP1 MLOAD PUSH4 0xFFFFFFFF DUP1 DUP9 AND SWAP2 AND SUB PUSH2 0x250B JUMPI DUP5 PUSH2 0x24E4 DUP9 PUSH2 0x1837 PUSH1 0x1 DUP7 PUSH2 0x34E0 JUMP JUMPDEST DUP1 SLOAD PUSH1 0x1 PUSH1 0x1 PUSH1 0xE0 SHL SUB SWAP3 SWAP1 SWAP3 AND PUSH1 0x1 PUSH1 0x20 SHL MUL PUSH4 0xFFFFFFFF SWAP1 SWAP3 AND SWAP2 SWAP1 SWAP2 OR SWAP1 SSTORE PUSH2 0x255A JUMP JUMPDEST PUSH1 0x40 DUP1 MLOAD DUP1 DUP3 ADD SWAP1 SWAP2 MSTORE PUSH4 0xFFFFFFFF DUP1 DUP9 AND DUP3 MSTORE PUSH1 0x1 PUSH1 0x1 PUSH1 0xE0 SHL SUB DUP1 DUP9 AND PUSH1 0x20 DUP1 DUP6 ADD SWAP2 DUP3 MSTORE DUP12 SLOAD PUSH1 0x1 DUP2 ADD DUP14 SSTORE PUSH1 0x0 DUP14 DUP2 MSTORE SWAP2 SWAP1 SWAP2 KECCAK256 SWAP5 MLOAD SWAP2 MLOAD SWAP1 SWAP3 AND PUSH1 0x1 PUSH1 0x20 SHL MUL SWAP3 AND SWAP2 SWAP1 SWAP2 OR SWAP2 ADD SSTORE JUMPDEST PUSH1 0x20 ADD MLOAD SWAP3 POP DUP4 SWAP2 POP PUSH2 0x25BF SWAP1 POP JUMP JUMPDEST POP POP PUSH1 0x40 DUP1 MLOAD DUP1 DUP3 ADD SWAP1 SWAP2 MSTORE PUSH4 0xFFFFFFFF DUP1 DUP6 AND DUP3 MSTORE PUSH1 0x1 PUSH1 0x1 PUSH1 0xE0 SHL SUB DUP1 DUP6 AND PUSH1 0x20 DUP1 DUP6 ADD SWAP2 DUP3 MSTORE DUP9 SLOAD PUSH1 0x1 DUP2 ADD DUP11 SSTORE PUSH1 0x0 DUP11 DUP2 MSTORE SWAP2 DUP3 KECCAK256 SWAP6 MLOAD SWAP3 MLOAD SWAP1 SWAP4 AND PUSH1 0x1 PUSH1 0x20 SHL MUL SWAP2 SWAP1 SWAP4 AND OR SWAP3 ADD SWAP2 SWAP1 SWAP2 SSTORE SWAP1 POP DUP2 JUMPDEST SWAP4 POP SWAP4 SWAP2 POP POP JUMP JUMPDEST PUSH1 0x0 ADDRESS PUSH1 0x1 PUSH1 0x1 PUSH1 0xA0 SHL SUB PUSH32 0x0 AND EQ DUP1 ISZERO PUSH2 0x2620 JUMPI POP PUSH32 0x0 CHAINID EQ JUMPDEST ISZERO PUSH2 0x264A JUMPI POP PUSH32 0x0 SWAP1 JUMP JUMPDEST PUSH2 0x87A PUSH1 0x40 DUP1 MLOAD PUSH32 0x8B73C3C69BB8FE3D512ECC4CF759CC79239F7B179B0FFACAA9A75D522B39400F PUSH1 0x20 DUP3 ADD MSTORE PUSH32 0x0 SWAP2 DUP2 ADD SWAP2 SWAP1 SWAP2 MSTORE PUSH32 0x0 PUSH1 0x60 DUP3 ADD MSTORE CHAINID PUSH1 0x80 DUP3 ADD MSTORE ADDRESS PUSH1 0xA0 DUP3 ADD MSTORE PUSH1 0x0 SWAP1 PUSH1 0xC0 ADD PUSH1 0x40 MLOAD PUSH1 0x20 DUP2 DUP4 SUB SUB DUP2 MSTORE SWAP1 PUSH1 0x40 MSTORE DUP1 MLOAD SWAP1 PUSH1 0x20 ADD KECCAK256 SWAP1 POP SWAP1 JUMP JUMPDEST PUSH1 0x0 DUP1 PUSH32 0x7FFFFFFFFFFFFFFFFFFFFFFFFFFFFFFF5D576E7357A4501DDFE92F46681B20A0 DUP4 GT ISZERO PUSH2 0x2729 JUMPI POP PUSH1 0x0 SWAP1 POP PUSH1 0x3 PUSH2 0x27AD JUMP JUMPDEST PUSH1 0x40 DUP1 MLOAD PUSH1 0x0 DUP1 DUP3 MSTORE PUSH1 0x20 DUP3 ADD DUP1 DUP5 MSTORE DUP10 SWAP1 MSTORE PUSH1 0xFF DUP9 AND SWAP3 DUP3 ADD SWAP3 SWAP1 SWAP3 MSTORE PUSH1 0x60 DUP2 ADD DUP7 SWAP1 MSTORE PUSH1 0x80 DUP2 ADD DUP6 SWAP1 MSTORE PUSH1 0x1 SWAP1 PUSH1 0xA0 ADD PUSH1 0x20 PUSH1 0x40 MLOAD PUSH1 0x20 DUP2 SUB SWAP1 DUP1 DUP5 SUB SWAP1 DUP6 GAS STATICCALL ISZERO DUP1 ISZERO PUSH2 0x277D JUMPI RETURNDATASIZE PUSH1 0x0 DUP1 RETURNDATACOPY RETURNDATASIZE PUSH1 0x0 REVERT JUMPDEST POP POP PUSH1 0x40 MLOAD PUSH1 0x1F NOT ADD MLOAD SWAP2 POP POP PUSH1 0x1 PUSH1 0x1 PUSH1 0xA0 SHL SUB DUP2 AND PUSH2 0x27A6 JUMPI PUSH1 0x0 PUSH1 0x1 SWAP3 POP SWAP3 POP POP PUSH2 0x27AD JUMP JUMPDEST SWAP2 POP PUSH1 0x0 SWAP1 POP JUMPDEST SWAP5 POP SWAP5 SWAP3 POP POP POP JUMP JUMPDEST PUSH1 0x0 DUP2 PUSH1 0x4 DUP2 GT ISZERO PUSH2 0x27CA JUMPI PUSH2 0x27CA PUSH2 0x3055 JUMP JUMPDEST SUB PUSH2 0x27D2 JUMPI POP JUMP JUMPDEST PUSH1 0x1 DUP2 PUSH1 0x4 DUP2 GT ISZERO PUSH2 0x27E6 JUMPI PUSH2 0x27E6 PUSH2 0x3055 JUMP JUMPDEST SUB PUSH2 0x2833 JUMPI PUSH1 0x40 MLOAD PUSH3 0x461BCD PUSH1 0xE5 SHL DUP2 MSTORE PUSH1 0x20 PUSH1 0x4 DUP3 ADD MSTORE PUSH1 0x18 PUSH1 0x24 DUP3 ADD MSTORE PUSH32 0x45434453413A20696E76616C6964207369676E61747572650000000000000000 PUSH1 0x44 DUP3 ADD MSTORE PUSH1 0x64 ADD PUSH2 0x996 JUMP JUMPDEST PUSH1 0x2 DUP2 PUSH1 0x4 DUP2 GT ISZERO PUSH2 0x2847 JUMPI PUSH2 0x2847 PUSH2 0x3055 JUMP JUMPDEST SUB PUSH2 0x2894 JUMPI PUSH1 0x40 MLOAD PUSH3 0x461BCD PUSH1 0xE5 SHL DUP2 MSTORE PUSH1 0x20 PUSH1 0x4 DUP3 ADD MSTORE PUSH1 0x1F PUSH1 0x24 DUP3 ADD MSTORE PUSH32 0x45434453413A20696E76616C6964207369676E6174757265206C656E67746800 PUSH1 0x44 DUP3 ADD MSTORE PUSH1 0x64 ADD PUSH2 0x996 JUMP JUMPDEST PUSH1 0x3 DUP2 PUSH1 0x4 DUP2 GT ISZERO PUSH2 0x28A8 JUMPI PUSH2 0x28A8 PUSH2 0x3055 JUMP JUMPDEST SUB PUSH2 0x9BF JUMPI PUSH1 0x40 MLOAD PUSH3 0x461BCD PUSH1 0xE5 SHL DUP2 MSTORE PUSH1 0x20 PUSH1 0x4 DUP3 ADD MSTORE PUSH1 0x22 PUSH1 0x24 DUP3 ADD MSTORE PUSH32 0x45434453413A20696E76616C6964207369676E6174757265202773272076616C PUSH1 0x44 DUP3 ADD MSTORE PUSH2 0x7565 PUSH1 0xF0 SHL PUSH1 0x64 DUP3 ADD MSTORE PUSH1 0x84 ADD PUSH2 0x996 JUMP JUMPDEST PUSH1 0x0 DUP6 DUP2 MSTORE PUSH1 0x9 PUSH1 0x20 SWAP1 DUP2 MSTORE PUSH1 0x40 DUP1 DUP4 KECCAK256 PUSH1 0x1 PUSH1 0x1 PUSH1 0xA0 SHL SUB DUP9 AND DUP5 MSTORE PUSH1 0x3 DUP2 ADD SWAP1 SWAP3 MSTORE SWAP1 SWAP2 KECCAK256 SLOAD PUSH1 0xFF AND ISZERO PUSH2 0x2988 JUMPI PUSH1 0x40 MLOAD PUSH3 0x461BCD PUSH1 0xE5 SHL DUP2 MSTORE PUSH1 0x20 PUSH1 0x4 DUP3 ADD MSTORE PUSH1 0x27 PUSH1 0x24 DUP3 ADD MSTORE PUSH32 0x476F7665726E6F72566F74696E6753696D706C653A20766F746520616C726561 PUSH1 0x44 DUP3 ADD MSTORE PUSH7 0x191E4818D85CDD PUSH1 0xCA SHL PUSH1 0x64 DUP3 ADD MSTORE PUSH1 0x84 ADD PUSH2 0x996 JUMP JUMPDEST PUSH1 0x1 PUSH1 0x1 PUSH1 0xA0 SHL SUB DUP6 AND PUSH1 0x0 SWAP1 DUP2 MSTORE PUSH1 0x3 DUP3 ADD PUSH1 0x20 MSTORE PUSH1 0x40 SWAP1 KECCAK256 DUP1 SLOAD PUSH1 0xFF NOT AND PUSH1 0x1 OR SWAP1 SSTORE PUSH1 0xFF DUP5 AND PUSH2 0x29D4 JUMPI DUP3 DUP2 PUSH1 0x0 ADD PUSH1 0x0 DUP3 DUP3 SLOAD PUSH2 0x29C9 SWAP2 SWAP1 PUSH2 0x354A JUMP JUMPDEST SWAP1 SWAP2 SSTORE POP PUSH2 0x1CB8 SWAP1 POP JUMP JUMPDEST PUSH1 0x0 NOT PUSH1 0xFF DUP6 AND ADD PUSH2 0x29F4 JUMPI DUP3 DUP2 PUSH1 0x1 ADD PUSH1 0x0 DUP3 DUP3 SLOAD PUSH2 0x29C9 SWAP2 SWAP1 PUSH2 0x354A JUMP JUMPDEST PUSH1 0x1 NOT PUSH1 0xFF DUP6 AND ADD PUSH2 0x2A14 JUMPI DUP3 DUP2 PUSH1 0x2 ADD PUSH1 0x0 DUP3 DUP3 SLOAD PUSH2 0x29C9 SWAP2 SWAP1 PUSH2 0x354A JUMP JUMPDEST PUSH1 0x40 MLOAD PUSH3 0x461BCD PUSH1 0xE5 SHL DUP2 MSTORE PUSH1 0x20 PUSH1 0x4 DUP3 ADD MSTORE PUSH1 0x35 PUSH1 0x24 DUP3 ADD MSTORE PUSH32 0x476F7665726E6F72566F74696E6753696D706C653A20696E76616C6964207661 PUSH1 0x44 DUP3 ADD MSTORE PUSH21 0x6C756520666F7220656E756D20566F746554797065 PUSH1 0x58 SHL PUSH1 0x64 DUP3 ADD MSTORE PUSH1 0x84 ADD PUSH2 0x996 JUMP JUMPDEST DUP2 SLOAD PUSH1 0x1 PUSH1 0x80 SHL SWAP1 DUP2 SWAP1 DIV PUSH1 0xF SIGNEXTEND PUSH1 0x0 DUP2 DUP2 MSTORE PUSH1 0x1 DUP1 DUP7 ADD PUSH1 0x20 MSTORE PUSH1 0x40 SWAP1 SWAP2 KECCAK256 SWAP4 SWAP1 SWAP4 SSTORE DUP4 SLOAD PUSH1 0x1 PUSH1 0x1 PUSH1 0x80 SHL SUB SWAP1 DUP2 AND SWAP4 SWAP1 SWAP2 ADD AND MUL OR SWAP1 SSTORE JUMP JUMPDEST PUSH1 0x0 JUMPDEST DUP2 DUP4 LT ISZERO PUSH2 0x2B0C JUMPI PUSH1 0x0 PUSH2 0x2ACD DUP5 DUP5 PUSH2 0x2B73 JUMP JUMPDEST PUSH1 0x0 DUP8 DUP2 MSTORE PUSH1 0x20 SWAP1 KECCAK256 SWAP1 SWAP2 POP PUSH4 0xFFFFFFFF DUP7 AND SWAP1 DUP3 ADD SLOAD PUSH4 0xFFFFFFFF AND GT ISZERO PUSH2 0x2AF8 JUMPI DUP1 SWAP3 POP PUSH2 0x2B06 JUMP JUMPDEST PUSH2 0x2B03 DUP2 PUSH1 0x1 PUSH2 0x354A JUMP JUMPDEST SWAP4 POP JUMPDEST POP PUSH2 0x2AB9 JUMP JUMPDEST POP SWAP4 SWAP3 POP POP POP JUMP JUMPDEST PUSH1 0x40 DUP1 MLOAD PUSH1 0x20 DUP1 DUP3 MSTORE DUP2 DUP4 ADD SWAP1 SWAP3 MSTORE PUSH1 0x60 SWAP2 PUSH1 0xFF DUP5 AND SWAP2 PUSH1 0x0 SWAP2 DUP1 DUP3 ADD DUP2 DUP1 CALLDATASIZE DUP4 CALLDATACOPY POP POP POP SWAP2 DUP3 MSTORE POP PUSH1 0x20 DUP2 ADD SWAP3 SWAP1 SWAP3 MSTORE POP SWAP1 JUMP JUMPDEST DUP2 MLOAD ISZERO PUSH2 0x2B59 JUMPI DUP2 MLOAD DUP1 DUP4 PUSH1 0x20 ADD REVERT JUMPDEST DUP1 PUSH1 0x40 MLOAD PUSH3 0x461BCD PUSH1 0xE5 SHL DUP2 MSTORE PUSH1 0x4 ADD PUSH2 0x996 SWAP2 SWAP1 PUSH2 0x2DE4 JUMP JUMPDEST PUSH1 0x0 PUSH2 0x2B82 PUSH1 0x2 DUP5 DUP5 XOR PUSH2 0x3912 JUMP JUMPDEST PUSH2 0x1548 SWAP1 DUP5 DUP5 AND PUSH2 0x354A JUMP JUMPDEST PUSH1 0x0 PUSH1 0x20 DUP3 DUP5 SUB SLT ISZERO PUSH2 0x2BA0 JUMPI PUSH1 0x0 DUP1 REVERT JUMPDEST DUP2 CALLDATALOAD PUSH1 0x1 PUSH1 0x1 PUSH1 0xE0 SHL SUB NOT DUP2 AND DUP2 EQ PUSH2 0x1548 JUMPI PUSH1 0x0 DUP1 REVERT JUMPDEST DUP1 CALLDATALOAD PUSH1 0xFF DUP2 AND DUP2 EQ PUSH2 0xF0F JUMPI PUSH1 0x0 DUP1 REVERT JUMPDEST PUSH1 0x0 DUP1 DUP4 PUSH1 0x1F DUP5 ADD SLT PUSH2 0x2BDB JUMPI PUSH1 0x0 DUP1 REVERT JUMPDEST POP DUP2 CALLDATALOAD PUSH1 0x1 PUSH1 0x1 PUSH1 0x40 SHL SUB DUP2 GT ISZERO PUSH2 0x2BF2 JUMPI PUSH1 0x0 DUP1 REVERT JUMPDEST PUSH1 0x20 DUP4 ADD SWAP2 POP DUP4 PUSH1 0x20 DUP3 DUP6 ADD ADD GT ISZERO PUSH2 0x1816 JUMPI PUSH1 0x0 DUP1 REVERT JUMPDEST PUSH4 0x4E487B71 PUSH1 0xE0 SHL PUSH1 0x0 MSTORE PUSH1 0x41 PUSH1 0x4 MSTORE PUSH1 0x24 PUSH1 0x0 REVERT JUMPDEST PUSH1 0x40 MLOAD PUSH1 0x1F DUP3 ADD PUSH1 0x1F NOT AND DUP2 ADD PUSH1 0x1 PUSH1 0x1 PUSH1 0x40 SHL SUB DUP2 GT DUP3 DUP3 LT OR ISZERO PUSH2 0x2C48 JUMPI PUSH2 0x2C48 PUSH2 0x2C0A JUMP JUMPDEST PUSH1 0x40 MSTORE SWAP2 SWAP1 POP JUMP JUMPDEST PUSH1 0x0 PUSH1 0x1 PUSH1 0x1 PUSH1 0x40 SHL SUB DUP3 GT ISZERO PUSH2 0x2C69 JUMPI PUSH2 0x2C69 PUSH2 0x2C0A JUMP JUMPDEST POP PUSH1 0x1F ADD PUSH1 0x1F NOT AND PUSH1 0x20 ADD SWAP1 JUMP JUMPDEST PUSH1 0x0 PUSH2 0x2C8A PUSH2 0x2C85 DUP5 PUSH2 0x2C50 JUMP JUMPDEST PUSH2 0x2C20 JUMP JUMPDEST SWAP1 POP DUP3 DUP2 MSTORE DUP4 DUP4 DUP4 ADD GT ISZERO PUSH2 0x2C9E JUMPI PUSH1 0x0 DUP1 REVERT JUMPDEST DUP3 DUP3 PUSH1 0x20 DUP4 ADD CALLDATACOPY PUSH1 0x0 PUSH1 0x20 DUP5 DUP4 ADD ADD MSTORE SWAP4 SWAP3 POP POP POP JUMP JUMPDEST PUSH1 0x0 DUP3 PUSH1 0x1F DUP4 ADD SLT PUSH2 0x2CC6 JUMPI PUSH1 0x0 DUP1 REVERT JUMPDEST PUSH2 0x1548 DUP4 DUP4 CALLDATALOAD PUSH1 0x20 DUP6 ADD PUSH2 0x2C77 JUMP JUMPDEST PUSH1 0x0 DUP1 PUSH1 0x0 DUP1 PUSH1 0x0 DUP1 PUSH1 0x0 DUP1 PUSH1 0xE0 DUP10 DUP12 SUB SLT ISZERO PUSH2 0x2CF1 JUMPI PUSH1 0x0 DUP1 REVERT JUMPDEST DUP9 CALLDATALOAD SWAP8 POP PUSH2 0x2D01 PUSH1 0x20 DUP11 ADD PUSH2 0x2BB8 JUMP JUMPDEST SWAP7 POP PUSH1 0x40 DUP10 ADD CALLDATALOAD PUSH1 0x1 PUSH1 0x1 PUSH1 0x40 SHL SUB DUP1 DUP3 GT ISZERO PUSH2 0x2D1D JUMPI PUSH1 0x0 DUP1 REVERT JUMPDEST PUSH2 0x2D29 DUP13 DUP4 DUP14 ADD PUSH2 0x2BC9 JUMP JUMPDEST SWAP1 SWAP9 POP SWAP7 POP PUSH1 0x60 DUP12 ADD CALLDATALOAD SWAP2 POP DUP1 DUP3 GT ISZERO PUSH2 0x2D42 JUMPI PUSH1 0x0 DUP1 REVERT JUMPDEST POP PUSH2 0x2D4F DUP12 DUP3 DUP13 ADD PUSH2 0x2CB5 JUMP JUMPDEST SWAP5 POP POP PUSH2 0x2D5E PUSH1 0x80 DUP11 ADD PUSH2 0x2BB8 JUMP JUMPDEST SWAP3 POP PUSH1 0xA0 DUP10 ADD CALLDATALOAD SWAP2 POP PUSH1 0xC0 DUP10 ADD CALLDATALOAD SWAP1 POP SWAP3 SWAP6 SWAP9 POP SWAP3 SWAP6 SWAP9 SWAP1 SWAP4 SWAP7 POP JUMP JUMPDEST PUSH1 0x0 PUSH1 0x20 DUP3 DUP5 SUB SLT ISZERO PUSH2 0x2D8D JUMPI PUSH1 0x0 DUP1 REVERT JUMPDEST POP CALLDATALOAD SWAP2 SWAP1 POP JUMP JUMPDEST PUSH1 0x0 JUMPDEST DUP4 DUP2 LT ISZERO PUSH2 0x2DAF JUMPI DUP2 DUP2 ADD MLOAD DUP4 DUP3 ADD MSTORE PUSH1 0x20 ADD PUSH2 0x2D97 JUMP JUMPDEST POP POP PUSH1 0x0 SWAP2 ADD MSTORE JUMP JUMPDEST PUSH1 0x0 DUP2 MLOAD DUP1 DUP5 MSTORE PUSH2 0x2DD0 DUP2 PUSH1 0x20 DUP7 ADD PUSH1 0x20 DUP7 ADD PUSH2 0x2D94 JUMP JUMPDEST PUSH1 0x1F ADD PUSH1 0x1F NOT AND SWAP3 SWAP1 SWAP3 ADD PUSH1 0x20 ADD SWAP3 SWAP2 POP POP JUMP JUMPDEST PUSH1 0x20 DUP2 MSTORE PUSH1 0x0 PUSH2 0x1548 PUSH1 0x20 DUP4 ADD DUP5 PUSH2 0x2DB8 JUMP JUMPDEST PUSH1 0x0 PUSH1 0x1 PUSH1 0x1 PUSH1 0x40 SHL SUB DUP3 GT ISZERO PUSH2 0x2E10 JUMPI PUSH2 0x2E10 PUSH2 0x2C0A JUMP JUMPDEST POP PUSH1 0x5 SHL PUSH1 0x20 ADD SWAP1 JUMP JUMPDEST DUP1 CALLDATALOAD PUSH1 0x1 PUSH1 0x1 PUSH1 0xA0 SHL SUB DUP2 AND DUP2 EQ PUSH2 0xF0F JUMPI PUSH1 0x0 DUP1 REVERT JUMPDEST PUSH1 0x0 DUP3 PUSH1 0x1F DUP4 ADD SLT PUSH2 0x2E42 JUMPI PUSH1 0x0 DUP1 REVERT JUMPDEST DUP2 CALLDATALOAD PUSH1 0x20 PUSH2 0x2E52 PUSH2 0x2C85 DUP4 PUSH2 0x2DF7 JUMP JUMPDEST DUP3 DUP2 MSTORE PUSH1 0x5 SWAP3 SWAP1 SWAP3 SHL DUP5 ADD DUP2 ADD SWAP2 DUP2 DUP2 ADD SWAP1 DUP7 DUP5 GT ISZERO PUSH2 0x2E71 JUMPI PUSH1 0x0 DUP1 REVERT JUMPDEST DUP3 DUP7 ADD JUMPDEST DUP5 DUP2 LT ISZERO PUSH2 0x2E93 JUMPI PUSH2 0x2E86 DUP2 PUSH2 0x2E1A JUMP JUMPDEST DUP4 MSTORE SWAP2 DUP4 ADD SWAP2 DUP4 ADD PUSH2 0x2E75 JUMP JUMPDEST POP SWAP7 SWAP6 POP POP POP POP POP POP JUMP JUMPDEST PUSH1 0x0 DUP3 PUSH1 0x1F DUP4 ADD SLT PUSH2 0x2EAF JUMPI PUSH1 0x0 DUP1 REVERT JUMPDEST DUP2 CALLDATALOAD PUSH1 0x20 PUSH2 0x2EBF PUSH2 0x2C85 DUP4 PUSH2 0x2DF7 JUMP JUMPDEST DUP3 DUP2 MSTORE PUSH1 0x5 SWAP3 SWAP1 SWAP3 SHL DUP5 ADD DUP2 ADD SWAP2 DUP2 DUP2 ADD SWAP1 DUP7 DUP5 GT ISZERO PUSH2 0x2EDE JUMPI PUSH1 0x0 DUP1 REVERT JUMPDEST DUP3 DUP7 ADD JUMPDEST DUP5 DUP2 LT ISZERO PUSH2 0x2E93 JUMPI DUP1 CALLDATALOAD DUP4 MSTORE SWAP2 DUP4 ADD SWAP2 DUP4 ADD PUSH2 0x2EE2 JUMP JUMPDEST PUSH1 0x0 DUP3 PUSH1 0x1F DUP4 ADD SLT PUSH2 0x2F0A JUMPI PUSH1 0x0 DUP1 REVERT JUMPDEST DUP2 CALLDATALOAD PUSH1 0x20 PUSH2 0x2F1A PUSH2 0x2C85 DUP4 PUSH2 0x2DF7 JUMP JUMPDEST DUP3 DUP2 MSTORE PUSH1 0x5 SWAP3 SWAP1 SWAP3 SHL DUP5 ADD DUP2 ADD SWAP2 DUP2 DUP2 ADD SWAP1 DUP7 DUP5 GT ISZERO PUSH2 0x2F39 JUMPI PUSH1 0x0 DUP1 REVERT JUMPDEST DUP3 DUP7 ADD JUMPDEST DUP5 DUP2 LT ISZERO PUSH2 0x2E93 JUMPI DUP1 CALLDATALOAD PUSH1 0x1 PUSH1 0x1 PUSH1 0x40 SHL SUB DUP2 GT ISZERO PUSH2 0x2F5C JUMPI PUSH1 0x0 DUP1 DUP2 REVERT JUMPDEST PUSH2 0x2F6A DUP10 DUP7 DUP4 DUP12 ADD ADD PUSH2 0x2CB5 JUMP JUMPDEST DUP5 MSTORE POP SWAP2 DUP4 ADD SWAP2 DUP4 ADD PUSH2 0x2F3D JUMP JUMPDEST PUSH1 0x0 DUP1 PUSH1 0x0 DUP1 PUSH1 0x80 DUP6 DUP8 SUB SLT ISZERO PUSH2 0x2F8E JUMPI PUSH1 0x0 DUP1 REVERT JUMPDEST DUP5 CALLDATALOAD PUSH1 0x1 PUSH1 0x1 PUSH1 0x40 SHL SUB DUP1 DUP3 GT ISZERO PUSH2 0x2FA5 JUMPI PUSH1 0x0 DUP1 REVERT JUMPDEST PUSH2 0x2FB1 DUP9 DUP4 DUP10 ADD PUSH2 0x2E31 JUMP JUMPDEST SWAP6 POP PUSH1 0x20 DUP8 ADD CALLDATALOAD SWAP2 POP DUP1 DUP3 GT ISZERO PUSH2 0x2FC7 JUMPI PUSH1 0x0 DUP1 REVERT JUMPDEST PUSH2 0x2FD3 DUP9 DUP4 DUP10 ADD PUSH2 0x2E9E JUMP JUMPDEST SWAP5 POP PUSH1 0x40 DUP8 ADD CALLDATALOAD SWAP2 POP DUP1 DUP3 GT ISZERO PUSH2 0x2FE9 JUMPI PUSH1 0x0 DUP1 REVERT JUMPDEST POP PUSH2 0x2FF6 DUP8 DUP3 DUP9 ADD PUSH2 0x2EF9 JUMP JUMPDEST SWAP5 SWAP8 SWAP4 SWAP7 POP SWAP4 SWAP5 PUSH1 0x60 ADD CALLDATALOAD SWAP4 POP POP POP JUMP JUMPDEST PUSH1 0x0 DUP1 PUSH1 0x0 DUP1 PUSH1 0x0 PUSH1 0xA0 DUP7 DUP9 SUB SLT ISZERO PUSH2 0x301F JUMPI PUSH1 0x0 DUP1 REVERT JUMPDEST DUP6 CALLDATALOAD SWAP5 POP PUSH2 0x302F PUSH1 0x20 DUP8 ADD PUSH2 0x2BB8 JUMP JUMPDEST SWAP4 POP PUSH2 0x303D PUSH1 0x40 DUP8 ADD PUSH2 0x2BB8 JUMP JUMPDEST SWAP5 SWAP8 SWAP4 SWAP7 POP SWAP4 SWAP5 PUSH1 0x60 DUP2 ADD CALLDATALOAD SWAP5 POP PUSH1 0x80 ADD CALLDATALOAD SWAP3 SWAP2 POP POP JUMP JUMPDEST PUSH4 0x4E487B71 PUSH1 0xE0 SHL PUSH1 0x0 MSTORE PUSH1 0x21 PUSH1 0x4 MSTORE PUSH1 0x24 PUSH1 0x0 REVERT JUMPDEST PUSH1 0x20 DUP2 ADD PUSH1 0x8 DUP4 LT PUSH2 0x308D JUMPI PUSH4 0x4E487B71 PUSH1 0xE0 SHL PUSH1 0x0 MSTORE PUSH1 0x21 PUSH1 0x4 MSTORE PUSH1 0x24 PUSH1 0x0 REVERT JUMPDEST SWAP2 SWAP1 MSTORE SWAP1 JUMP JUMPDEST PUSH1 0x0 DUP1 PUSH1 0x40 DUP4 DUP6 SUB SLT ISZERO PUSH2 0x30A6 JUMPI PUSH1 0x0 DUP1 REVERT JUMPDEST DUP3 CALLDATALOAD SWAP2 POP PUSH2 0x30B6 PUSH1 0x20 DUP5 ADD PUSH2 0x2E1A JUMP JUMPDEST SWAP1 POP SWAP3 POP SWAP3 SWAP1 POP JUMP JUMPDEST PUSH1 0x0 DUP1 PUSH1 0x40 DUP4 DUP6 SUB SLT ISZERO PUSH2 0x30D2 JUMPI PUSH1 0x0 DUP1 REVERT JUMPDEST DUP3 CALLDATALOAD SWAP2 POP PUSH2 0x30B6 PUSH1 0x20 DUP5 ADD PUSH2 0x2BB8 JUMP JUMPDEST PUSH1 0x0 DUP1 PUSH1 0x0 DUP1 PUSH1 0x0 PUSH1 0x80 DUP7 DUP9 SUB SLT ISZERO PUSH2 0x30FA JUMPI PUSH1 0x0 DUP1 REVERT JUMPDEST DUP6 CALLDATALOAD SWAP5 POP PUSH2 0x310A PUSH1 0x20 DUP8 ADD PUSH2 0x2BB8 JUMP JUMPDEST SWAP4 POP PUSH1 0x40 DUP7 ADD CALLDATALOAD PUSH1 0x1 PUSH1 0x1 PUSH1 0x40 SHL SUB DUP1 DUP3 GT ISZERO PUSH2 0x3126 JUMPI PUSH1 0x0 DUP1 REVERT JUMPDEST PUSH2 0x3132 DUP10 DUP4 DUP11 ADD PUSH2 0x2BC9 JUMP JUMPDEST SWAP1 SWAP6 POP SWAP4 POP PUSH1 0x60 DUP9 ADD CALLDATALOAD SWAP2 POP DUP1 DUP3 GT ISZERO PUSH2 0x314B JUMPI PUSH1 0x0 DUP1 REVERT JUMPDEST POP PUSH2 0x3158 DUP9 DUP3 DUP10 ADD PUSH2 0x2CB5 JUMP JUMPDEST SWAP2 POP POP SWAP3 SWAP6 POP SWAP3 SWAP6 SWAP1 SWAP4 POP JUMP JUMPDEST PUSH1 0x0 DUP1 PUSH1 0x0 DUP1 PUSH1 0x60 DUP6 DUP8 SUB SLT ISZERO PUSH2 0x317B JUMPI PUSH1 0x0 DUP1 REVERT JUMPDEST DUP5 CALLDATALOAD SWAP4 POP PUSH2 0x318B PUSH1 0x20 DUP7 ADD PUSH2 0x2BB8 JUMP JUMPDEST SWAP3 POP PUSH1 0x40 DUP6 ADD CALLDATALOAD PUSH1 0x1 PUSH1 0x1 PUSH1 0x40 SHL SUB DUP2 GT ISZERO PUSH2 0x31A6 JUMPI PUSH1 0x0 DUP1 REVERT JUMPDEST PUSH2 0x31B2 DUP8 DUP3 DUP9 ADD PUSH2 0x2BC9 JUMP JUMPDEST SWAP6 SWAP9 SWAP5 SWAP8 POP SWAP6 POP POP POP POP JUMP JUMPDEST PUSH1 0x0 DUP1 PUSH1 0x0 DUP1 PUSH1 0x80 DUP6 DUP8 SUB SLT ISZERO PUSH2 0x31D4 JUMPI PUSH1 0x0 DUP1 REVERT JUMPDEST DUP5 CALLDATALOAD PUSH1 0x1 PUSH1 0x1 PUSH1 0x40 SHL SUB DUP1 DUP3 GT ISZERO PUSH2 0x31EB JUMPI PUSH1 0x0 DUP1 REVERT JUMPDEST PUSH2 0x31F7 DUP9 DUP4 DUP10 ADD PUSH2 0x2E31 JUMP JUMPDEST SWAP6 POP PUSH1 0x20 DUP8 ADD CALLDATALOAD SWAP2 POP DUP1 DUP3 GT ISZERO PUSH2 0x320D JUMPI PUSH1 0x0 DUP1 REVERT JUMPDEST PUSH2 0x3219 DUP9 DUP4 DUP10 ADD PUSH2 0x2E9E JUMP JUMPDEST SWAP5 POP PUSH1 0x40 DUP8 ADD CALLDATALOAD SWAP2 POP DUP1 DUP3 GT ISZERO PUSH2 0x322F JUMPI PUSH1 0x0 DUP1 REVERT JUMPDEST PUSH2 0x323B DUP9 DUP4 DUP10 ADD PUSH2 0x2EF9 JUMP JUMPDEST SWAP4 POP PUSH1 0x60 DUP8 ADD CALLDATALOAD SWAP2 POP DUP1 DUP3 GT ISZERO PUSH2 0x3251 JUMPI PUSH1 0x0 DUP1 REVERT JUMPDEST POP DUP6 ADD PUSH1 0x1F DUP2 ADD DUP8 SGT PUSH2 0x3263 JUMPI PUSH1 0x0 DUP1 REVERT JUMPDEST PUSH2 0x3272 DUP8 DUP3 CALLDATALOAD PUSH1 0x20 DUP5 ADD PUSH2 0x2C77 JUMP JUMPDEST SWAP2 POP POP SWAP3 SWAP6 SWAP2 SWAP5 POP SWAP3 POP JUMP JUMPDEST PUSH1 0x0 DUP2 MLOAD DUP1 DUP5 MSTORE PUSH1 0x20 DUP1 DUP6 ADD SWAP5 POP DUP1 DUP5 ADD PUSH1 0x0 JUMPDEST DUP4 DUP2 LT ISZERO PUSH2 0x32AE JUMPI DUP2 MLOAD DUP8 MSTORE SWAP6 DUP3 ADD SWAP6 SWAP1 DUP3 ADD SWAP1 PUSH1 0x1 ADD PUSH2 0x3292 JUMP JUMPDEST POP SWAP5 SWAP6 SWAP5 POP POP POP POP POP JUMP JUMPDEST PUSH1 0xFF PUSH1 0xF8 SHL DUP9 AND DUP2 MSTORE PUSH1 0xE0 PUSH1 0x20 DUP3 ADD MSTORE PUSH1 0x0 PUSH2 0x32D8 PUSH1 0xE0 DUP4 ADD DUP10 PUSH2 0x2DB8 JUMP JUMPDEST DUP3 DUP2 SUB PUSH1 0x40 DUP5 ADD MSTORE PUSH2 0x32EA DUP2 DUP10 PUSH2 0x2DB8 JUMP JUMPDEST PUSH1 0x60 DUP5 ADD DUP9 SWAP1 MSTORE PUSH1 0x1 PUSH1 0x1 PUSH1 0xA0 SHL SUB DUP8 AND PUSH1 0x80 DUP6 ADD MSTORE PUSH1 0xA0 DUP5 ADD DUP7 SWAP1 MSTORE DUP4 DUP2 SUB PUSH1 0xC0 DUP6 ADD MSTORE SWAP1 POP PUSH2 0x969 DUP2 DUP6 PUSH2 0x327E JUMP JUMPDEST PUSH1 0x0 DUP1 PUSH1 0x0 PUSH1 0x60 DUP5 DUP7 SUB SLT ISZERO PUSH2 0x3330 JUMPI PUSH1 0x0 DUP1 REVERT JUMPDEST PUSH2 0x3339 DUP5 PUSH2 0x2E1A JUMP JUMPDEST SWAP3 POP PUSH1 0x20 DUP5 ADD CALLDATALOAD SWAP2 POP PUSH1 0x40 DUP5 ADD CALLDATALOAD PUSH1 0x1 PUSH1 0x1 PUSH1 0x40 SHL SUB DUP2 GT ISZERO PUSH2 0x335B JUMPI PUSH1 0x0 DUP1 REVERT JUMPDEST PUSH2 0x3367 DUP7 DUP3 DUP8 ADD PUSH2 0x2CB5 JUMP JUMPDEST SWAP2 POP POP SWAP3 POP SWAP3 POP SWAP3 JUMP JUMPDEST PUSH1 0x0 DUP1 PUSH1 0x0 DUP1 PUSH1 0x60 DUP6 DUP8 SUB SLT ISZERO PUSH2 0x3387 JUMPI PUSH1 0x0 DUP1 REVERT JUMPDEST PUSH2 0x3390 DUP6 PUSH2 0x2E1A JUMP JUMPDEST SWAP4 POP PUSH1 0x20 DUP6 ADD CALLDATALOAD SWAP3 POP PUSH1 0x40 DUP6 ADD CALLDATALOAD PUSH1 0x1 PUSH1 0x1 PUSH1 0x40 SHL SUB DUP2 GT ISZERO PUSH2 0x31A6 JUMPI PUSH1 0x0 DUP1 REVERT JUMPDEST PUSH1 0x0 DUP1 PUSH1 0x40 DUP4 DUP6 SUB SLT ISZERO PUSH2 0x33C5 JUMPI PUSH1 0x0 DUP1 REVERT JUMPDEST PUSH2 0x33CE DUP4 PUSH2 0x2E1A JUMP JUMPDEST SWAP5 PUSH1 0x20 SWAP4 SWAP1 SWAP4 ADD CALLDATALOAD SWAP4 POP POP POP JUMP JUMPDEST DUP2 DUP4 DUP3 CALLDATACOPY PUSH1 0x0 SWAP2 ADD SWAP1 DUP2 MSTORE SWAP2 SWAP1 POP JUMP JUMPDEST PUSH1 0x20 DUP1 DUP3 MSTORE PUSH1 0x18 SWAP1 DUP3 ADD MSTORE PUSH32 0x476F7665726E6F723A206F6E6C79476F7665726E616E63650000000000000000 PUSH1 0x40 DUP3 ADD MSTORE PUSH1 0x60 ADD SWAP1 JUMP JUMPDEST PUSH1 0x1 DUP2 DUP2 SHR SWAP1 DUP3 AND DUP1 PUSH2 0x3437 JUMPI PUSH1 0x7F DUP3 AND SWAP2 POP JUMPDEST PUSH1 0x20 DUP3 LT DUP2 SUB PUSH2 0x3457 JUMPI PUSH4 0x4E487B71 PUSH1 0xE0 SHL PUSH1 0x0 MSTORE PUSH1 0x22 PUSH1 0x4 MSTORE PUSH1 0x24 PUSH1 0x0 REVERT JUMPDEST POP SWAP2 SWAP1 POP JUMP JUMPDEST PUSH1 0x0 PUSH1 0x20 DUP3 DUP5 SUB SLT ISZERO PUSH2 0x346F JUMPI PUSH1 0x0 DUP1 REVERT JUMPDEST DUP2 MLOAD PUSH1 0x1 PUSH1 0x1 PUSH1 0x40 SHL SUB DUP2 GT ISZERO PUSH2 0x3485 JUMPI PUSH1 0x0 DUP1 REVERT JUMPDEST DUP3 ADD PUSH1 0x1F DUP2 ADD DUP5 SGT PUSH2 0x3496 JUMPI PUSH1 0x0 DUP1 REVERT JUMPDEST DUP1 MLOAD PUSH2 0x34A4 PUSH2 0x2C85 DUP3 PUSH2 0x2C50 JUMP JUMPDEST DUP2 DUP2 MSTORE DUP6 PUSH1 0x20 DUP4 DUP6 ADD ADD GT ISZERO PUSH2 0x34B9 JUMPI PUSH1 0x0 DUP1 REVERT JUMPDEST PUSH2 0x1693 DUP3 PUSH1 0x20 DUP4 ADD PUSH1 0x20 DUP7 ADD PUSH2 0x2D94 JUMP JUMPDEST PUSH4 0x4E487B71 PUSH1 0xE0 SHL PUSH1 0x0 MSTORE PUSH1 0x11 PUSH1 0x4 MSTORE PUSH1 0x24 PUSH1 0x0 REVERT JUMPDEST DUP2 DUP2 SUB DUP2 DUP2 GT ISZERO PUSH2 0x869 JUMPI PUSH2 0x869 PUSH2 0x34CA JUMP JUMPDEST PUSH4 0x4E487B71 PUSH1 0xE0 SHL PUSH1 0x0 MSTORE PUSH1 0x32 PUSH1 0x4 MSTORE PUSH1 0x24 PUSH1 0x0 REVERT JUMPDEST PUSH1 0x20 DUP1 DUP3 MSTORE PUSH1 0x21 SWAP1 DUP3 ADD MSTORE PUSH32 0x476F7665726E6F723A20696E76616C69642070726F706F73616C206C656E6774 PUSH1 0x40 DUP3 ADD MSTORE PUSH1 0xD PUSH1 0xFB SHL PUSH1 0x60 DUP3 ADD MSTORE PUSH1 0x80 ADD SWAP1 JUMP JUMPDEST DUP1 DUP3 ADD DUP1 DUP3 GT ISZERO PUSH2 0x869 JUMPI PUSH2 0x869 PUSH2 0x34CA JUMP JUMPDEST PUSH1 0x0 DUP2 MLOAD DUP1 DUP5 MSTORE PUSH1 0x20 DUP1 DUP6 ADD SWAP5 POP DUP1 DUP5 ADD PUSH1 0x0 JUMPDEST DUP4 DUP2 LT ISZERO PUSH2 0x32AE JUMPI DUP2 MLOAD PUSH1 0x1 PUSH1 0x1 PUSH1 0xA0 SHL SUB AND DUP8 MSTORE SWAP6 DUP3 ADD SWAP6 SWAP1 DUP3 ADD SWAP1 PUSH1 0x1 ADD PUSH2 0x3571 JUMP JUMPDEST PUSH1 0x0 DUP2 MLOAD DUP1 DUP5 MSTORE PUSH1 0x20 DUP1 DUP6 ADD DUP1 DUP2 SWAP7 POP DUP4 PUSH1 0x5 SHL DUP2 ADD SWAP2 POP DUP3 DUP7 ADD PUSH1 0x0 JUMPDEST DUP6 DUP2 LT ISZERO PUSH2 0x35DE JUMPI DUP3 DUP5 SUB DUP10 MSTORE PUSH2 0x35CC DUP5 DUP4 MLOAD PUSH2 0x2DB8 JUMP JUMPDEST SWAP9 DUP6 ADD SWAP9 SWAP4 POP SWAP1 DUP5 ADD SWAP1 PUSH1 0x1 ADD PUSH2 0x35B4 JUMP JUMPDEST POP SWAP2 SWAP8 SWAP7 POP POP POP POP POP POP POP JUMP JUMPDEST PUSH1 0x0 PUSH2 0x120 DUP12 DUP4 MSTORE PUSH1 0x20 PUSH1 0x1 DUP1 PUSH1 0xA0 SHL SUB DUP13 AND DUP2 DUP6 ADD MSTORE DUP2 PUSH1 0x40 DUP6 ADD MSTORE PUSH2 0x3614 DUP3 DUP6 ADD DUP13 PUSH2 0x355D JUMP JUMPDEST SWAP2 POP DUP4 DUP3 SUB PUSH1 0x60 DUP6 ADD MSTORE PUSH2 0x3628 DUP3 DUP12 PUSH2 0x327E JUMP JUMPDEST SWAP2 POP DUP4 DUP3 SUB PUSH1 0x80 DUP6 ADD MSTORE DUP2 DUP10 MLOAD DUP1 DUP5 MSTORE DUP3 DUP5 ADD SWAP2 POP DUP3 DUP2 PUSH1 0x5 SHL DUP6 ADD ADD DUP4 DUP13 ADD PUSH1 0x0 JUMPDEST DUP4 DUP2 LT ISZERO PUSH2 0x3679 JUMPI PUSH1 0x1F NOT DUP8 DUP5 SUB ADD DUP6 MSTORE PUSH2 0x3667 DUP4 DUP4 MLOAD PUSH2 0x2DB8 JUMP JUMPDEST SWAP5 DUP7 ADD SWAP5 SWAP3 POP SWAP1 DUP6 ADD SWAP1 PUSH1 0x1 ADD PUSH2 0x364B JUMP JUMPDEST POP POP DUP7 DUP2 SUB PUSH1 0xA0 DUP9 ADD MSTORE PUSH2 0x368D DUP2 DUP13 PUSH2 0x3596 JUMP JUMPDEST SWAP5 POP POP POP POP POP DUP6 PUSH1 0xC0 DUP5 ADD MSTORE DUP5 PUSH1 0xE0 DUP5 ADD MSTORE DUP3 DUP2 SUB PUSH2 0x100 DUP5 ADD MSTORE PUSH2 0x36B2 DUP2 DUP6 PUSH2 0x2DB8 JUMP JUMPDEST SWAP13 SWAP12 POP POP POP POP POP POP POP POP POP POP POP POP JUMP JUMPDEST PUSH1 0x0 PUSH1 0x20 DUP3 DUP5 SUB SLT ISZERO PUSH2 0x36D4 JUMPI PUSH1 0x0 DUP1 REVERT JUMPDEST DUP2 MLOAD PUSH6 0xFFFFFFFFFFFF DUP2 AND DUP2 EQ PUSH2 0x1548 JUMPI PUSH1 0x0 DUP1 REVERT JUMPDEST PUSH1 0x80 DUP2 MSTORE PUSH1 0x0 PUSH2 0x36FD PUSH1 0x80 DUP4 ADD DUP8 PUSH2 0x355D JUMP JUMPDEST DUP3 DUP2 SUB PUSH1 0x20 DUP5 ADD MSTORE PUSH2 0x370F DUP2 DUP8 PUSH2 0x327E JUMP JUMPDEST SWAP1 POP DUP3 DUP2 SUB PUSH1 0x40 DUP5 ADD MSTORE PUSH2 0x3723 DUP2 DUP7 PUSH2 0x3596 JUMP JUMPDEST SWAP2 POP POP DUP3 PUSH1 0x60 DUP4 ADD MSTORE SWAP6 SWAP5 POP POP POP POP POP JUMP JUMPDEST PUSH1 0x1F DUP3 GT ISZERO PUSH2 0x377B JUMPI PUSH1 0x0 DUP2 DUP2 MSTORE PUSH1 0x20 DUP2 KECCAK256 PUSH1 0x1F DUP6 ADD PUSH1 0x5 SHR DUP2 ADD PUSH1 0x20 DUP7 LT ISZERO PUSH2 0x375C JUMPI POP DUP1 JUMPDEST PUSH1 0x1F DUP6 ADD PUSH1 0x5 SHR DUP3 ADD SWAP2 POP JUMPDEST DUP2 DUP2 LT ISZERO PUSH2 0x1CB8 JUMPI DUP3 DUP2 SSTORE PUSH1 0x1 ADD PUSH2 0x3768 JUMP JUMPDEST POP POP POP JUMP JUMPDEST DUP2 MLOAD PUSH1 0x1 PUSH1 0x1 PUSH1 0x40 SHL SUB DUP2 GT ISZERO PUSH2 0x3799 JUMPI PUSH2 0x3799 PUSH2 0x2C0A JUMP JUMPDEST PUSH2 0x37AD DUP2 PUSH2 0x37A7 DUP5 SLOAD PUSH2 0x3423 JUMP JUMPDEST DUP5 PUSH2 0x3735 JUMP JUMPDEST PUSH1 0x20 DUP1 PUSH1 0x1F DUP4 GT PUSH1 0x1 DUP2 EQ PUSH2 0x37E2 JUMPI PUSH1 0x0 DUP5 ISZERO PUSH2 0x37CA JUMPI POP DUP6 DUP4 ADD MLOAD JUMPDEST PUSH1 0x0 NOT PUSH1 0x3 DUP7 SWAP1 SHL SHR NOT AND PUSH1 0x1 DUP6 SWAP1 SHL OR DUP6 SSTORE PUSH2 0x1CB8 JUMP JUMPDEST PUSH1 0x0 DUP6 DUP2 MSTORE PUSH1 0x20 DUP2 KECCAK256 PUSH1 0x1F NOT DUP7 AND SWAP2 JUMPDEST DUP3 DUP2 LT ISZERO PUSH2 0x3811 JUMPI DUP9 DUP7 ADD MLOAD DUP3 SSTORE SWAP5 DUP5 ADD SWAP5 PUSH1 0x1 SWAP1 SWAP2 ADD SWAP1 DUP5 ADD PUSH2 0x37F2 JUMP JUMPDEST POP DUP6 DUP3 LT ISZERO PUSH2 0x382F JUMPI DUP8 DUP6 ADD MLOAD PUSH1 0x0 NOT PUSH1 0x3 DUP9 SWAP1 SHL PUSH1 0xF8 AND SHR NOT AND DUP2 SSTORE JUMPDEST POP POP POP POP POP PUSH1 0x1 SWAP1 DUP2 SHL ADD SWAP1 SSTORE POP JUMP JUMPDEST DUP5 DUP2 MSTORE PUSH1 0xFF DUP5 AND PUSH1 0x20 DUP3 ADD MSTORE DUP3 PUSH1 0x40 DUP3 ADD MSTORE PUSH1 0x80 PUSH1 0x60 DUP3 ADD MSTORE PUSH1 0x0 PUSH2 0xE48 PUSH1 0x80 DUP4 ADD DUP5 PUSH2 0x2DB8 JUMP JUMPDEST DUP6 DUP2 MSTORE PUSH1 0xFF DUP6 AND PUSH1 0x20 DUP3 ADD MSTORE DUP4 PUSH1 0x40 DUP3 ADD MSTORE PUSH1 0xA0 PUSH1 0x60 DUP3 ADD MSTORE PUSH1 0x0 PUSH2 0x388F PUSH1 0xA0 DUP4 ADD DUP6 PUSH2 0x2DB8 JUMP JUMPDEST DUP3 DUP2 SUB PUSH1 0x80 DUP5 ADD MSTORE PUSH2 0x38A1 DUP2 DUP6 PUSH2 0x2DB8 JUMP JUMPDEST SWAP9 SWAP8 POP POP POP POP POP POP POP POP JUMP JUMPDEST PUSH1 0x0 PUSH1 0x1 DUP3 ADD PUSH2 0x38BF JUMPI PUSH2 0x38BF PUSH2 0x34CA JUMP JUMPDEST POP PUSH1 0x1 ADD SWAP1 JUMP JUMPDEST PUSH1 0x0 DUP3 MLOAD PUSH2 0x38D8 DUP2 DUP5 PUSH1 0x20 DUP8 ADD PUSH2 0x2D94 JUMP JUMPDEST SWAP2 SWAP1 SWAP2 ADD SWAP3 SWAP2 POP POP JUMP JUMPDEST PUSH1 0x0 PUSH1 0x20 DUP3 DUP5 SUB SLT ISZERO PUSH2 0x38F4 JUMPI PUSH1 0x0 DUP1 REVERT JUMPDEST POP MLOAD SWAP2 SWAP1 POP JUMP JUMPDEST DUP1 DUP3 MUL DUP2 ISZERO DUP3 DUP3 DIV DUP5 EQ OR PUSH2 0x869 JUMPI PUSH2 0x869 PUSH2 0x34CA JUMP JUMPDEST PUSH1 0x0 DUP3 PUSH2 0x392F JUMPI PUSH4 0x4E487B71 PUSH1 0xE0 SHL PUSH1 0x0 MSTORE PUSH1 0x12 PUSH1 0x4 MSTORE PUSH1 0x24 PUSH1 0x0 REVERT JUMPDEST POP DIV SWAP1 JUMP JUMPDEST DUP1 MLOAD PUSH1 0x20 DUP1 DUP4 ADD MLOAD SWAP2 SWAP1 DUP2 LT ISZERO PUSH2 0x3457 JUMPI PUSH1 0x0 NOT PUSH1 0x20 SWAP2 SWAP1 SWAP2 SUB PUSH1 0x3 SHL SHL AND SWAP2 SWAP1 POP JUMP INVALID SELFBALANCE PUSH16 0x7665726E6F723A2072656C6179207265 PUSH23 0x657274656420776974686F7574206D657373616765476F PUSH23 0x65726E6F723A2063616C6C207265766572746564207769 PUSH21 0x686F7574206D657373616765A26469706673582212 KECCAK256 0xED OR 0xE4 DUP15 0xD1 0xC6 SWAP12 DUP11 0xAA 0xDB MSTORE EXTCODESIZE 0xEF 0xBA DUP8 PUSH6 0x16037108A7D2 0xC8 CALLDATALOAD MULMOD 0xED 0x2C PUSH26 0xC65093B964736F6C634300081100330000000000000000000000 "},"gasEstimates":{"creation":{"codeDepositCost":"2962600","executionCost":"infinite","totalCost":"infinite"},"external":{"BALLOT_TYPEHASH()":"328","CLOCK_MODE()":"infinite","COUNTING_MODE()":"infinite","EXTENDED_BALLOT_TYPEHASH()":"307","cancel(address[],uint256[],bytes[],bytes32)":"infinite","cancel_(address[],uint256[],bytes[],bytes32)":"infinite","castVote(uint256,uint8)":"infinite","castVoteBySig(uint256,uint8,uint8,bytes32,bytes32)":"infinite","castVoteWithReason(uint256,uint8,string)":"infinite","castVoteWithReasonAndParams(uint256,uint8,string,bytes)":"infinite","castVoteWithReasonAndParamsBySig(uint256,uint8,string,bytes,uint8,bytes32,bytes32)":"infinite","clock()":"infinite","eip712Domain()":"infinite","execute(address[],uint256[],bytes[],bytes32)":"infinite","getVotes(address,uint256)":"infinite","getVotesWithParams(address,uint256,bytes)":"infinite","hasVoted(uint256,address)":"2739","hashProposal(address[],uint256[],bytes[],bytes32)":"infinite","name()":"infinite","proposalDeadline(uint256)":"2595","proposalSnapshot(uint256)":"2546","proposalThreshold()":"2441","proposalVotes(uint256)":"6752","propose(address[],uint256[],bytes[],string)":"infinite","quorum(uint256)":"infinite","quorumDenominator()":"237","quorumNumerator()":"6908","quorumNumerator(uint256)":"infinite","relay(address,uint256,bytes)":"infinite","setProposalThreshold(uint256)":"25911","setVotingDelay(uint256)":"25869","setVotingPeriod(uint256)":"25890","state(uint256)":"infinite","supportsInterface(bytes4)":"528","token()":"infinite","updateQuorumNumerator(uint256)":"infinite","version()":"infinite","votingDelay()":"2464","votingPeriod()":"2399"}},"methodIdentifiers":{"BALLOT_TYPEHASH()":"deaaa7cc","CLOCK_MODE()":"4bf5d7e9","COUNTING_MODE()":"dd4e2ba5","EXTENDED_BALLOT_TYPEHASH()":"2fe3e261","cancel(address[],uint256[],bytes[],bytes32)":"452115d6","cancel_(address[],uint256[],bytes[],bytes32)":"cd4265a5","castVote(uint256,uint8)":"56781388","castVoteBySig(uint256,uint8,uint8,bytes32,bytes32)":"3bccf4fd","castVoteWithReason(uint256,uint8,string)":"7b3c71d3","castVoteWithReasonAndParams(uint256,uint8,string,bytes)":"5f398a14","castVoteWithReasonAndParamsBySig(uint256,uint8,string,bytes,uint8,bytes32,bytes32)":"03420181","clock()":"91ddadf4","eip712Domain()":"84b0196e","execute(address[],uint256[],bytes[],bytes32)":"2656227d","getVotes(address,uint256)":"eb9019d4","getVotesWithParams(address,uint256,bytes)":"9a802a6d","hasVoted(uint256,address)":"43859632","hashProposal(address[],uint256[],bytes[],bytes32)":"c59057e4","name()":"06fdde03","proposalDeadline(uint256)":"c01f9e37","proposalSnapshot(uint256)":"2d63f693","proposalThreshold()":"b58131b0","proposalVotes(uint256)":"544ffc9c","propose(address[],uint256[],bytes[],string)":"7d5e81e2","quorum(uint256)":"f8ce560a","quorumDenominator()":"97c3d334","quorumNumerator()":"a7713a70","quorumNumerator(uint256)":"60c4247f","relay(address,uint256,bytes)":"c28bc2fa","setProposalThreshold(uint256)":"ece40cc1","setVotingDelay(uint256)":"70b0f660","setVotingPeriod(uint256)":"ea0217cf","state(uint256)":"3e4f49e6","supportsInterface(bytes4)":"01ffc9a7","token()":"fc0c546a","updateQuorumNumerator(uint256)":"06f3f9e6","version()":"54fd4d50","votingDelay()":"3932abb1","votingPeriod()":"02a251a3"}},"storageLayout":{"storage":[{"astId":5092,"contract":"contracts/Ink_Governor.sol:Ink_Governor","label":"_nameFallback","offset":0,"slot":"0","type":"t_string_storage"},{"astId":5094,"contract":"contracts/Ink_Governor.sol:Ink_Governor","label":"_versionFallback","offset":0,"slot":"1","type":"t_string_storage"},{"astId":170,"contract":"contracts/Ink_Governor.sol:Ink_Governor","label":"_name","offset":0,"slot":"2","type":"t_string_storage"},{"astId":175,"contract":"contracts/Ink_Governor.sol:Ink_Governor","label":"_proposals","offset":0,"slot":"3","type":"t_mapping(t_uint256,t_struct(ProposalCore)168_storage)"},{"astId":178,"contract":"contracts/Ink_Governor.sol:Ink_Governor","label":"_governanceCall","offset":0,"slot":"4","type":"t_struct(Bytes32Deque)7722_storage"},{"astId":1940,"contract":"contracts/Ink_Governor.sol:Ink_Governor","label":"_votingDelay","offset":0,"slot":"6","type":"t_uint256"},{"astId":1942,"contract":"contracts/Ink_Governor.sol:Ink_Governor","label":"_votingPeriod","offset":0,"slot":"7","type":"t_uint256"},{"astId":1944,"contract":"contracts/Ink_Governor.sol:Ink_Governor","label":"_proposalThreshold","offset":0,"slot":"8","type":"t_uint256"},{"astId":1732,"contract":"contracts/Ink_Governor.sol:Ink_Governor","label":"_proposalVotes","offset":0,"slot":"9","type":"t_mapping(t_uint256,t_struct(ProposalVote)1727_storage)"},{"astId":2222,"contract":"contracts/Ink_Governor.sol:Ink_Governor","label":"_quorumNumerator","offset":0,"slot":"10","type":"t_uint256"},{"astId":2225,"contract":"contracts/Ink_Governor.sol:Ink_Governor","label":"_quorumNumeratorHistory","offset":0,"slot":"11","type":"t_struct(History)2863_storage"}],"types":{"t_address":{"encoding":"inplace","label":"address","numberOfBytes":"20"},"t_array(t_struct(Checkpoint)2868_storage)dyn_storage":{"base":"t_struct(Checkpoint)2868_storage","encoding":"dynamic_array","label":"struct Checkpoints.Checkpoint[]","numberOfBytes":"32"},"t_bool":{"encoding":"inplace","label":"bool","numberOfBytes":"1"},"t_bytes24":{"encoding":"inplace","label":"bytes24","numberOfBytes":"24"},"t_bytes32":{"encoding":"inplace","label":"bytes32","numberOfBytes":"32"},"t_bytes4":{"encoding":"inplace","label":"bytes4","numberOfBytes":"4"},"t_int128":{"encoding":"inplace","label":"int128","numberOfBytes":"16"},"t_mapping(t_address,t_bool)":{"encoding":"mapping","key":"t_address","label":"mapping(address => bool)","numberOfBytes":"32","value":"t_bool"},"t_mapping(t_int128,t_bytes32)":{"encoding":"mapping","key":"t_int128","label":"mapping(int128 => bytes32)","numberOfBytes":"32","value":"t_bytes32"},"t_mapping(t_uint256,t_struct(ProposalCore)168_storage)":{"encoding":"mapping","key":"t_uint256","label":"mapping(uint256 => struct Governor.ProposalCore)","numberOfBytes":"32","value":"t_struct(ProposalCore)168_storage"},"t_mapping(t_uint256,t_struct(ProposalVote)1727_storage)":{"encoding":"mapping","key":"t_uint256","label":"mapping(uint256 => struct GovernorCountingSimple.ProposalVote)","numberOfBytes":"32","value":"t_struct(ProposalVote)1727_storage"},"t_string_storage":{"encoding":"bytes","label":"string","numberOfBytes":"32"},"t_struct(Bytes32Deque)7722_storage":{"encoding":"inplace","label":"struct DoubleEndedQueue.Bytes32Deque","members":[{"astId":7715,"contract":"contracts/Ink_Governor.sol:Ink_Governor","label":"_begin","offset":0,"slot":"0","type":"t_int128"},{"astId":7717,"contract":"contracts/Ink_Governor.sol:Ink_Governor","label":"_end","offset":16,"slot":"0","type":"t_int128"},{"astId":7721,"contract":"contracts/Ink_Governor.sol:Ink_Governor","label":"_data","offset":0,"slot":"1","type":"t_mapping(t_int128,t_bytes32)"}],"numberOfBytes":"64"},"t_struct(Checkpoint)2868_storage":{"encoding":"inplace","label":"struct Checkpoints.Checkpoint","members":[{"astId":2865,"contract":"contracts/Ink_Governor.sol:Ink_Governor","label":"_blockNumber","offset":0,"slot":"0","type":"t_uint32"},{"astId":2867,"contract":"contracts/Ink_Governor.sol:Ink_Governor","label":"_value","offset":4,"slot":"0","type":"t_uint224"}],"numberOfBytes":"32"},"t_struct(History)2863_storage":{"encoding":"inplace","label":"struct Checkpoints.History","members":[{"astId":2862,"contract":"contracts/Ink_Governor.sol:Ink_Governor","label":"_checkpoints","offset":0,"slot":"0","type":"t_array(t_struct(Checkpoint)2868_storage)dyn_storage"}],"numberOfBytes":"32"},"t_struct(ProposalCore)168_storage":{"encoding":"inplace","label":"struct Governor.ProposalCore","members":[{"astId":155,"contract":"contracts/Ink_Governor.sol:Ink_Governor","label":"voteStart","offset":0,"slot":"0","type":"t_uint64"},{"astId":157,"contract":"contracts/Ink_Governor.sol:Ink_Governor","label":"proposer","offset":8,"slot":"0","type":"t_address"},{"astId":159,"contract":"contracts/Ink_Governor.sol:Ink_Governor","label":"__gap_unused0","offset":28,"slot":"0","type":"t_bytes4"},{"astId":161,"contract":"contracts/Ink_Governor.sol:Ink_Governor","label":"voteEnd","offset":0,"slot":"1","type":"t_uint64"},{"astId":163,"contract":"contracts/Ink_Governor.sol:Ink_Governor","label":"__gap_unused1","offset":8,"slot":"1","type":"t_bytes24"},{"astId":165,"contract":"contracts/Ink_Governor.sol:Ink_Governor","label":"executed","offset":0,"slot":"2","type":"t_bool"},{"astId":167,"contract":"contracts/Ink_Governor.sol:Ink_Governor","label":"canceled","offset":1,"slot":"2","type":"t_bool"}],"numberOfBytes":"96"},"t_struct(ProposalVote)1727_storage":{"encoding":"inplace","label":"struct GovernorCountingSimple.ProposalVote","members":[{"astId":1718,"contract":"contracts/Ink_Governor.sol:Ink_Governor","label":"againstVotes","offset":0,"slot":"0","type":"t_uint256"},{"astId":1720,"contract":"contracts/Ink_Governor.sol:Ink_Governor","label":"forVotes","offset":0,"slot":"1","type":"t_uint256"},{"astId":1722,"contract":"contracts/Ink_Governor.sol:Ink_Governor","label":"abstainVotes","offset":0,"slot":"2","type":"t_uint256"},{"astId":1726,"contract":"contracts/Ink_Governor.sol:Ink_Governor","label":"hasVoted","offset":0,"slot":"3","type":"t_mapping(t_address,t_bool)"}],"numberOfBytes":"128"},"t_uint224":{"encoding":"inplace","label":"uint224","numberOfBytes":"28"},"t_uint256":{"encoding":"inplace","label":"uint256","numberOfBytes":"32"},"t_uint32":{"encoding":"inplace","label":"uint32","numberOfBytes":"4"},"t_uint64":{"encoding":"inplace","label":"uint64","numberOfBytes":"8"}}},"userdoc":{"kind":"user","methods":{"getVotes(address,uint256)":{"notice":"module:reputation"},"getVotesWithParams(address,uint256,bytes)":{"notice":"module:reputation"},"hashProposal(address[],uint256[],bytes[],bytes32)":{"notice":"module:core"},"name()":{"notice":"module:core"},"proposalDeadline(uint256)":{"notice":"module:core"},"proposalSnapshot(uint256)":{"notice":"module:core"},"state(uint256)":{"notice":"module:core"},"version()":{"notice":"module:core"}},"version":1}}}}