{
  "address": "0x44863F234b137A395e5c98359d16057A9A1fAc55",
  "abi": [
    {
      "inputs": [],
      "stateMutability": "nonpayable",
      "type": "constructor"
    },
    {
      "inputs": [
        {
          "internalType": "string",
          "name": "str",
          "type": "string"
        }
      ],
      "name": "StringTooLong",
      "type": "error"
    },
    {
      "anonymous": false,
      "inputs": [
        {
          "indexed": true,
          "internalType": "address",
          "name": "owner",
          "type": "address"
        },
        {
          "indexed": true,
          "internalType": "address",
          "name": "spender",
          "type": "address"
        },
        {
          "indexed": false,
          "internalType": "uint256",
          "name": "value",
          "type": "uint256"
        }
      ],
      "name": "Approval",
      "type": "event"
    },
    {
      "anonymous": false,
      "inputs": [
        {
          "indexed": true,
          "internalType": "address",
          "name": "to",
          "type": "address"
        },
        {
          "indexed": false,
          "internalType": "uint256",
          "name": "_amount",
          "type": "uint256"
        }
      ],
      "name": "Burn",
      "type": "event"
    },
    {
      "anonymous": false,
      "inputs": [
        {
          "indexed": true,
          "internalType": "address",
          "name": "delegator",
          "type": "address"
        },
        {
          "indexed": true,
          "internalType": "address",
          "name": "fromDelegate",
          "type": "address"
        },
        {
          "indexed": true,
          "internalType": "address",
          "name": "toDelegate",
          "type": "address"
        }
      ],
      "name": "DelegateChanged",
      "type": "event"
    },
    {
      "anonymous": false,
      "inputs": [
        {
          "indexed": true,
          "internalType": "address",
          "name": "delegate",
          "type": "address"
        },
        {
          "indexed": false,
          "internalType": "uint256",
          "name": "previousBalance",
          "type": "uint256"
        },
        {
          "indexed": false,
          "internalType": "uint256",
          "name": "newBalance",
          "type": "uint256"
        }
      ],
      "name": "DelegateVotesChanged",
      "type": "event"
    },
    {
      "anonymous": false,
      "inputs": [],
      "name": "EIP712DomainChanged",
      "type": "event"
    },
    {
      "anonymous": false,
      "inputs": [
        {
          "indexed": true,
          "internalType": "address",
          "name": "to",
          "type": "address"
        },
        {
          "indexed": false,
          "internalType": "uint256",
          "name": "_amount",
          "type": "uint256"
        }
      ],
      "name": "Mint",
      "type": "event"
    },
    {
      "anonymous": false,
      "inputs": [
        {
          "indexed": true,
          "internalType": "address",
          "name": "previousOwner",
          "type": "address"
        },
        {
          "indexed": true,
          "internalType": "address",
          "name": "newOwner",
          "type": "address"
        }
      ],
      "name": "OwnershipTransferred",
      "type": "event"
    },
    {
      "anonymous": false,
      "inputs": [
        {
          "indexed": false,
          "internalType": "address",
          "name": "account",
          "type": "address"
        }
      ],
      "name": "Paused",
      "type": "event"
    },
    {
      "anonymous": false,
      "inputs": [
        {
          "indexed": true,
          "internalType": "address",
          "name": "from",
          "type": "address"
        },
        {
          "indexed": true,
          "internalType": "address",
          "name": "to",
          "type": "address"
        },
        {
          "indexed": false,
          "internalType": "uint256",
          "name": "value",
          "type": "uint256"
        }
      ],
      "name": "Transfer",
      "type": "event"
    },
    {
      "anonymous": false,
      "inputs": [
        {
          "indexed": false,
          "internalType": "address",
          "name": "account",
          "type": "address"
        }
      ],
      "name": "Unpaused",
      "type": "event"
    },
    {
      "inputs": [],
      "name": "CLOCK_MODE",
      "outputs": [
        {
          "internalType": "string",
          "name": "",
          "type": "string"
        }
      ],
      "stateMutability": "view",
      "type": "function"
    },
    {
      "inputs": [],
      "name": "DOMAIN_SEPARATOR",
      "outputs": [
        {
          "internalType": "bytes32",
          "name": "",
          "type": "bytes32"
        }
      ],
      "stateMutability": "view",
      "type": "function"
    },
    {
      "inputs": [
        {
          "internalType": "address",
          "name": "owner",
          "type": "address"
        },
        {
          "internalType": "address",
          "name": "spender",
          "type": "address"
        }
      ],
      "name": "allowance",
      "outputs": [
        {
          "internalType": "uint256",
          "name": "",
          "type": "uint256"
        }
      ],
      "stateMutability": "view",
      "type": "function"
    },
    {
      "inputs": [
        {
          "internalType": "address",
          "name": "spender",
          "type": "address"
        },
        {
          "internalType": "uint256",
          "name": "amount",
          "type": "uint256"
        }
      ],
      "name": "approve",
      "outputs": [
        {
          "internalType": "bool",
          "name": "",
          "type": "bool"
        }
      ],
      "stateMutability": "nonpayable",
      "type": "function"
    },
    {
      "inputs": [
        {
          "internalType": "address",
          "name": "account",
          "type": "address"
        }
      ],
      "name": "balanceOf",
      "outputs": [
        {
          "internalType": "uint256",
          "name": "",
          "type": "uint256"
        }
      ],
      "stateMutability": "view",
      "type": "function"
    },
    {
      "inputs": [
        {
          "internalType": "address",
          "name": "to",
          "type": "address"
        },
        {
          "internalType": "uint256",
          "name": "amount",
          "type": "uint256"
        }
      ],
      "name": "burn",
      "outputs": [],
      "stateMutability": "nonpayable",
      "type": "function"
    },
    {
      "inputs": [
        {
          "internalType": "address",
          "name": "account",
          "type": "address"
        },
        {
          "internalType": "uint32",
          "name": "pos",
          "type": "uint32"
        }
      ],
      "name": "checkpoints",
      "outputs": [
        {
          "components": [
            {
              "internalType": "uint32",
              "name": "fromBlock",
              "type": "uint32"
            },
            {
              "internalType": "uint224",
              "name": "votes",
              "type": "uint224"
            }
          ],
          "internalType": "struct ERC20Votes.Checkpoint",
          "name": "",
          "type": "tuple"
        }
      ],
      "stateMutability": "view",
      "type": "function"
    },
    {
      "inputs": [],
      "name": "clock",
      "outputs": [
        {
          "internalType": "uint48",
          "name": "",
          "type": "uint48"
        }
      ],
      "stateMutability": "view",
      "type": "function"
    },
    {
      "inputs": [],
      "name": "decimals",
      "outputs": [
        {
          "internalType": "uint8",
          "name": "",
          "type": "uint8"
        }
      ],
      "stateMutability": "view",
      "type": "function"
    },
    {
      "inputs": [
        {
          "internalType": "address",
          "name": "spender",
          "type": "address"
        },
        {
          "internalType": "uint256",
          "name": "subtractedValue",
          "type": "uint256"
        }
      ],
      "name": "decreaseAllowance",
      "outputs": [
        {
          "internalType": "bool",
          "name": "",
          "type": "bool"
        }
      ],
      "stateMutability": "nonpayable",
      "type": "function"
    },
    {
      "inputs": [
        {
          "internalType": "address",
          "name": "delegatee",
          "type": "address"
        }
      ],
      "name": "delegate",
      "outputs": [],
      "stateMutability": "nonpayable",
      "type": "function"
    },
    {
      "inputs": [
        {
          "internalType": "address",
          "name": "delegatee",
          "type": "address"
        },
        {
          "internalType": "uint256",
          "name": "nonce",
          "type": "uint256"
        },
        {
          "internalType": "uint256",
          "name": "expiry",
          "type": "uint256"
        },
        {
          "internalType": "uint8",
          "name": "v",
          "type": "uint8"
        },
        {
          "internalType": "bytes32",
          "name": "r",
          "type": "bytes32"
        },
        {
          "internalType": "bytes32",
          "name": "s",
          "type": "bytes32"
        }
      ],
      "name": "delegateBySig",
      "outputs": [],
      "stateMutability": "nonpayable",
      "type": "function"
    },
    {
      "inputs": [
        {
          "internalType": "address",
          "name": "account",
          "type": "address"
        }
      ],
      "name": "delegates",
      "outputs": [
        {
          "internalType": "address",
          "name": "",
          "type": "address"
        }
      ],
      "stateMutability": "view",
      "type": "function"
    },
    {
      "inputs": [],
      "name": "eip712Domain",
      "outputs": [
        {
          "internalType": "bytes1",
          "name": "fields",
          "type": "bytes1"
        },
        {
          "internalType": "string",
          "name": "name",
          "type": "string"
        },
        {
          "internalType": "string",
          "name": "version",
          "type": "string"
        },
        {
          "internalType": "uint256",
          "name": "chainId",
          "type": "uint256"
        },
        {
          "internalType": "address",
          "name": "verifyingContract",
          "type": "address"
        },
        {
          "internalType": "bytes32",
          "name": "salt",
          "type": "bytes32"
        },
        {
          "internalType": "uint256[]",
          "name": "extensions",
          "type": "uint256[]"
        }
      ],
      "stateMutability": "view",
      "type": "function"
    },
    {
      "inputs": [
        {
          "internalType": "uint256",
          "name": "timepoint",
          "type": "uint256"
        }
      ],
      "name": "getPastTotalSupply",
      "outputs": [
        {
          "internalType": "uint256",
          "name": "",
          "type": "uint256"
        }
      ],
      "stateMutability": "view",
      "type": "function"
    },
    {
      "inputs": [
        {
          "internalType": "address",
          "name": "account",
          "type": "address"
        },
        {
          "internalType": "uint256",
          "name": "timepoint",
          "type": "uint256"
        }
      ],
      "name": "getPastVotes",
      "outputs": [
        {
          "internalType": "uint256",
          "name": "",
          "type": "uint256"
        }
      ],
      "stateMutability": "view",
      "type": "function"
    },
    {
      "inputs": [
        {
          "internalType": "address",
          "name": "account",
          "type": "address"
        }
      ],
      "name": "getVotes",
      "outputs": [
        {
          "internalType": "uint256",
          "name": "",
          "type": "uint256"
        }
      ],
      "stateMutability": "view",
      "type": "function"
    },
    {
      "inputs": [
        {
          "internalType": "address",
          "name": "spender",
          "type": "address"
        },
        {
          "internalType": "uint256",
          "name": "addedValue",
          "type": "uint256"
        }
      ],
      "name": "increaseAllowance",
      "outputs": [
        {
          "internalType": "bool",
          "name": "",
          "type": "bool"
        }
      ],
      "stateMutability": "nonpayable",
      "type": "function"
    },
    {
      "inputs": [
        {
          "internalType": "address",
          "name": "to",
          "type": "address"
        },
        {
          "internalType": "uint256",
          "name": "amount",
          "type": "uint256"
        }
      ],
      "name": "mint",
      "outputs": [],
      "stateMutability": "nonpayable",
      "type": "function"
    },
    {
      "inputs": [],
      "name": "name",
      "outputs": [
        {
          "internalType": "string",
          "name": "",
          "type": "string"
        }
      ],
      "stateMutability": "view",
      "type": "function"
    },
    {
      "inputs": [
        {
          "internalType": "address",
          "name": "owner",
          "type": "address"
        }
      ],
      "name": "nonces",
      "outputs": [
        {
          "internalType": "uint256",
          "name": "",
          "type": "uint256"
        }
      ],
      "stateMutability": "view",
      "type": "function"
    },
    {
      "inputs": [
        {
          "internalType": "address",
          "name": "account",
          "type": "address"
        }
      ],
      "name": "numCheckpoints",
      "outputs": [
        {
          "internalType": "uint32",
          "name": "",
          "type": "uint32"
        }
      ],
      "stateMutability": "view",
      "type": "function"
    },
    {
      "inputs": [],
      "name": "owner",
      "outputs": [
        {
          "internalType": "address",
          "name": "",
          "type": "address"
        }
      ],
      "stateMutability": "view",
      "type": "function"
    },
    {
      "inputs": [],
      "name": "paused",
      "outputs": [
        {
          "internalType": "bool",
          "name": "",
          "type": "bool"
        }
      ],
      "stateMutability": "view",
      "type": "function"
    },
    {
      "inputs": [
        {
          "internalType": "address",
          "name": "owner",
          "type": "address"
        },
        {
          "internalType": "address",
          "name": "spender",
          "type": "address"
        },
        {
          "internalType": "uint256",
          "name": "value",
          "type": "uint256"
        },
        {
          "internalType": "uint256",
          "name": "deadline",
          "type": "uint256"
        },
        {
          "internalType": "uint8",
          "name": "v",
          "type": "uint8"
        },
        {
          "internalType": "bytes32",
          "name": "r",
          "type": "bytes32"
        },
        {
          "internalType": "bytes32",
          "name": "s",
          "type": "bytes32"
        }
      ],
      "name": "permit",
      "outputs": [],
      "stateMutability": "nonpayable",
      "type": "function"
    },
    {
      "inputs": [],
      "name": "renounceOwnership",
      "outputs": [],
      "stateMutability": "nonpayable",
      "type": "function"
    },
    {
      "inputs": [],
      "name": "symbol",
      "outputs": [
        {
          "internalType": "string",
          "name": "",
          "type": "string"
        }
      ],
      "stateMutability": "view",
      "type": "function"
    },
    {
      "inputs": [],
      "name": "totalSupply",
      "outputs": [
        {
          "internalType": "uint256",
          "name": "",
          "type": "uint256"
        }
      ],
      "stateMutability": "view",
      "type": "function"
    },
    {
      "inputs": [
        {
          "internalType": "address",
          "name": "to",
          "type": "address"
        },
        {
          "internalType": "uint256",
          "name": "amount",
          "type": "uint256"
        }
      ],
      "name": "transfer",
      "outputs": [
        {
          "internalType": "bool",
          "name": "",
          "type": "bool"
        }
      ],
      "stateMutability": "nonpayable",
      "type": "function"
    },
    {
      "inputs": [
        {
          "internalType": "address",
          "name": "from",
          "type": "address"
        },
        {
          "internalType": "address",
          "name": "to",
          "type": "address"
        },
        {
          "internalType": "uint256",
          "name": "amount",
          "type": "uint256"
        }
      ],
      "name": "transferFrom",
      "outputs": [
        {
          "internalType": "bool",
          "name": "",
          "type": "bool"
        }
      ],
      "stateMutability": "nonpayable",
      "type": "function"
    },
    {
      "inputs": [
        {
          "internalType": "address",
          "name": "newOwner",
          "type": "address"
        }
      ],
      "name": "transferOwnership",
      "outputs": [],
      "stateMutability": "nonpayable",
      "type": "function"
    }
  ],
  "transactionHash": "0x006d56c93b5ff00096c894a8cdbdda71c69fdb8745b5b5c165ca4258e982964e",
  "args": [],
  "numDeployments": 1,
  "solcInputHash": "007a533aaaf098dea181c2606269c48e",
  "bytecode": "0x6101606040523480156200001257600080fd5b50604080518082018252600980825268496e6b5f566f74657360b81b60208084018290528451808601865260018152603160f81b8183015285518087018752938452838201929092528451808601909552600385526249544b60e81b908501526000805460ff1916905591928392919060046200009083826200031a565b5060056200009f82826200031a565b505050620000bd6006836200018460201b62000d6e1790919060201c565b60e052620000d981600762000184602090811b62000d6e17901c565b61010052815160208084019190912061012052815190820120610140524660a052620001696101205161014051604080517f8b73c3c69bb8fe3d512ecc4cf759cc79239f7b179b0ffacaa9a75d522b39400f60208201529081019290925260608201524660808201523060a082015260009060c00160405160208183030381529060405280519060200120905090565b60805250503060c052506200017e33620001d4565b6200045b565b6000602083511015620001a4576200019c8362000226565b9050620001ce565b82620001bb836200027260201b62000d9f1760201c565b90620001c890826200031a565b50600090505b92915050565b600a80546001600160a01b038381166001600160a01b0319831681179093556040519116919082907f8be0079c531659141344cd1fd0a4f28419497f9722a3daafe3b4186f6b6457e090600090a35050565b600080829050601f815111156200025d578260405163305a27a960e01b8152600401620002549190620003e6565b60405180910390fd5b80516200026a8262000436565b179392505050565b90565b634e487b7160e01b600052604160045260246000fd5b600181811c90821680620002a057607f821691505b602082108103620002c157634e487b7160e01b600052602260045260246000fd5b50919050565b601f8211156200031557600081815260208120601f850160051c81016020861015620002f05750805b601f850160051c820191505b818110156200031157828155600101620002fc565b5050505b505050565b81516001600160401b0381111562000336576200033662000275565b6200034e816200034784546200028b565b84620002c7565b602080601f8311600181146200038657600084156200036d5750858301515b600019600386901b1c1916600185901b17855562000311565b600085815260208120601f198616915b82811015620003b75788860151825594840194600190910190840162000396565b5085821015620003d65787850151600019600388901b60f8161c191681555b5050505050600190811b01905550565b600060208083528351808285015260005b818110156200041557858101830151858201604001528201620003f7565b506000604082860101526040601f19601f8301168501019250505092915050565b80516020808301519190811015620002c15760001960209190910360031b1b16919050565b60805160a05160c05160e051610100516101205161014051612644620004b660003960006111d6015260006111ae015260006107860152600061075b01526000611109015260006111330152600061115d01526126446000f3fe608060405234801561001057600080fd5b50600436106101e55760003560e01c8063715018a61161010f5780639dc29fac116100a2578063d505accf11610071578063d505accf1461043d578063dd62ed3e14610450578063f1127ed814610463578063f2fde38b146104a057600080fd5b80639dc29fac146103f1578063a457c2d714610404578063a9059cbb14610417578063c3cda5201461042a57600080fd5b80638e539e8c116100de5780638e539e8c146103a457806391ddadf4146103b757806395d89b41146103d65780639ab24eb0146103de57600080fd5b8063715018a61461035d5780637ecebe001461036557806384b0196e146103785780638da5cb5b1461039357600080fd5b80633a46b1a8116101875780635c19a95c116101565780635c19a95c146102ee5780635c975abb146103015780636fcfff451461030c57806370a082311461033457600080fd5b80633a46b1a81461027a57806340c10f191461028d5780634bf5d7e9146102a2578063587cde1e146102aa57600080fd5b806323b872dd116101c357806323b872dd1461023d578063313ce567146102505780633644e5151461025f578063395093511461026757600080fd5b806306fdde03146101ea578063095ea7b31461020857806318160ddd1461022b575b600080fd5b6101f26104b3565b6040516101ff919061214d565b60405180910390f35b61021b61021636600461217c565b610545565b60405190151581526020016101ff565b6003545b6040519081526020016101ff565b61021b61024b3660046121a6565b61055f565b604051601281526020016101ff565b61022f610583565b61021b61027536600461217c565b610592565b61022f61028836600461217c565b6105b4565b6102a061029b36600461217c565b61063e565b005b6101f2610697565b6102d66102b83660046121e2565b6001600160a01b039081166000908152600b60205260409020541690565b6040516001600160a01b0390911681526020016101ff565b6102a06102fc3660046121e2565b6106ec565b60005460ff1661021b565b61031f61031a3660046121e2565b6106f9565b60405163ffffffff90911681526020016101ff565b61022f6103423660046121e2565b6001600160a01b031660009081526001602052604090205490565b6102a061071b565b61022f6103733660046121e2565b61072f565b61038061074d565b6040516101ff97969594939291906121fd565b600a546001600160a01b03166102d6565b61022f6103b2366004612293565b6107d6565b6103bf61083d565b60405165ffffffffffff90911681526020016101ff565b6101f2610848565b61022f6103ec3660046121e2565b610857565b6102a06103ff36600461217c565b6108d9565b61021b61041236600461217c565b610926565b61021b61042536600461217c565b6109a1565b6102a06104383660046122bd565b6109af565b6102a061044b366004612315565b610ae5565b61022f61045e36600461237f565b610c49565b6104766104713660046123b2565b610c74565b60408051825163ffffffff1681526020928301516001600160e01b031692810192909252016101ff565b6102a06104ae3660046121e2565b610cf8565b6060600480546104c2906123f2565b80601f01602080910402602001604051908101604052809291908181526020018280546104ee906123f2565b801561053b5780601f106105105761010080835404028352916020019161053b565b820191906000526020600020905b81548152906001019060200180831161051e57829003601f168201915b5050505050905090565b600033610553818585610da2565b60019150505b92915050565b60003361056d858285610ec6565b610578858585610f40565b506001949350505050565b600061058d6110fc565b905090565b6000336105538185856105a58383610c49565b6105af919061243c565b610da2565b60006105be61083d565b65ffffffffffff1682106106155760405162461bcd60e51b815260206004820152601960248201527804552433230566f7465733a20667574757265206c6f6f6b757603c1b60448201526064015b60405180910390fd5b6001600160a01b0383166000908152600c602052604090206106379083611227565b9392505050565b610646611310565b610650828261136a565b816001600160a01b03167f0f6798a560793a54c3bcfe86a93cde1e73087d944c0ea20544137d41213968858260405161068b91815260200190565b60405180910390a25050565b6060436106a261083d565b65ffffffffffff16146106b457600080fd5b5060408051808201909152601d81527f6d6f64653d626c6f636b6e756d6265722666726f6d3d64656661756c74000000602082015290565b6106f63382611378565b50565b6001600160a01b0381166000908152600c6020526040812054610559906113f2565b610723611310565b61072d600061145b565b565b6001600160a01b038116600090815260086020526040812054610559565b6000606080828080836107817f000000000000000000000000000000000000000000000000000000000000000060066114ad565b6107ac7f000000000000000000000000000000000000000000000000000000000000000060076114ad565b60408051600080825260208201909252600f60f81b9b939a50919850469750309650945092509050565b60006107e061083d565b65ffffffffffff1682106108325760405162461bcd60e51b815260206004820152601960248201527804552433230566f7465733a20667574757265206c6f6f6b757603c1b604482015260640161060c565b610559600d83611227565b600061058d43611552565b6060600580546104c2906123f2565b6001600160a01b0381166000908152600c602052604081205480156108c6576001600160a01b0383166000908152600c60205260409020805460001983019081106108a4576108a4612465565b60009182526020909120015464010000000090046001600160e01b03166108c9565b60005b6001600160e01b03169392505050565b6108e1611310565b6108eb82826115b9565b816001600160a01b03167fcc16f5dbb4873280815c1ee09dbd06736cffcc184412cf7a71a0fdb75d397ca58260405161068b91815260200190565b600033816109348286610c49565b9050838110156109945760405162461bcd60e51b815260206004820152602560248201527f45524332303a2064656372656173656420616c6c6f77616e63652062656c6f77604482015264207a65726f60d81b606482015260840161060c565b6105788286868403610da2565b600033610553818585610f40565b834211156109ff5760405162461bcd60e51b815260206004820152601d60248201527f4552433230566f7465733a207369676e61747572652065787069726564000000604482015260640161060c565b604080517fe48329057bfd03d55e49b547132e39cffd9c1820ad7b9d4c5307691425d15adf60208201526001600160a01b038816918101919091526060810186905260808101859052600090610a7990610a719060a001604051602081830303815290604052805190602001206115c3565b8585856115f0565b9050610a8481611618565b8614610ad25760405162461bcd60e51b815260206004820152601960248201527f4552433230566f7465733a20696e76616c6964206e6f6e636500000000000000604482015260640161060c565b610adc8188611378565b50505050505050565b83421115610b355760405162461bcd60e51b815260206004820152601d60248201527f45524332305065726d69743a206578706972656420646561646c696e65000000604482015260640161060c565b60007f6e71edae12b1b97f4d1f60370fef10105fa2faae0126114a169c64845d6126c9888888610b648c611618565b6040805160208101969096526001600160a01b0394851690860152929091166060840152608083015260a082015260c0810186905260e0016040516020818303038152906040528051906020012090506000610bbf826115c3565b90506000610bcf828787876115f0565b9050896001600160a01b0316816001600160a01b031614610c325760405162461bcd60e51b815260206004820152601e60248201527f45524332305065726d69743a20696e76616c6964207369676e61747572650000604482015260640161060c565b610c3d8a8a8a610da2565b50505050505050505050565b6001600160a01b03918216600090815260026020908152604080832093909416825291909152205490565b60408051808201909152600080825260208201526001600160a01b0383166000908152600c60205260409020805463ffffffff8416908110610cb857610cb8612465565b60009182526020918290206040805180820190915291015463ffffffff8116825264010000000090046001600160e01b0316918101919091529392505050565b610d00611310565b6001600160a01b038116610d655760405162461bcd60e51b815260206004820152602660248201527f4f776e61626c653a206e6577206f776e657220697320746865207a65726f206160448201526564647265737360d01b606482015260840161060c565b6106f68161145b565b6000602083511015610d8a57610d8383611640565b9050610559565b81610d9584826124c9565b5060009050610559565b90565b6001600160a01b038316610e045760405162461bcd60e51b8152602060048201526024808201527f45524332303a20617070726f76652066726f6d20746865207a65726f206164646044820152637265737360e01b606482015260840161060c565b6001600160a01b038216610e655760405162461bcd60e51b815260206004820152602260248201527f45524332303a20617070726f766520746f20746865207a65726f206164647265604482015261737360f01b606482015260840161060c565b6001600160a01b0383811660008181526002602090815260408083209487168084529482529182902085905590518481527f8c5be1e5ebec7d5bd14f71427d1e84f3dd0314c0f7b2291e5b200ac8c7c3b925910160405180910390a3505050565b6000610ed28484610c49565b90506000198114610f3a5781811015610f2d5760405162461bcd60e51b815260206004820152601d60248201527f45524332303a20696e73756666696369656e7420616c6c6f77616e6365000000604482015260640161060c565b610f3a8484848403610da2565b50505050565b6001600160a01b038316610fa45760405162461bcd60e51b815260206004820152602560248201527f45524332303a207472616e736665722066726f6d20746865207a65726f206164604482015264647265737360d81b606482015260840161060c565b6001600160a01b0382166110065760405162461bcd60e51b815260206004820152602360248201527f45524332303a207472616e7366657220746f20746865207a65726f206164647260448201526265737360e81b606482015260840161060c565b61101183838361167e565b6001600160a01b038316600090815260016020526040902054818110156110895760405162461bcd60e51b815260206004820152602660248201527f45524332303a207472616e7366657220616d6f756e7420657863656564732062604482015265616c616e636560d01b606482015260840161060c565b6001600160a01b0380851660008181526001602052604080822086860390559286168082529083902080548601905591517fddf252ad1be2c89b69c2b068fc378daa952ba7f163c4a11628f55a4df523b3ef906110e99086815260200190565b60405180910390a3610f3a8484846116e9565b6000306001600160a01b037f00000000000000000000000000000000000000000000000000000000000000001614801561115557507f000000000000000000000000000000000000000000000000000000000000000046145b1561117f57507f000000000000000000000000000000000000000000000000000000000000000090565b61058d604080517f8b73c3c69bb8fe3d512ecc4cf759cc79239f7b179b0ffacaa9a75d522b39400f60208201527f0000000000000000000000000000000000000000000000000000000000000000918101919091527f000000000000000000000000000000000000000000000000000000000000000060608201524660808201523060a082015260009060c00160405160208183030381529060405280519060200120905090565b815460009081816005811115611281576000611242846116f4565b61124c9085612589565b600088815260209020909150869082015463ffffffff1611156112715780915061127f565b61127c81600161243c565b92505b505b808210156112ce57600061129583836117dc565b600088815260209020909150869082015463ffffffff1611156112ba578091506112c8565b6112c581600161243c565b92505b50611281565b80156112fa576000868152602090208101600019015464010000000090046001600160e01b03166112fd565b60005b6001600160e01b03169695505050505050565b600a546001600160a01b0316331461072d5760405162461bcd60e51b815260206004820181905260248201527f4f776e61626c653a2063616c6c6572206973206e6f7420746865206f776e6572604482015260640161060c565b61137482826117f7565b5050565b6001600160a01b038281166000818152600b6020818152604080842080546001845282862054949093528787166001600160a01b03198416811790915590519190951694919391928592917f3134e8a2e6d97e929a7e54011ea5485d7d196dd5f0ba4d4ef95803e8e3fc257f9190a4610f3a828483611881565b600063ffffffff8211156114575760405162461bcd60e51b815260206004820152602660248201527f53616665436173743a2076616c756520646f65736e27742066697420696e203360448201526532206269747360d01b606482015260840161060c565b5090565b600a80546001600160a01b038381166001600160a01b0319831681179093556040519116919082907f8be0079c531659141344cd1fd0a4f28419497f9722a3daafe3b4186f6b6457e090600090a35050565b606060ff8316156114c157610d83836119be565b8180546114cd906123f2565b80601f01602080910402602001604051908101604052809291908181526020018280546114f9906123f2565b80156115465780601f1061151b57610100808354040283529160200191611546565b820191906000526020600020905b81548152906001019060200180831161152957829003601f168201915b50505050509050610559565b600065ffffffffffff8211156114575760405162461bcd60e51b815260206004820152602660248201527f53616665436173743a2076616c756520646f65736e27742066697420696e203460448201526538206269747360d01b606482015260840161060c565b61137482826119f3565b60006105596115d06110fc565b8360405161190160f01b8152600281019290925260228201526042902090565b600080600061160187878787611a0b565b9150915061160e81611acf565b5095945050505050565b6001600160a01b03811660009081526008602052604090208054600181018255905b50919050565b600080829050601f8151111561166b578260405163305a27a960e01b815260040161060c919061214d565b80516116768261259c565b179392505050565b60005460ff16156116e45760405162461bcd60e51b815260206004820152602a60248201527f45524332305061757361626c653a20746f6b656e207472616e736665722077686044820152691a5b19481c185d5cd95960b21b606482015260840161060c565b505050565b6116e4838383611c19565b60008160000361170657506000919050565b6000600161171384611c4b565b901c6001901b9050600181848161172c5761172c6125c0565b048201901c90506001818481611744576117446125c0565b048201901c9050600181848161175c5761175c6125c0565b048201901c90506001818481611774576117746125c0565b048201901c9050600181848161178c5761178c6125c0565b048201901c905060018184816117a4576117a46125c0565b048201901c905060018184816117bc576117bc6125c0565b048201901c9050610637818285816117d6576117d66125c0565b04611cdf565b60006117eb60028484186125d6565b6106379084841661243c565b6118018282611cf5565b6003546001600160e01b0310156118735760405162461bcd60e51b815260206004820152603060248201527f4552433230566f7465733a20746f74616c20737570706c79207269736b73206f60448201526f766572666c6f77696e6720766f74657360801b606482015260840161060c565b610f3a600d611dca83611dd6565b816001600160a01b0316836001600160a01b0316141580156118a35750600081115b156116e4576001600160a01b03831615611931576001600160a01b0383166000908152600c6020526040812081906118de90611f4b85611dd6565b91509150846001600160a01b03167fdec2bacdd2f05b59de34da9b523dff8be42e5e38e818c82fdb0bae774387a7248383604051611926929190918252602082015260400190565b60405180910390a250505b6001600160a01b038216156116e4576001600160a01b0382166000908152600c60205260408120819061196790611dca85611dd6565b91509150836001600160a01b03167fdec2bacdd2f05b59de34da9b523dff8be42e5e38e818c82fdb0bae774387a72483836040516119af929190918252602082015260400190565b60405180910390a25050505050565b60408051602080825281830190925260609160ff84169160009180820181803683375050509182525060208101929092525090565b6119fd8282611f57565b610f3a600d611f4b83611dd6565b6000807f7fffffffffffffffffffffffffffffff5d576e7357a4501ddfe92f46681b20a0831115611a425750600090506003611ac6565b6040805160008082526020820180845289905260ff881692820192909252606081018690526080810185905260019060a0016020604051602081039080840390855afa158015611a96573d6000803e3d6000fd5b5050604051601f1901519150506001600160a01b038116611abf57600060019250925050611ac6565b9150600090505b94509492505050565b6000816004811115611ae357611ae36125f8565b03611aeb5750565b6001816004811115611aff57611aff6125f8565b03611b4c5760405162461bcd60e51b815260206004820152601860248201527f45434453413a20696e76616c6964207369676e61747572650000000000000000604482015260640161060c565b6002816004811115611b6057611b606125f8565b03611bad5760405162461bcd60e51b815260206004820152601f60248201527f45434453413a20696e76616c6964207369676e6174757265206c656e67746800604482015260640161060c565b6003816004811115611bc157611bc16125f8565b036106f65760405162461bcd60e51b815260206004820152602260248201527f45434453413a20696e76616c6964207369676e6174757265202773272076616c604482015261756560f01b606482015260840161060c565b6001600160a01b038381166000908152600b60205260408082205485841683529120546116e492918216911683611881565b600080608083901c15611c6057608092831c92015b604083901c15611c7257604092831c92015b602083901c15611c8457602092831c92015b601083901c15611c9657601092831c92015b600883901c15611ca857600892831c92015b600483901c15611cba57600492831c92015b600283901c15611ccc57600292831c92015b600183901c156105595760010192915050565b6000818310611cee5781610637565b5090919050565b6001600160a01b038216611d4b5760405162461bcd60e51b815260206004820152601f60248201527f45524332303a206d696e7420746f20746865207a65726f206164647265737300604482015260640161060c565b611d576000838361167e565b8060036000828254611d69919061243c565b90915550506001600160a01b0382166000818152600160209081526040808320805486019055518481527fddf252ad1be2c89b69c2b068fc378daa952ba7f163c4a11628f55a4df523b3ef910160405180910390a3611374600083836116e9565b6000610637828461243c565b82546000908190818115611e235760008781526020902082016000190160408051808201909152905463ffffffff8116825264010000000090046001600160e01b03166020820152611e38565b60408051808201909152600080825260208201525b905080602001516001600160e01b03169350611e5884868863ffffffff16565b9250600082118015611e825750611e6d61083d565b65ffffffffffff16816000015163ffffffff16145b15611ec757611e908361209e565b60008881526020902083016000190180546001600160e01b03929092166401000000000263ffffffff909216919091179055611f41565b866040518060400160405280611eeb611ede61083d565b65ffffffffffff166113f2565b63ffffffff168152602001611eff8661209e565b6001600160e01b0390811690915282546001810184556000938452602093849020835194909301519091166401000000000263ffffffff909316929092179101555b5050935093915050565b60006106378284612589565b6001600160a01b038216611fb75760405162461bcd60e51b815260206004820152602160248201527f45524332303a206275726e2066726f6d20746865207a65726f206164647265736044820152607360f81b606482015260840161060c565b611fc38260008361167e565b6001600160a01b038216600090815260016020526040902054818110156120375760405162461bcd60e51b815260206004820152602260248201527f45524332303a206275726e20616d6f756e7420657863656564732062616c616e604482015261636560f01b606482015260840161060c565b6001600160a01b03831660008181526001602090815260408083208686039055600380548790039055518581529192917fddf252ad1be2c89b69c2b068fc378daa952ba7f163c4a11628f55a4df523b3ef910160405180910390a36116e4836000846116e9565b60006001600160e01b038211156114575760405162461bcd60e51b815260206004820152602760248201527f53616665436173743a2076616c756520646f65736e27742066697420696e20326044820152663234206269747360c81b606482015260840161060c565b6000815180845260005b8181101561212d57602081850181015186830182015201612111565b506000602082860101526020601f19601f83011685010191505092915050565b6020815260006106376020830184612107565b80356001600160a01b038116811461217757600080fd5b919050565b6000806040838503121561218f57600080fd5b61219883612160565b946020939093013593505050565b6000806000606084860312156121bb57600080fd5b6121c484612160565b92506121d260208501612160565b9150604084013590509250925092565b6000602082840312156121f457600080fd5b61063782612160565b60ff60f81b881681526000602060e08184015261221d60e084018a612107565b838103604085015261222f818a612107565b606085018990526001600160a01b038816608086015260a0850187905284810360c0860152855180825283870192509083019060005b8181101561228157835183529284019291840191600101612265565b50909c9b505050505050505050505050565b6000602082840312156122a557600080fd5b5035919050565b803560ff8116811461217757600080fd5b60008060008060008060c087890312156122d657600080fd5b6122df87612160565b955060208701359450604087013593506122fb606088016122ac565b92506080870135915060a087013590509295509295509295565b600080600080600080600060e0888a03121561233057600080fd5b61233988612160565b965061234760208901612160565b95506040880135945060608801359350612363608089016122ac565b925060a0880135915060c0880135905092959891949750929550565b6000806040838503121561239257600080fd5b61239b83612160565b91506123a960208401612160565b90509250929050565b600080604083850312156123c557600080fd5b6123ce83612160565b9150602083013563ffffffff811681146123e757600080fd5b809150509250929050565b600181811c9082168061240657607f821691505b60208210810361163a57634e487b7160e01b600052602260045260246000fd5b634e487b7160e01b600052601160045260246000fd5b8082018082111561055957610559612426565b634e487b7160e01b600052604160045260246000fd5b634e487b7160e01b600052603260045260246000fd5b601f8211156116e457600081815260208120601f850160051c810160208610156124a25750805b601f850160051c820191505b818110156124c1578281556001016124ae565b505050505050565b815167ffffffffffffffff8111156124e3576124e361244f565b6124f7816124f184546123f2565b8461247b565b602080601f83116001811461252c57600084156125145750858301515b600019600386901b1c1916600185901b1785556124c1565b600085815260208120601f198616915b8281101561255b5788860151825594840194600190910190840161253c565b50858210156125795787850151600019600388901b60f8161c191681555b5050505050600190811b01905550565b8181038181111561055957610559612426565b8051602080830151919081101561163a5760001960209190910360031b1b16919050565b634e487b7160e01b600052601260045260246000fd5b6000826125f357634e487b7160e01b600052601260045260246000fd5b500490565b634e487b7160e01b600052602160045260246000fdfea264697066735822122043e3e6afad14b464789532b6a0c12d3f5d5e3f1ca4480ca2561b2eb2d207c37164736f6c63430008110033",
  "devdoc": {
    "kind": "dev",
    "methods": {
      "CLOCK_MODE()": {
        "details": "Description of the clock"
      },
      "DOMAIN_SEPARATOR()": {
        "details": "See {IERC20Permit-DOMAIN_SEPARATOR}."
      },
      "checkpoints(address,uint32)": {
        "details": "Get the `pos`-th checkpoint for `account`."
      },
      "clock()": {
        "details": "Clock used for flagging checkpoints. Can be overridden to implement timestamp based checkpoints (and voting)."
      },
      "delegate(address)": {
        "details": "Delegate votes from the sender to `delegatee`."
      },
      "delegateBySig(address,uint256,uint256,uint8,bytes32,bytes32)": {
        "details": "Delegates votes from signer to `delegatee`"
      },
      "delegates(address)": {
        "details": "Get the address `account` is currently delegating to."
      },
      "eip712Domain()": {
        "details": "See {EIP-5267}."
      },
      "getPastTotalSupply(uint256)": {
        "details": "Retrieve the `totalSupply` at the end of `timepoint`. Note, this value is the sum of all balances. It is NOT the sum of all the delegated votes! Requirements: - `timepoint` must be in the past"
      },
      "getPastVotes(address,uint256)": {
        "details": "Retrieve the number of votes for `account` at the end of `timepoint`. Requirements: - `timepoint` must be in the past"
      },
      "getVotes(address)": {
        "details": "Gets the current votes balance for `account`"
      },
      "nonces(address)": {
        "details": "See {IERC20Permit-nonces}."
      },
      "numCheckpoints(address)": {
        "details": "Get number of checkpoints for `account`."
      },
      "permit(address,address,uint256,uint256,uint8,bytes32,bytes32)": {
        "details": "See {IERC20Permit-permit}."
      }
    },
    "version": 1
  },
  "userdoc": {
    "kind": "user",
    "methods": {},
    "version": 1
  },
  "storageLayout": {
    "storage": [
      {
        "astId": 6328,
        "contract": "contracts/Governor_Token.sol:Governor_Token",
        "label": "_paused",
        "offset": 0,
        "slot": "0",
        "type": "t_bool"
      },
      {
        "astId": 17,
        "contract": "contracts/Governor_Token.sol:Governor_Token",
        "label": "_balances",
        "offset": 0,
        "slot": "1",
        "type": "t_mapping(t_address,t_uint256)"
      },
      {
        "astId": 23,
        "contract": "contracts/Governor_Token.sol:Governor_Token",
        "label": "_allowances",
        "offset": 0,
        "slot": "2",
        "type": "t_mapping(t_address,t_mapping(t_address,t_uint256))"
      },
      {
        "astId": 25,
        "contract": "contracts/Governor_Token.sol:Governor_Token",
        "label": "_totalSupply",
        "offset": 0,
        "slot": "3",
        "type": "t_uint256"
      },
      {
        "astId": 27,
        "contract": "contracts/Governor_Token.sol:Governor_Token",
        "label": "_name",
        "offset": 0,
        "slot": "4",
        "type": "t_string_storage"
      },
      {
        "astId": 29,
        "contract": "contracts/Governor_Token.sol:Governor_Token",
        "label": "_symbol",
        "offset": 0,
        "slot": "5",
        "type": "t_string_storage"
      },
      {
        "astId": 9918,
        "contract": "contracts/Governor_Token.sol:Governor_Token",
        "label": "_nameFallback",
        "offset": 0,
        "slot": "6",
        "type": "t_string_storage"
      },
      {
        "astId": 9920,
        "contract": "contracts/Governor_Token.sol:Governor_Token",
        "label": "_versionFallback",
        "offset": 0,
        "slot": "7",
        "type": "t_string_storage"
      },
      {
        "astId": 668,
        "contract": "contracts/Governor_Token.sol:Governor_Token",
        "label": "_nonces",
        "offset": 0,
        "slot": "8",
        "type": "t_mapping(t_address,t_struct(Counter)8732_storage)"
      },
      {
        "astId": 676,
        "contract": "contracts/Governor_Token.sol:Governor_Token",
        "label": "_PERMIT_TYPEHASH_DEPRECATED_SLOT",
        "offset": 0,
        "slot": "9",
        "type": "t_bytes32"
      },
      {
        "astId": 8973,
        "contract": "contracts/Governor_Token.sol:Governor_Token",
        "label": "_owner",
        "offset": 0,
        "slot": "10",
        "type": "t_address"
      },
      {
        "astId": 842,
        "contract": "contracts/Governor_Token.sol:Governor_Token",
        "label": "_delegates",
        "offset": 0,
        "slot": "11",
        "type": "t_mapping(t_address,t_address)"
      },
      {
        "astId": 848,
        "contract": "contracts/Governor_Token.sol:Governor_Token",
        "label": "_checkpoints",
        "offset": 0,
        "slot": "12",
        "type": "t_mapping(t_address,t_array(t_struct(Checkpoint)833_storage)dyn_storage)"
      },
      {
        "astId": 852,
        "contract": "contracts/Governor_Token.sol:Governor_Token",
        "label": "_totalSupplyCheckpoints",
        "offset": 0,
        "slot": "13",
        "type": "t_array(t_struct(Checkpoint)833_storage)dyn_storage"
      }
    ],
    "types": {
      "t_address": {
        "encoding": "inplace",
        "label": "address",
        "numberOfBytes": "20"
      },
      "t_array(t_struct(Checkpoint)833_storage)dyn_storage": {
        "base": "t_struct(Checkpoint)833_storage",
        "encoding": "dynamic_array",
        "label": "struct ERC20Votes.Checkpoint[]",
        "numberOfBytes": "32"
      },
      "t_bool": {
        "encoding": "inplace",
        "label": "bool",
        "numberOfBytes": "1"
      },
      "t_bytes32": {
        "encoding": "inplace",
        "label": "bytes32",
        "numberOfBytes": "32"
      },
      "t_mapping(t_address,t_address)": {
        "encoding": "mapping",
        "key": "t_address",
        "label": "mapping(address => address)",
        "numberOfBytes": "32",
        "value": "t_address"
      },
      "t_mapping(t_address,t_array(t_struct(Checkpoint)833_storage)dyn_storage)": {
        "encoding": "mapping",
        "key": "t_address",
        "label": "mapping(address => struct ERC20Votes.Checkpoint[])",
        "numberOfBytes": "32",
        "value": "t_array(t_struct(Checkpoint)833_storage)dyn_storage"
      },
      "t_mapping(t_address,t_mapping(t_address,t_uint256))": {
        "encoding": "mapping",
        "key": "t_address",
        "label": "mapping(address => mapping(address => uint256))",
        "numberOfBytes": "32",
        "value": "t_mapping(t_address,t_uint256)"
      },
      "t_mapping(t_address,t_struct(Counter)8732_storage)": {
        "encoding": "mapping",
        "key": "t_address",
        "label": "mapping(address => struct Counters.Counter)",
        "numberOfBytes": "32",
        "value": "t_struct(Counter)8732_storage"
      },
      "t_mapping(t_address,t_uint256)": {
        "encoding": "mapping",
        "key": "t_address",
        "label": "mapping(address => uint256)",
        "numberOfBytes": "32",
        "value": "t_uint256"
      },
      "t_string_storage": {
        "encoding": "bytes",
        "label": "string",
        "numberOfBytes": "32"
      },
      "t_struct(Checkpoint)833_storage": {
        "encoding": "inplace",
        "label": "struct ERC20Votes.Checkpoint",
        "members": [
          {
            "astId": 830,
            "contract": "contracts/Governor_Token.sol:Governor_Token",
            "label": "fromBlock",
            "offset": 0,
            "slot": "0",
            "type": "t_uint32"
          },
          {
            "astId": 832,
            "contract": "contracts/Governor_Token.sol:Governor_Token",
            "label": "votes",
            "offset": 4,
            "slot": "0",
            "type": "t_uint224"
          }
        ],
        "numberOfBytes": "32"
      },
      "t_struct(Counter)8732_storage": {
        "encoding": "inplace",
        "label": "struct Counters.Counter",
        "members": [
          {
            "astId": 8731,
            "contract": "contracts/Governor_Token.sol:Governor_Token",
            "label": "_value",
            "offset": 0,
            "slot": "0",
            "type": "t_uint256"
          }
        ],
        "numberOfBytes": "32"
      },
      "t_uint224": {
        "encoding": "inplace",
        "label": "uint224",
        "numberOfBytes": "28"
      },
      "t_uint256": {
        "encoding": "inplace",
        "label": "uint256",
        "numberOfBytes": "32"
      },
      "t_uint32": {
        "encoding": "inplace",
        "label": "uint32",
        "numberOfBytes": "4"
      }
    }
  }
}