{
  "address": "0x1c39BA375faB6a9f6E0c01B9F49d488e101C2011",
  "abi": [
    {
      "inputs": [
        {
          "internalType": "contract IVotes",
          "name": "_token",
          "type": "address"
        },
        {
          "internalType": "contract TimelockController",
          "name": "_timelock",
          "type": "address"
        }
      ],
      "stateMutability": "nonpayable",
      "type": "constructor"
    },
    {
      "inputs": [],
      "name": "Empty",
      "type": "error"
    },
    {
      "inputs": [
        {
          "internalType": "string",
          "name": "str",
          "type": "string"
        }
      ],
      "name": "StringTooLong",
      "type": "error"
    },
    {
      "anonymous": false,
      "inputs": [],
      "name": "EIP712DomainChanged",
      "type": "event"
    },
    {
      "anonymous": false,
      "inputs": [
        {
          "indexed": false,
          "internalType": "uint256",
          "name": "proposalId",
          "type": "uint256"
        }
      ],
      "name": "ProposalCanceled",
      "type": "event"
    },
    {
      "anonymous": false,
      "inputs": [
        {
          "indexed": false,
          "internalType": "uint256",
          "name": "proposalId",
          "type": "uint256"
        },
        {
          "indexed": false,
          "internalType": "address",
          "name": "proposer",
          "type": "address"
        },
        {
          "indexed": false,
          "internalType": "address[]",
          "name": "targets",
          "type": "address[]"
        },
        {
          "indexed": false,
          "internalType": "uint256[]",
          "name": "values",
          "type": "uint256[]"
        },
        {
          "indexed": false,
          "internalType": "string[]",
          "name": "signatures",
          "type": "string[]"
        },
        {
          "indexed": false,
          "internalType": "bytes[]",
          "name": "calldatas",
          "type": "bytes[]"
        },
        {
          "indexed": false,
          "internalType": "uint256",
          "name": "voteStart",
          "type": "uint256"
        },
        {
          "indexed": false,
          "internalType": "uint256",
          "name": "voteEnd",
          "type": "uint256"
        },
        {
          "indexed": false,
          "internalType": "string",
          "name": "description",
          "type": "string"
        }
      ],
      "name": "ProposalCreated",
      "type": "event"
    },
    {
      "anonymous": false,
      "inputs": [
        {
          "indexed": false,
          "internalType": "uint256",
          "name": "proposalId",
          "type": "uint256"
        }
      ],
      "name": "ProposalExecuted",
      "type": "event"
    },
    {
      "anonymous": false,
      "inputs": [
        {
          "indexed": false,
          "internalType": "uint256",
          "name": "proposalId",
          "type": "uint256"
        },
        {
          "indexed": false,
          "internalType": "uint256",
          "name": "eta",
          "type": "uint256"
        }
      ],
      "name": "ProposalQueued",
      "type": "event"
    },
    {
      "anonymous": false,
      "inputs": [
        {
          "indexed": false,
          "internalType": "uint256",
          "name": "oldProposalThreshold",
          "type": "uint256"
        },
        {
          "indexed": false,
          "internalType": "uint256",
          "name": "newProposalThreshold",
          "type": "uint256"
        }
      ],
      "name": "ProposalThresholdSet",
      "type": "event"
    },
    {
      "anonymous": false,
      "inputs": [
        {
          "indexed": false,
          "internalType": "uint256",
          "name": "oldQuorumNumerator",
          "type": "uint256"
        },
        {
          "indexed": false,
          "internalType": "uint256",
          "name": "newQuorumNumerator",
          "type": "uint256"
        }
      ],
      "name": "QuorumNumeratorUpdated",
      "type": "event"
    },
    {
      "anonymous": false,
      "inputs": [
        {
          "indexed": false,
          "internalType": "address",
          "name": "oldTimelock",
          "type": "address"
        },
        {
          "indexed": false,
          "internalType": "address",
          "name": "newTimelock",
          "type": "address"
        }
      ],
      "name": "TimelockChange",
      "type": "event"
    },
    {
      "anonymous": false,
      "inputs": [
        {
          "indexed": true,
          "internalType": "address",
          "name": "voter",
          "type": "address"
        },
        {
          "indexed": false,
          "internalType": "uint256",
          "name": "proposalId",
          "type": "uint256"
        },
        {
          "indexed": false,
          "internalType": "uint8",
          "name": "support",
          "type": "uint8"
        },
        {
          "indexed": false,
          "internalType": "uint256",
          "name": "weight",
          "type": "uint256"
        },
        {
          "indexed": false,
          "internalType": "string",
          "name": "reason",
          "type": "string"
        }
      ],
      "name": "VoteCast",
      "type": "event"
    },
    {
      "anonymous": false,
      "inputs": [
        {
          "indexed": true,
          "internalType": "address",
          "name": "voter",
          "type": "address"
        },
        {
          "indexed": false,
          "internalType": "uint256",
          "name": "proposalId",
          "type": "uint256"
        },
        {
          "indexed": false,
          "internalType": "uint8",
          "name": "support",
          "type": "uint8"
        },
        {
          "indexed": false,
          "internalType": "uint256",
          "name": "weight",
          "type": "uint256"
        },
        {
          "indexed": false,
          "internalType": "string",
          "name": "reason",
          "type": "string"
        },
        {
          "indexed": false,
          "internalType": "bytes",
          "name": "params",
          "type": "bytes"
        }
      ],
      "name": "VoteCastWithParams",
      "type": "event"
    },
    {
      "anonymous": false,
      "inputs": [
        {
          "indexed": false,
          "internalType": "uint256",
          "name": "oldVotingDelay",
          "type": "uint256"
        },
        {
          "indexed": false,
          "internalType": "uint256",
          "name": "newVotingDelay",
          "type": "uint256"
        }
      ],
      "name": "VotingDelaySet",
      "type": "event"
    },
    {
      "anonymous": false,
      "inputs": [
        {
          "indexed": false,
          "internalType": "uint256",
          "name": "oldVotingPeriod",
          "type": "uint256"
        },
        {
          "indexed": false,
          "internalType": "uint256",
          "name": "newVotingPeriod",
          "type": "uint256"
        }
      ],
      "name": "VotingPeriodSet",
      "type": "event"
    },
    {
      "inputs": [],
      "name": "BALLOT_TYPEHASH",
      "outputs": [
        {
          "internalType": "bytes32",
          "name": "",
          "type": "bytes32"
        }
      ],
      "stateMutability": "view",
      "type": "function"
    },
    {
      "inputs": [],
      "name": "CLOCK_MODE",
      "outputs": [
        {
          "internalType": "string",
          "name": "",
          "type": "string"
        }
      ],
      "stateMutability": "view",
      "type": "function"
    },
    {
      "inputs": [],
      "name": "COUNTING_MODE",
      "outputs": [
        {
          "internalType": "string",
          "name": "",
          "type": "string"
        }
      ],
      "stateMutability": "pure",
      "type": "function"
    },
    {
      "inputs": [],
      "name": "EXTENDED_BALLOT_TYPEHASH",
      "outputs": [
        {
          "internalType": "bytes32",
          "name": "",
          "type": "bytes32"
        }
      ],
      "stateMutability": "view",
      "type": "function"
    },
    {
      "inputs": [
        {
          "internalType": "address[]",
          "name": "targets",
          "type": "address[]"
        },
        {
          "internalType": "uint256[]",
          "name": "values",
          "type": "uint256[]"
        },
        {
          "internalType": "bytes[]",
          "name": "calldatas",
          "type": "bytes[]"
        },
        {
          "internalType": "bytes32",
          "name": "descriptionHash",
          "type": "bytes32"
        }
      ],
      "name": "cancel",
      "outputs": [
        {
          "internalType": "uint256",
          "name": "",
          "type": "uint256"
        }
      ],
      "stateMutability": "nonpayable",
      "type": "function"
    },
    {
      "inputs": [
        {
          "internalType": "address[]",
          "name": "targets",
          "type": "address[]"
        },
        {
          "internalType": "uint256[]",
          "name": "values",
          "type": "uint256[]"
        },
        {
          "internalType": "bytes[]",
          "name": "calldatas",
          "type": "bytes[]"
        },
        {
          "internalType": "bytes32",
          "name": "descriptionHash",
          "type": "bytes32"
        }
      ],
      "name": "cancel_",
      "outputs": [
        {
          "internalType": "uint256",
          "name": "",
          "type": "uint256"
        }
      ],
      "stateMutability": "nonpayable",
      "type": "function"
    },
    {
      "inputs": [
        {
          "internalType": "uint256",
          "name": "proposalId",
          "type": "uint256"
        },
        {
          "internalType": "uint8",
          "name": "support",
          "type": "uint8"
        }
      ],
      "name": "castVote",
      "outputs": [
        {
          "internalType": "uint256",
          "name": "",
          "type": "uint256"
        }
      ],
      "stateMutability": "nonpayable",
      "type": "function"
    },
    {
      "inputs": [
        {
          "internalType": "uint256",
          "name": "proposalId",
          "type": "uint256"
        },
        {
          "internalType": "uint8",
          "name": "support",
          "type": "uint8"
        },
        {
          "internalType": "uint8",
          "name": "v",
          "type": "uint8"
        },
        {
          "internalType": "bytes32",
          "name": "r",
          "type": "bytes32"
        },
        {
          "internalType": "bytes32",
          "name": "s",
          "type": "bytes32"
        }
      ],
      "name": "castVoteBySig",
      "outputs": [
        {
          "internalType": "uint256",
          "name": "",
          "type": "uint256"
        }
      ],
      "stateMutability": "nonpayable",
      "type": "function"
    },
    {
      "inputs": [
        {
          "internalType": "uint256",
          "name": "proposalId",
          "type": "uint256"
        },
        {
          "internalType": "uint8",
          "name": "support",
          "type": "uint8"
        },
        {
          "internalType": "string",
          "name": "reason",
          "type": "string"
        }
      ],
      "name": "castVoteWithReason",
      "outputs": [
        {
          "internalType": "uint256",
          "name": "",
          "type": "uint256"
        }
      ],
      "stateMutability": "nonpayable",
      "type": "function"
    },
    {
      "inputs": [
        {
          "internalType": "uint256",
          "name": "proposalId",
          "type": "uint256"
        },
        {
          "internalType": "uint8",
          "name": "support",
          "type": "uint8"
        },
        {
          "internalType": "string",
          "name": "reason",
          "type": "string"
        },
        {
          "internalType": "bytes",
          "name": "params",
          "type": "bytes"
        }
      ],
      "name": "castVoteWithReasonAndParams",
      "outputs": [
        {
          "internalType": "uint256",
          "name": "",
          "type": "uint256"
        }
      ],
      "stateMutability": "nonpayable",
      "type": "function"
    },
    {
      "inputs": [
        {
          "internalType": "uint256",
          "name": "proposalId",
          "type": "uint256"
        },
        {
          "internalType": "uint8",
          "name": "support",
          "type": "uint8"
        },
        {
          "internalType": "string",
          "name": "reason",
          "type": "string"
        },
        {
          "internalType": "bytes",
          "name": "params",
          "type": "bytes"
        },
        {
          "internalType": "uint8",
          "name": "v",
          "type": "uint8"
        },
        {
          "internalType": "bytes32",
          "name": "r",
          "type": "bytes32"
        },
        {
          "internalType": "bytes32",
          "name": "s",
          "type": "bytes32"
        }
      ],
      "name": "castVoteWithReasonAndParamsBySig",
      "outputs": [
        {
          "internalType": "uint256",
          "name": "",
          "type": "uint256"
        }
      ],
      "stateMutability": "nonpayable",
      "type": "function"
    },
    {
      "inputs": [],
      "name": "clock",
      "outputs": [
        {
          "internalType": "uint48",
          "name": "",
          "type": "uint48"
        }
      ],
      "stateMutability": "view",
      "type": "function"
    },
    {
      "inputs": [],
      "name": "eip712Domain",
      "outputs": [
        {
          "internalType": "bytes1",
          "name": "fields",
          "type": "bytes1"
        },
        {
          "internalType": "string",
          "name": "name",
          "type": "string"
        },
        {
          "internalType": "string",
          "name": "version",
          "type": "string"
        },
        {
          "internalType": "uint256",
          "name": "chainId",
          "type": "uint256"
        },
        {
          "internalType": "address",
          "name": "verifyingContract",
          "type": "address"
        },
        {
          "internalType": "bytes32",
          "name": "salt",
          "type": "bytes32"
        },
        {
          "internalType": "uint256[]",
          "name": "extensions",
          "type": "uint256[]"
        }
      ],
      "stateMutability": "view",
      "type": "function"
    },
    {
      "inputs": [
        {
          "internalType": "address[]",
          "name": "targets",
          "type": "address[]"
        },
        {
          "internalType": "uint256[]",
          "name": "values",
          "type": "uint256[]"
        },
        {
          "internalType": "bytes[]",
          "name": "calldatas",
          "type": "bytes[]"
        },
        {
          "internalType": "bytes32",
          "name": "descriptionHash",
          "type": "bytes32"
        }
      ],
      "name": "execute",
      "outputs": [
        {
          "internalType": "uint256",
          "name": "",
          "type": "uint256"
        }
      ],
      "stateMutability": "payable",
      "type": "function"
    },
    {
      "inputs": [
        {
          "internalType": "address",
          "name": "account",
          "type": "address"
        },
        {
          "internalType": "uint256",
          "name": "timepoint",
          "type": "uint256"
        }
      ],
      "name": "getVotes",
      "outputs": [
        {
          "internalType": "uint256",
          "name": "",
          "type": "uint256"
        }
      ],
      "stateMutability": "view",
      "type": "function"
    },
    {
      "inputs": [
        {
          "internalType": "address",
          "name": "account",
          "type": "address"
        },
        {
          "internalType": "uint256",
          "name": "timepoint",
          "type": "uint256"
        },
        {
          "internalType": "bytes",
          "name": "params",
          "type": "bytes"
        }
      ],
      "name": "getVotesWithParams",
      "outputs": [
        {
          "internalType": "uint256",
          "name": "",
          "type": "uint256"
        }
      ],
      "stateMutability": "view",
      "type": "function"
    },
    {
      "inputs": [
        {
          "internalType": "uint256",
          "name": "proposalId",
          "type": "uint256"
        },
        {
          "internalType": "address",
          "name": "account",
          "type": "address"
        }
      ],
      "name": "hasVoted",
      "outputs": [
        {
          "internalType": "bool",
          "name": "",
          "type": "bool"
        }
      ],
      "stateMutability": "view",
      "type": "function"
    },
    {
      "inputs": [
        {
          "internalType": "address[]",
          "name": "targets",
          "type": "address[]"
        },
        {
          "internalType": "uint256[]",
          "name": "values",
          "type": "uint256[]"
        },
        {
          "internalType": "bytes[]",
          "name": "calldatas",
          "type": "bytes[]"
        },
        {
          "internalType": "bytes32",
          "name": "descriptionHash",
          "type": "bytes32"
        }
      ],
      "name": "hashProposal",
      "outputs": [
        {
          "internalType": "uint256",
          "name": "",
          "type": "uint256"
        }
      ],
      "stateMutability": "pure",
      "type": "function"
    },
    {
      "inputs": [],
      "name": "name",
      "outputs": [
        {
          "internalType": "string",
          "name": "",
          "type": "string"
        }
      ],
      "stateMutability": "view",
      "type": "function"
    },
    {
      "inputs": [],
      "name": "nonGovernanceFunction",
      "outputs": [],
      "stateMutability": "nonpayable",
      "type": "function"
    },
    {
      "inputs": [
        {
          "internalType": "uint256",
          "name": "proposalId",
          "type": "uint256"
        }
      ],
      "name": "proposalDeadline",
      "outputs": [
        {
          "internalType": "uint256",
          "name": "",
          "type": "uint256"
        }
      ],
      "stateMutability": "view",
      "type": "function"
    },
    {
      "inputs": [
        {
          "internalType": "uint256",
          "name": "proposalId",
          "type": "uint256"
        }
      ],
      "name": "proposalEta",
      "outputs": [
        {
          "internalType": "uint256",
          "name": "",
          "type": "uint256"
        }
      ],
      "stateMutability": "view",
      "type": "function"
    },
    {
      "inputs": [
        {
          "internalType": "uint256",
          "name": "proposalId",
          "type": "uint256"
        }
      ],
      "name": "proposalSnapshot",
      "outputs": [
        {
          "internalType": "uint256",
          "name": "",
          "type": "uint256"
        }
      ],
      "stateMutability": "view",
      "type": "function"
    },
    {
      "inputs": [],
      "name": "proposalThreshold",
      "outputs": [
        {
          "internalType": "uint256",
          "name": "",
          "type": "uint256"
        }
      ],
      "stateMutability": "view",
      "type": "function"
    },
    {
      "inputs": [
        {
          "internalType": "uint256",
          "name": "proposalId",
          "type": "uint256"
        }
      ],
      "name": "proposalVotes",
      "outputs": [
        {
          "internalType": "uint256",
          "name": "againstVotes",
          "type": "uint256"
        },
        {
          "internalType": "uint256",
          "name": "forVotes",
          "type": "uint256"
        },
        {
          "internalType": "uint256",
          "name": "abstainVotes",
          "type": "uint256"
        }
      ],
      "stateMutability": "view",
      "type": "function"
    },
    {
      "inputs": [
        {
          "internalType": "address[]",
          "name": "targets",
          "type": "address[]"
        },
        {
          "internalType": "uint256[]",
          "name": "values",
          "type": "uint256[]"
        },
        {
          "internalType": "bytes[]",
          "name": "calldatas",
          "type": "bytes[]"
        },
        {
          "internalType": "string",
          "name": "description",
          "type": "string"
        }
      ],
      "name": "propose",
      "outputs": [
        {
          "internalType": "uint256",
          "name": "",
          "type": "uint256"
        }
      ],
      "stateMutability": "nonpayable",
      "type": "function"
    },
    {
      "inputs": [
        {
          "internalType": "address[]",
          "name": "targets",
          "type": "address[]"
        },
        {
          "internalType": "uint256[]",
          "name": "values",
          "type": "uint256[]"
        },
        {
          "internalType": "bytes[]",
          "name": "calldatas",
          "type": "bytes[]"
        },
        {
          "internalType": "bytes32",
          "name": "descriptionHash",
          "type": "bytes32"
        }
      ],
      "name": "queue",
      "outputs": [
        {
          "internalType": "uint256",
          "name": "",
          "type": "uint256"
        }
      ],
      "stateMutability": "nonpayable",
      "type": "function"
    },
    {
      "inputs": [
        {
          "internalType": "uint256",
          "name": "blockNumber",
          "type": "uint256"
        }
      ],
      "name": "quorum",
      "outputs": [
        {
          "internalType": "uint256",
          "name": "",
          "type": "uint256"
        }
      ],
      "stateMutability": "view",
      "type": "function"
    },
    {
      "inputs": [],
      "name": "quorumDenominator",
      "outputs": [
        {
          "internalType": "uint256",
          "name": "",
          "type": "uint256"
        }
      ],
      "stateMutability": "view",
      "type": "function"
    },
    {
      "inputs": [
        {
          "internalType": "uint256",
          "name": "timepoint",
          "type": "uint256"
        }
      ],
      "name": "quorumNumerator",
      "outputs": [
        {
          "internalType": "uint256",
          "name": "",
          "type": "uint256"
        }
      ],
      "stateMutability": "view",
      "type": "function"
    },
    {
      "inputs": [],
      "name": "quorumNumerator",
      "outputs": [
        {
          "internalType": "uint256",
          "name": "",
          "type": "uint256"
        }
      ],
      "stateMutability": "view",
      "type": "function"
    },
    {
      "inputs": [
        {
          "internalType": "address",
          "name": "target",
          "type": "address"
        },
        {
          "internalType": "uint256",
          "name": "value",
          "type": "uint256"
        },
        {
          "internalType": "bytes",
          "name": "data",
          "type": "bytes"
        }
      ],
      "name": "relay",
      "outputs": [],
      "stateMutability": "payable",
      "type": "function"
    },
    {
      "inputs": [
        {
          "internalType": "uint256",
          "name": "newProposalThreshold",
          "type": "uint256"
        }
      ],
      "name": "setProposalThreshold",
      "outputs": [],
      "stateMutability": "nonpayable",
      "type": "function"
    },
    {
      "inputs": [
        {
          "internalType": "uint256",
          "name": "newVotingDelay",
          "type": "uint256"
        }
      ],
      "name": "setVotingDelay",
      "outputs": [],
      "stateMutability": "nonpayable",
      "type": "function"
    },
    {
      "inputs": [
        {
          "internalType": "uint256",
          "name": "newVotingPeriod",
          "type": "uint256"
        }
      ],
      "name": "setVotingPeriod",
      "outputs": [],
      "stateMutability": "nonpayable",
      "type": "function"
    },
    {
      "inputs": [
        {
          "internalType": "uint256",
          "name": "proposalId",
          "type": "uint256"
        }
      ],
      "name": "state",
      "outputs": [
        {
          "internalType": "enum IGovernor.ProposalState",
          "name": "",
          "type": "uint8"
        }
      ],
      "stateMutability": "view",
      "type": "function"
    },
    {
      "inputs": [
        {
          "internalType": "bytes4",
          "name": "interfaceId",
          "type": "bytes4"
        }
      ],
      "name": "supportsInterface",
      "outputs": [
        {
          "internalType": "bool",
          "name": "",
          "type": "bool"
        }
      ],
      "stateMutability": "view",
      "type": "function"
    },
    {
      "inputs": [],
      "name": "timelock",
      "outputs": [
        {
          "internalType": "address",
          "name": "",
          "type": "address"
        }
      ],
      "stateMutability": "view",
      "type": "function"
    },
    {
      "inputs": [],
      "name": "token",
      "outputs": [
        {
          "internalType": "contract IERC5805",
          "name": "",
          "type": "address"
        }
      ],
      "stateMutability": "view",
      "type": "function"
    },
    {
      "inputs": [
        {
          "internalType": "uint256",
          "name": "newQuorumNumerator",
          "type": "uint256"
        }
      ],
      "name": "updateQuorumNumerator",
      "outputs": [],
      "stateMutability": "nonpayable",
      "type": "function"
    },
    {
      "inputs": [
        {
          "internalType": "contract TimelockController",
          "name": "newTimelock",
          "type": "address"
        }
      ],
      "name": "updateTimelock",
      "outputs": [],
      "stateMutability": "nonpayable",
      "type": "function"
    },
    {
      "inputs": [],
      "name": "version",
      "outputs": [
        {
          "internalType": "string",
          "name": "",
          "type": "string"
        }
      ],
      "stateMutability": "view",
      "type": "function"
    },
    {
      "inputs": [],
      "name": "votingDelay",
      "outputs": [
        {
          "internalType": "uint256",
          "name": "",
          "type": "uint256"
        }
      ],
      "stateMutability": "view",
      "type": "function"
    },
    {
      "inputs": [],
      "name": "votingPeriod",
      "outputs": [
        {
          "internalType": "uint256",
          "name": "",
          "type": "uint256"
        }
      ],
      "stateMutability": "view",
      "type": "function"
    },
    {
      "stateMutability": "payable",
      "type": "receive"
    }
  ],
  "transactionHash": "0x7763da771e124fa54790ab7f50549f7abca0559ce098b151d71d5e51e981cd2f",
  "args": [
    "0x44863F234b137A395e5c98359d16057A9A1fAc55",
    "0x0c03eCB91Cb50835e560a7D52190EB1a5ffba797"
  ],
  "numDeployments": 1,
  "solcInputHash": "636f063f1a5a709c88dd2705752922f2",
  "bytecode": "0x6101806040523480156200001257600080fd5b5060405162005104380380620051048339810160408190526200003591620009d4565b80600483600461012c6000604051806040016040528060118152602001702a34b6b2b637b1b5afa3b7bb32b93737b960791b815250806200007b620001ad60201b60201c565b62000096600083620001c860201b620017b11790919060201c565b60e052620000b2816001620001c8602090811b620017b117901c565b61010052815160208084019190912061012052815190820120610140524660a052620001426101205161014051604080517f8b73c3c69bb8fe3d512ecc4cf759cc79239f7b179b0ffacaa9a75d522b39400f60208201529081019290925260608201524660808201523060a082015260009060c00160405160208183030381529060405280519060200120905090565b60805250503060c052600262000159828262000ab8565b506200016790508362000218565b620001728262000259565b6200017d8162000300565b5050506001600160a01b031661016052620001988162000341565b50620001a481620004f6565b50505062000c45565b6040805180820190915260018152603160f81b602082015290565b6000602083511015620001e857620001e0836200055f565b905062000212565b82620001ff83620005a260201b620017e21760201c565b906200020c908262000ab8565b50600090505b92915050565b60065460408051918252602082018390527fc565b045403dc03c2eea82b81a0465edad9e2e7fc4d97e11421c209da93d7a93910160405180910390a1600655565b60008111620002bf5760405162461bcd60e51b815260206004820152602760248201527f476f7665726e6f7253657474696e67733a20766f74696e6720706572696f6420604482015266746f6f206c6f7760c81b60648201526084015b60405180910390fd5b60075460408051918252602082018390527f7e3f7f0708a84de9203036abaa450dccc85ad5ff52f78c170f3edb55cf5e8828910160405180910390a1600755565b60085460408051918252602082018390527fccb45da8d5717e6c4544694297c4ba5cf151d455c9bb0ed4fc7a38411bc05461910160405180910390a1600855565b6064811115620003c65760405162461bcd60e51b815260206004820152604360248201527f476f7665726e6f72566f74657351756f72756d4672616374696f6e3a2071756f60448201527f72756d4e756d657261746f72206f7665722071756f72756d44656e6f6d696e616064820152623a37b960e91b608482015260a401620002b6565b6000620003d2620005a5565b90508015801590620003e45750600b54155b156200045f57600b6000016040518060400160405280600063ffffffff1681526020016200041d84620005df60201b620017e51760201c565b6001600160e01b0390811690915282546001810184556000938452602093849020835194909301519091166401000000000263ffffffff909316929092179101555b620004b76200048a620004716200064e565b65ffffffffffff16620006d060201b620018521760201c565b620004a084620005df60201b620017e51760201c565b600b6200073760201b620018b7179092919060201c565b505060408051828152602081018490527f0553476bf02ef2726e8ce5ced78d63e26e602e4a2257b1f559418e24b4633997910160405180910390a15050565b600c54604080516001600160a01b03928316815291831660208301527f08f74ea46ef7894f65eabfb5e6e695de773a000b47c529ab559178069b226401910160405180910390a1600c80546001600160a01b0319166001600160a01b0392909216919091179055565b600080829050601f815111156200058d578260405163305a27a960e01b8152600401620002b6919062000b84565b80516200059a8262000bd4565b179392505050565b90565b600b5460009015620005d657620005c8600b6200075460201b620018d21760201c565b6001600160e01b0316905090565b600a545b905090565b60006001600160e01b038211156200064a5760405162461bcd60e51b815260206004820152602760248201527f53616665436173743a2076616c756520646f65736e27742066697420696e20326044820152663234206269747360c81b6064820152608401620002b6565b5090565b6000610160516001600160a01b03166391ddadf46040518163ffffffff1660e01b8152600401602060405180830381865afa925050508015620006b0575060408051601f3d908101601f19168201909252620006ad9181019062000bf9565b60015b620006cb57620005da43620007a260201b620019101760201c565b919050565b600063ffffffff8211156200064a5760405162461bcd60e51b815260206004820152602660248201527f53616665436173743a2076616c756520646f65736e27742066697420696e203360448201526532206269747360d01b6064820152608401620002b6565b600080620007478585856200080b565b915091505b935093915050565b80546000908015620007985762000780836200077260018462000c23565b600091825260209091200190565b5464010000000090046001600160e01b03166200079b565b60005b9392505050565b600065ffffffffffff8211156200064a5760405162461bcd60e51b815260206004820152602660248201527f53616665436173743a2076616c756520646f65736e27742066697420696e203460448201526538206269747360d01b6064820152608401620002b6565b825460009081908015620009605760006200082d876200077260018562000c23565b60408051808201909152905463ffffffff8082168084526401000000009092046001600160e01b031660208401529192509087161015620008b15760405162461bcd60e51b815260206004820152601b60248201527f436865636b706f696e743a2064656372656173696e67206b65797300000000006044820152606401620002b6565b805163ffffffff808816911603620008ff5784620008d6886200077260018662000c23565b80546001600160e01b03929092166401000000000263ffffffff9092169190911790556200094f565b6040805180820190915263ffffffff80881682526001600160e01b0380881660208085019182528b54600181018d5560008d81529190912094519151909216640100000000029216919091179101555b6020015192508391506200074c9050565b50506040805180820190915263ffffffff80851682526001600160e01b0380851660208085019182528854600181018a5560008a8152918220955192519093166401000000000291909316179201919091559050816200074c565b6001600160a01b0381168114620009d157600080fd5b50565b60008060408385031215620009e857600080fd5b8251620009f581620009bb565b602084015190925062000a0881620009bb565b809150509250929050565b634e487b7160e01b600052604160045260246000fd5b600181811c9082168062000a3e57607f821691505b60208210810362000a5f57634e487b7160e01b600052602260045260246000fd5b50919050565b601f82111562000ab357600081815260208120601f850160051c8101602086101562000a8e5750805b601f850160051c820191505b8181101562000aaf5782815560010162000a9a565b5050505b505050565b81516001600160401b0381111562000ad45762000ad462000a13565b62000aec8162000ae5845462000a29565b8462000a65565b602080601f83116001811462000b24576000841562000b0b5750858301515b600019600386901b1c1916600185901b17855562000aaf565b600085815260208120601f198616915b8281101562000b555788860151825594840194600190910190840162000b34565b508582101562000b745787850151600019600388901b60f8161c191681555b5050505050600190811b01905550565b600060208083528351808285015260005b8181101562000bb35785810183015185820160400152820162000b95565b506000604082860101526040601f19601f8301168501019250505092915050565b8051602080830151919081101562000a5f5760001960209190910360031b1b16919050565b60006020828403121562000c0c57600080fd5b815165ffffffffffff811681146200079b57600080fd5b818103818111156200021257634e487b7160e01b600052601160045260246000fd5b60805160a05160c05160e0516101005161012051610140516101605161443d62000cc7600039600081816108d201528181610fda0152818161132e015281816124b4015261275a01526000612ae801526000612ac0015260006112da015260006112b001526000612a1b01526000612a4501526000612a6f015261443d6000f3fe60806040526004361061026b5760003560e01c80637b3c71d311610144578063c28bc2fa116100b6578063deaaa7cc1161007a578063deaaa7cc1461080c578063ea0217cf14610840578063eb9019d414610860578063ece40cc114610880578063f8ce560a146108a0578063fc0c546a146108c057600080fd5b8063c28bc2fa14610741578063c59057e414610754578063cd4265a514610774578063d33219b414610794578063dd4e2ba5146107c657600080fd5b80639a802a6d116101085780639a802a6d1461067e578063a7713a701461069e578063a890c910146106b3578063ab58fb8e146106d3578063b58131b0146106f3578063c01f9e371461070857600080fd5b80637b3c71d3146105d65780637d5e81e2146105f657806384b0196e1461061657806391ddadf41461063e57806397c3d3341461066a57600080fd5b80633e4f49e6116101dd578063544ffc9c116101a1578063544ffc9c146104d757806354fd4d501461052c57806356781388146105565780635f398a141461057657806360c4247f1461059657806370b0f660146105b657600080fd5b80633e4f49e61461041f578063417491db1461044c5780634385963214610458578063452115d6146104a25780634bf5d7e9146104c257600080fd5b8063160cbed71161022f578063160cbed71461034d5780632656227d1461036d5780632d63f693146103805780632fe3e261146103b65780633932abb1146103ea5780633bccf4fd146103ff57600080fd5b806301ffc9a71461029357806302a251a3146102c857806303420181146102eb57806306f3f9e61461030b57806306fdde031461032b57600080fd5b3661028e57306102796108f4565b6001600160a01b03161461028c57600080fd5b005b600080fd5b34801561029f57600080fd5b506102b36102ae3660046134db565b61090d565b60405190151581526020015b60405180910390f35b3480156102d457600080fd5b506102dd61091e565b6040519081526020016102bf565b3480156102f757600080fd5b506102dd610306366004613629565b610929565b34801561031757600080fd5b5061028c6103263660046136cf565b610a21565b34801561033757600080fd5b50610340610ab4565b6040516102bf9190613738565b34801561035957600080fd5b506102dd6103683660046138cc565b610b46565b6102dd61037b3660046138cc565b610d47565b34801561038c57600080fd5b506102dd61039b3660046136cf565b6000908152600360205260409020546001600160401b031690565b3480156103c257600080fd5b506102dd7f899f067f60f2c931e7c0101a76deed5359d3888d391b6f78fb75402bb24d0eff81565b3480156103f657600080fd5b506102dd610e39565b34801561040b57600080fd5b506102dd61041a36600461395b565b610e44565b34801561042b57600080fd5b5061043f61043a3660046136cf565b610eba565b6040516102bf91906139bf565b34801561028c57600080fd5b34801561046457600080fd5b506102b36104733660046139e7565b60008281526009602090815260408083206001600160a01b038516845260030190915290205460ff1692915050565b3480156104ae57600080fd5b506102dd6104bd3660046138cc565b610ec5565b3480156104ce57600080fd5b50610340610fd6565b3480156104e357600080fd5b506105116104f23660046136cf565b6000908152600960205260409020805460018201546002909201549092565b604080519384526020840192909252908201526060016102bf565b34801561053857600080fd5b506040805180820190915260018152603160f81b6020820152610340565b34801561056257600080fd5b506102dd610571366004613a17565b611098565b34801561058257600080fd5b506102dd610591366004613a43565b6110c1565b3480156105a257600080fd5b506102dd6105b13660046136cf565b61110b565b3480156105c257600080fd5b5061028c6105d13660046136cf565b6111bc565b3480156105e257600080fd5b506102dd6105f1366004613ac6565b611243565b34801561060257600080fd5b506102dd610611366004613b1f565b61128b565b34801561062257600080fd5b5061062b6112a2565b6040516102bf9796959493929190613c1a565b34801561064a57600080fd5b5061065361132a565b60405165ffffffffffff90911681526020016102bf565b34801561067657600080fd5b5060646102dd565b34801561068a57600080fd5b506102dd610699366004613c7c565b6113b3565b3480156106aa57600080fd5b506102dd6113ca565b3480156106bf57600080fd5b5061028c6106ce366004613cd4565b6113f4565b3480156106df57600080fd5b506102dd6106ee3660046136cf565b61147b565b3480156106ff57600080fd5b506102dd611515565b34801561071457600080fd5b506102dd6107233660046136cf565b6000908152600360205260409020600101546001600160401b031690565b61028c61074f366004613cf1565b611520565b34801561076057600080fd5b506102dd61076f3660046138cc565b61162f565b34801561078057600080fd5b506102dd61078f3660046138cc565b611669565b3480156107a057600080fd5b50600c546001600160a01b03165b6040516001600160a01b0390911681526020016102bf565b3480156107d257600080fd5b506040805180820190915260208082527f737570706f72743d627261766f2671756f72756d3d666f722c6162737461696e90820152610340565b34801561081857600080fd5b506102dd7f150214d74d59b7d1e90c73fc22ef3d991dd0a76b046543d4d80ab92d2a50328f81565b34801561084c57600080fd5b5061028c61085b3660046136cf565b611677565b34801561086c57600080fd5b506102dd61087b366004613d34565b6116fe565b34801561088c57600080fd5b5061028c61089b3660046136cf565b61171f565b3480156108ac57600080fd5b506102dd6108bb3660046136cf565b6117a6565b3480156108cc57600080fd5b506107ae7f000000000000000000000000000000000000000000000000000000000000000081565b6000610908600c546001600160a01b031690565b905090565b600061091882611977565b92915050565b600061090860075490565b6000806109cd6109c57f899f067f60f2c931e7c0101a76deed5359d3888d391b6f78fb75402bb24d0eff8c8c8c8c604051610965929190613d60565b60405180910390208b805190602001206040516020016109aa959493929190948552602085019390935260ff9190911660408401526060830152608082015260a00190565b6040516020818303038152906040528051906020012061199c565b8686866119c9565b9050610a138a828b8b8b8080601f0160208091040260200160405190810160405280939291908181526020018383808284376000920191909152508d92506119e7915050565b9a9950505050505050505050565b610a296108f4565b6001600160a01b0316336001600160a01b031614610a625760405162461bcd60e51b8152600401610a5990613d70565b60405180910390fd5b30610a6b6108f4565b6001600160a01b031614610aa85760008036604051610a8b929190613d60565b604051809103902090505b80610aa16004611b3c565b03610a9657505b610ab181611bbb565b50565b606060028054610ac390613da7565b80601f0160208091040260200160405190810160405280929190818152602001828054610aef90613da7565b8015610b3c5780601f10610b1157610100808354040283529160200191610b3c565b820191906000526020600020905b815481529060010190602001808311610b1f57829003601f168201915b5050505050905090565b600080610b558686868661162f565b90506004610b6282610eba565b6007811115610b7357610b736139a9565b14610b905760405162461bcd60e51b8152600401610a5990613de1565b600c546040805163793d064960e11b815290516000926001600160a01b03169163f27a0c929160048083019260209291908290030181865afa158015610bda573d6000803e3d6000fd5b505050506040513d601f19601f82011682018060405250810190610bfe9190613e22565b600c5460405163b1c5f42760e01b81529192506001600160a01b03169063b1c5f42790610c38908a908a908a906000908b90600401613ec9565b602060405180830381865afa158015610c55573d6000803e3d6000fd5b505050506040513d601f19601f82011682018060405250810190610c799190613e22565b6000838152600d602052604080822092909255600c5491516308f2a0bb60e41b81526001600160a01b0390921691638f2a0bb091610cc4918b918b918b91908b908990600401613f17565b600060405180830381600087803b158015610cde57600080fd5b505af1158015610cf2573d6000803e3d6000fd5b505050507f9a2e42fd6722813d69113e7d0079d3d940171428df7373df9c7f7617cfda2892828242610d249190613f85565b604080519283526020830191909152015b60405180910390a15095945050505050565b600080610d568686868661162f565b90506000610d6382610eba565b90506004816007811115610d7957610d796139a9565b1480610d9657506005816007811115610d9457610d946139a9565b145b610db25760405162461bcd60e51b8152600401610a5990613de1565b60008281526003602052604090819020600201805460ff19166001179055517f712ae1383f79ac853f8d882153778e0260ef8f03b504e2866e0593e04d2b291f90610e009084815260200190565b60405180910390a1610e158288888888611d29565b610e228288888888611dcb565b610e2f8288888888611dd8565b5095945050505050565b600061090860065490565b604080517f150214d74d59b7d1e90c73fc22ef3d991dd0a76b046543d4d80ab92d2a50328f602082015290810186905260ff851660608201526000908190610e92906109c5906080016109aa565b9050610eaf87828860405180602001604052806000815250611e11565b979650505050505050565b600061091882611e34565b600080610ed48686868661162f565b90506000610ee182610eba565b6007811115610ef257610ef26139a9565b14610f3f5760405162461bcd60e51b815260206004820152601c60248201527f476f7665726e6f723a20746f6f206c61746520746f2063616e63656c000000006044820152606401610a59565b600081815260036020526040902054600160401b90046001600160a01b0316336001600160a01b031614610fc05760405162461bcd60e51b815260206004820152602260248201527f476f7665726e6f723a206f6e6c792070726f706f7365722063616e2063616e63604482015261195b60f21b6064820152608401610a59565b610fcc86868686611669565b9695505050505050565b60607f00000000000000000000000000000000000000000000000000000000000000006001600160a01b0316634bf5d7e96040518163ffffffff1660e01b8152600401600060405180830381865afa92505050801561105757506040513d6000823e601f3d908101601f191682016040526110549190810190613f98565b60015b611093575060408051808201909152601d81527f6d6f64653d626c6f636b6e756d6265722666726f6d3d64656661756c74000000602082015290565b919050565b6000803390506110b984828560405180602001604052806000815250611e11565b949350505050565b600080339050610eaf87828888888080601f0160208091040260200160405190810160405280939291908181526020018383808284376000920191909152508a92506119e7915050565b600b54600090808203611122575050600a54919050565b6000600b611131600184614005565b8154811061114157611141614018565b60009182526020918290206040805180820190915291015463ffffffff8116808352600160201b9091046001600160e01b0316928201929092529150841061119757602001516001600160e01b03169392505050565b6111ab6111a385611852565b600b90611f7e565b6001600160e01b0316949350505050565b6111c46108f4565b6001600160a01b0316336001600160a01b0316146111f45760405162461bcd60e51b8152600401610a5990613d70565b306111fd6108f4565b6001600160a01b03161461123a576000803660405161121d929190613d60565b604051809103902090505b806112336004611b3c565b0361122857505b610ab181612023565b600080339050610fcc86828787878080601f016020809104026020016040519081016040528093929190818152602001838380828437600092019190915250611e1192505050565b600061129985858585612064565b95945050505050565b6000606080828080836112d57f0000000000000000000000000000000000000000000000000000000000000000836123e6565b6113007f000000000000000000000000000000000000000000000000000000000000000060016123e6565b60408051600080825260208201909252600f60f81b9b939a50919850469750309650945092509050565b60007f00000000000000000000000000000000000000000000000000000000000000006001600160a01b03166391ddadf46040518163ffffffff1660e01b8152600401602060405180830381865afa9250505080156113a6575060408051601f3d908101601f191682019092526113a39181019061402e565b60015b6110935761090843611910565b60006113c084848461248b565b90505b9392505050565b600b54600090156113ed576113df600b6118d2565b6001600160e01b0316905090565b50600a5490565b6113fc6108f4565b6001600160a01b0316336001600160a01b03161461142c5760405162461bcd60e51b8152600401610a5990613d70565b306114356108f4565b6001600160a01b0316146114725760008036604051611455929190613d60565b604051809103902090505b8061146b6004611b3c565b0361146057505b610ab181612521565b600c546000828152600d602052604080822054905163d45c443560e01b81526004810191909152909182916001600160a01b039091169063d45c443590602401602060405180830381865afa1580156114d8573d6000803e3d6000fd5b505050506040513d601f19601f820116820180604052508101906114fc9190613e22565b90508060011461150c57806113c3565b60009392505050565b600061090860085490565b6115286108f4565b6001600160a01b0316336001600160a01b0316146115585760405162461bcd60e51b8152600401610a5990613d70565b306115616108f4565b6001600160a01b03161461159e5760008036604051611581929190613d60565b604051809103902090505b806115976004611b3c565b0361158c57505b600080856001600160a01b03168585856040516115bc929190613d60565b60006040518083038185875af1925050503d80600081146115f9576040519150601f19603f3d011682016040523d82523d6000602084013e6115fe565b606091505b509150915061162682826040518060600160405280602881526020016143e06028913961258a565b50505050505050565b6000848484846040516020016116489493929190614056565b60408051601f19818403018152919052805160209091012095945050505050565b6000611299858585856125a3565b61167f6108f4565b6001600160a01b0316336001600160a01b0316146116af5760405162461bcd60e51b8152600401610a5990613d70565b306116b86108f4565b6001600160a01b0316146116f557600080366040516116d8929190613d60565b604051809103902090505b806116ee6004611b3c565b036116e357505b610ab181612655565b60006113c3838361171a60408051602081019091526000815290565b61248b565b6117276108f4565b6001600160a01b0316336001600160a01b0316146117575760405162461bcd60e51b8152600401610a5990613d70565b306117606108f4565b6001600160a01b03161461179d5760008036604051611780929190613d60565b604051809103902090505b806117966004611b3c565b0361178b57505b610ab1816126f6565b600061091882612737565b60006020835110156117cd576117c6836127e1565b9050610918565b816117d884826140ec565b5060009050610918565b90565b60006001600160e01b0382111561184e5760405162461bcd60e51b815260206004820152602760248201527f53616665436173743a2076616c756520646f65736e27742066697420696e20326044820152663234206269747360c81b6064820152608401610a59565b5090565b600063ffffffff82111561184e5760405162461bcd60e51b815260206004820152602660248201527f53616665436173743a2076616c756520646f65736e27742066697420696e203360448201526532206269747360d01b6064820152608401610a59565b6000806118c585858561281f565b915091505b935093915050565b8054600090801561150c576118fa836118ec600184614005565b600091825260209091200190565b54600160201b90046001600160e01b03166113c3565b600065ffffffffffff82111561184e5760405162461bcd60e51b815260206004820152602660248201527f53616665436173743a2076616c756520646f65736e27742066697420696e203460448201526538206269747360d01b6064820152608401610a59565b60006001600160e01b03198216636e665ced60e01b14806109185750610918826129be565b60006109186119a9612a0e565b8360405161190160f01b8152600281019290925260228201526042902090565b60008060006119da87878787612b39565b91509150610e2f81612bfd565b60008581526003602052604081206001611a0088610eba565b6007811115611a1157611a116139a9565b14611a6a5760405162461bcd60e51b815260206004820152602360248201527f476f7665726e6f723a20766f7465206e6f742063757272656e746c792061637460448201526269766560e81b6064820152608401610a59565b8054600090611a849088906001600160401b03168661248b565b9050611a938888888488612d47565b8351600003611ae857866001600160a01b03167fb8e138887d0aa13bab447e82de9d5c1777041ecd21ca36ba824ff1e6c07ddda489888489604051611adb94939291906141ab565b60405180910390a2610eaf565b866001600160a01b03167fe2babfbac5889a709b63bb7f598b324e08bc5a4fb9ec647fb3cbc9ec07eb87128988848989604051611b299594939291906141d3565b60405180910390a2979650505050505050565b6000611b578254600f81810b600160801b909204900b131590565b15611b7557604051631ed9509560e11b815260040160405180910390fd5b508054600f0b6000818152600180840160205260408220805492905583546fffffffffffffffffffffffffffffffff191692016001600160801b03169190911790915590565b6064811115611c3e5760405162461bcd60e51b815260206004820152604360248201527f476f7665726e6f72566f74657351756f72756d4672616374696f6e3a2071756f60448201527f72756d4e756d657261746f72206f7665722071756f72756d44656e6f6d696e616064820152623a37b960e91b608482015260a401610a59565b6000611c486113ca565b90508015801590611c595750600b54155b15611cbd576040805180820190915260008152600b9060208101611c7c846117e5565b6001600160e01b039081169091528254600181018455600093845260209384902083519490930151909116600160201b0263ffffffff909316929092179101555b611cea611cd8611ccb61132a565b65ffffffffffff16611852565b611ce1846117e5565b600b91906118b7565b505060408051828152602081018490527f0553476bf02ef2726e8ce5ced78d63e26e602e4a2257b1f559418e24b4633997910160405180910390a15050565b30611d326108f4565b6001600160a01b031614611dc45760005b8451811015611dc257306001600160a01b0316858281518110611d6857611d68614018565b60200260200101516001600160a01b031603611db257611db2838281518110611d9357611d93614018565b6020026020010151805190602001206004612ec190919063ffffffff16565b611dbb81614219565b9050611d43565b505b5050505050565b611dc48585858585612efd565b30611de16108f4565b6001600160a01b031614611dc457600454600f81810b600160801b909204900b1315611dc4576000600455611dc4565b600061129985858585611e2f60408051602081019091526000815290565b6119e7565b600080611e4083612f71565b90506004816007811115611e5657611e566139a9565b14611e615792915050565b6000838152600d602052604090205480611e7c575092915050565b600c54604051632ab0f52960e01b8152600481018390526001600160a01b0390911690632ab0f52990602401602060405180830381865afa158015611ec5573d6000803e3d6000fd5b505050506040513d601f19601f82011682018060405250810190611ee99190614232565b15611ef8575060079392505050565b600c54604051632c258a9f60e11b8152600481018390526001600160a01b039091169063584b153e90602401602060405180830381865afa158015611f41573d6000803e3d6000fd5b505050506040513d601f19601f82011682018060405250810190611f659190614232565b15611f74575060059392505050565b5060029392505050565b815460009081816005811115611fdb576000611f99846130b1565b611fa39085614005565b60008881526020902090915081015463ffffffff9081169087161015611fcb57809150611fd9565b611fd6816001613f85565b92505b505b6000611fe987878585613199565b9050801561201657612000876118ec600184614005565b54600160201b90046001600160e01b0316610eaf565b6000979650505050505050565b60065460408051918252602082018390527fc565b045403dc03c2eea82b81a0465edad9e2e7fc4d97e11421c209da93d7a93910160405180910390a1600655565b6000338161207061132a565b65ffffffffffff169050612082611515565b6120918361087b600185614005565b10156120f95760405162461bcd60e51b815260206004820152603160248201527f476f7665726e6f723a2070726f706f73657220766f7465732062656c6f7720706044820152701c9bdc1bdcd85b081d1a1c995cda1bdb19607a1b6064820152608401610a59565b600061210e888888888051906020012061162f565b905086518851146121315760405162461bcd60e51b8152600401610a5990614254565b85518851146121525760405162461bcd60e51b8152600401610a5990614254565b60008851116121a35760405162461bcd60e51b815260206004820152601860248201527f476f7665726e6f723a20656d7074792070726f706f73616c00000000000000006044820152606401610a59565b6000818152600360205260409020546001600160401b0316156122125760405162461bcd60e51b815260206004820152602160248201527f476f7665726e6f723a2070726f706f73616c20616c72656164792065786973746044820152607360f81b6064820152608401610a59565b600061221c610e39565b6122269084613f85565b9050600061223261091e565b61223c9083613f85565b90506040518060e00160405280612252846131f7565b6001600160401b031681526001600160a01b03871660208201526000604082015260600161227f836131f7565b6001600160401b039081168252600060208084018290526040808501839052606094850183905288835260038252918290208551815492870151878501519186166001600160e01b031990941693909317600160401b6001600160a01b039094168402176001600160e01b0316600160e01b60e09290921c91909102178155938501516080860151908416921c0217600183015560a08301516002909201805460c09094015161ffff1990941692151561ff00191692909217610100931515939093029290921790558a517f7d84a6263ae0d98d3329bd7b46bb4e8d6f98cd35a7adb45c274c8b7fd5ebd5e091859188918e918e918111156123835761238361355e565b6040519080825280602002602001820160405280156123b657816020015b60608152602001906001900390816123a15790505b508d88888f6040516123d099989796959493929190614295565b60405180910390a1509098975050505050505050565b606060ff8316156123fa576117c68361325f565b81805461240690613da7565b80601f016020809104026020016040519081016040528092919081815260200182805461243290613da7565b801561247f5780601f106124545761010080835404028352916020019161247f565b820191906000526020600020905b81548152906001019060200180831161246257829003601f168201915b50505050509050610918565b604051630748d63560e31b81526001600160a01b038481166004830152602482018490526000917f000000000000000000000000000000000000000000000000000000000000000090911690633a46b1a890604401602060405180830381865afa1580156124fd573d6000803e3d6000fd5b505050506040513d601f19601f820116820180604052508101906113c09190613e22565b600c54604080516001600160a01b03928316815291831660208301527f08f74ea46ef7894f65eabfb5e6e695de773a000b47c529ab559178069b226401910160405180910390a1600c80546001600160a01b0319166001600160a01b0392909216919091179055565b606083156125995750816113c3565b6113c38383613294565b6000806125b2868686866132be565b6000818152600d60205260409020549091501561129957600c546000828152600d60205260409081902054905163c4d252f560e01b81526001600160a01b039092169163c4d252f59161260b9160040190815260200190565b600060405180830381600087803b15801561262557600080fd5b505af1158015612639573d6000803e3d6000fd5b5050506000828152600d60205260408120555095945050505050565b600081116126b55760405162461bcd60e51b815260206004820152602760248201527f476f7665726e6f7253657474696e67733a20766f74696e6720706572696f6420604482015266746f6f206c6f7760c81b6064820152608401610a59565b60075460408051918252602082018390527f7e3f7f0708a84de9203036abaa450dccc85ad5ff52f78c170f3edb55cf5e8828910160405180910390a1600755565b60085460408051918252602082018390527fccb45da8d5717e6c4544694297c4ba5cf151d455c9bb0ed4fc7a38411bc05461910160405180910390a1600855565b600060646127448361110b565b604051632394e7a360e21b8152600481018590527f00000000000000000000000000000000000000000000000000000000000000006001600160a01b031690638e539e8c90602401602060405180830381865afa1580156127a9573d6000803e3d6000fd5b505050506040513d601f19601f820116820180604052508101906127cd9190613e22565b6127d7919061436c565b6109189190614399565b600080829050601f8151111561280c578260405163305a27a960e01b8152600401610a599190613738565b8051612817826143bb565b179392505050565b82546000908190801561296557600061283d876118ec600185614005565b60408051808201909152905463ffffffff808216808452600160201b9092046001600160e01b0316602084015291925090871610156128be5760405162461bcd60e51b815260206004820152601b60248201527f436865636b706f696e743a2064656372656173696e67206b65797300000000006044820152606401610a59565b805163ffffffff80881691160361290657846128df886118ec600186614005565b80546001600160e01b0392909216600160201b0263ffffffff909216919091179055612955565b6040805180820190915263ffffffff80881682526001600160e01b0380881660208085019182528b54600181018d5560008d81529190912094519151909216600160201b029216919091179101555b6020015192508391506118ca9050565b50506040805180820190915263ffffffff80851682526001600160e01b0380851660208085019182528854600181018a5560008a815291822095519251909316600160201b0291909316179201919091559050816118ca565b60006001600160e01b03198216635e326c8b60e11b14806129ef57506001600160e01b031982166379dd796f60e01b145b8061091857506301ffc9a760e01b6001600160e01b0319831614610918565b6000306001600160a01b037f000000000000000000000000000000000000000000000000000000000000000016148015612a6757507f000000000000000000000000000000000000000000000000000000000000000046145b15612a9157507f000000000000000000000000000000000000000000000000000000000000000090565b610908604080517f8b73c3c69bb8fe3d512ecc4cf759cc79239f7b179b0ffacaa9a75d522b39400f60208201527f0000000000000000000000000000000000000000000000000000000000000000918101919091527f000000000000000000000000000000000000000000000000000000000000000060608201524660808201523060a082015260009060c00160405160208183030381529060405280519060200120905090565b6000807f7fffffffffffffffffffffffffffffff5d576e7357a4501ddfe92f46681b20a0831115612b705750600090506003612bf4565b6040805160008082526020820180845289905260ff881692820192909252606081018690526080810185905260019060a0016020604051602081039080840390855afa158015612bc4573d6000803e3d6000fd5b5050604051601f1901519150506001600160a01b038116612bed57600060019250925050612bf4565b9150600090505b94509492505050565b6000816004811115612c1157612c116139a9565b03612c195750565b6001816004811115612c2d57612c2d6139a9565b03612c7a5760405162461bcd60e51b815260206004820152601860248201527f45434453413a20696e76616c6964207369676e617475726500000000000000006044820152606401610a59565b6002816004811115612c8e57612c8e6139a9565b03612cdb5760405162461bcd60e51b815260206004820152601f60248201527f45434453413a20696e76616c6964207369676e6174757265206c656e677468006044820152606401610a59565b6003816004811115612cef57612cef6139a9565b03610ab15760405162461bcd60e51b815260206004820152602260248201527f45434453413a20696e76616c6964207369676e6174757265202773272076616c604482015261756560f01b6064820152608401610a59565b60008581526009602090815260408083206001600160a01b0388168452600381019092529091205460ff1615612dcf5760405162461bcd60e51b815260206004820152602760248201527f476f7665726e6f72566f74696e6753696d706c653a20766f746520616c726561604482015266191e4818d85cdd60ca1b6064820152608401610a59565b6001600160a01b03851660009081526003820160205260409020805460ff1916600117905560ff8416612e1b5782816000016000828254612e109190613f85565b90915550611dc29050565b60001960ff851601612e3b5782816001016000828254612e109190613f85565b60011960ff851601612e5b5782816002016000828254612e109190613f85565b60405162461bcd60e51b815260206004820152603560248201527f476f7665726e6f72566f74696e6753696d706c653a20696e76616c69642076616044820152746c756520666f7220656e756d20566f74655479706560581b6064820152608401610a59565b8154600160801b90819004600f0b6000818152600180860160205260409091209390935583546001600160801b03908116939091011602179055565b600c5460405163e38335e560e01b81526001600160a01b039091169063e38335e5903490612f38908890889088906000908990600401613ec9565b6000604051808303818588803b158015612f5157600080fd5b505af1158015612f65573d6000803e3d6000fd5b50505050505050505050565b6000818152600360205260408120600281015460ff1615612f955750600792915050565b6002810154610100900460ff1615612fb05750600292915050565b6000838152600360205260408120546001600160401b0316908190036130185760405162461bcd60e51b815260206004820152601d60248201527f476f7665726e6f723a20756e6b6e6f776e2070726f706f73616c2069640000006044820152606401610a59565b600061302261132a565b65ffffffffffff16905080821061303e57506000949350505050565b6000858152600360205260409020600101546001600160401b031681811061306c5750600195945050505050565b613075866133ca565b8015613094575060008681526009602052604090208054600190910154115b156130a55750600495945050505050565b50600395945050505050565b6000816000036130c357506000919050565b600060016130d084613416565b901c6001901b905060018184816130e9576130e9614383565b048201901c9050600181848161310157613101614383565b048201901c9050600181848161311957613119614383565b048201901c9050600181848161313157613131614383565b048201901c9050600181848161314957613149614383565b048201901c9050600181848161316157613161614383565b048201901c9050600181848161317957613179614383565b048201901c90506113c38182858161319357613193614383565b046134aa565b60005b818310156131ef5760006131b084846134c0565b60008781526020902090915063ffffffff86169082015463ffffffff1611156131db578092506131e9565b6131e6816001613f85565b93505b5061319c565b509392505050565b60006001600160401b0382111561184e5760405162461bcd60e51b815260206004820152602660248201527f53616665436173743a2076616c756520646f65736e27742066697420696e203660448201526534206269747360d01b6064820152608401610a59565b60408051602080825281830190925260609160ff84169160009180820181803683375050509182525060208101929092525090565b8151156132a45781518083602001fd5b8060405162461bcd60e51b8152600401610a599190613738565b6000806132cd8686868661162f565b905060006132da82610eba565b905060028160078111156132f0576132f06139a9565b141580156133105750600681600781111561330d5761330d6139a9565b14155b801561332e5750600781600781111561332b5761332b6139a9565b14155b61337a5760405162461bcd60e51b815260206004820152601d60248201527f476f7665726e6f723a2070726f706f73616c206e6f74206163746976650000006044820152606401610a59565b60008281526003602052604090819020600201805461ff001916610100179055517f789cf55be980739dad1d0699b93b58e806b51c9d96619bfa8fe0a28abaa7b30c90610d359084815260200190565b6000818152600960205260408120600281015460018201546133ec9190613f85565b60008481526003602052604090205461340d906001600160401b03166117a6565b11159392505050565b600080608083901c1561342b57608092831c92015b604083901c1561343d57604092831c92015b602083901c1561344f57602092831c92015b601083901c1561346157601092831c92015b600883901c1561347357600892831c92015b600483901c1561348557600492831c92015b600283901c1561349757600292831c92015b600183901c156109185760010192915050565b60008183106134b957816113c3565b5090919050565b60006134cf6002848418614399565b6113c390848416613f85565b6000602082840312156134ed57600080fd5b81356001600160e01b0319811681146113c357600080fd5b803560ff8116811461109357600080fd5b60008083601f84011261352857600080fd5b5081356001600160401b0381111561353f57600080fd5b60208301915083602082850101111561355757600080fd5b9250929050565b634e487b7160e01b600052604160045260246000fd5b604051601f8201601f191681016001600160401b038111828210171561359c5761359c61355e565b604052919050565b60006001600160401b038211156135bd576135bd61355e565b50601f01601f191660200190565b60006135de6135d9846135a4565b613574565b90508281528383830111156135f257600080fd5b828260208301376000602084830101529392505050565b600082601f83011261361a57600080fd5b6113c3838335602085016135cb565b60008060008060008060008060e0898b03121561364557600080fd5b8835975061365560208a01613505565b965060408901356001600160401b038082111561367157600080fd5b61367d8c838d01613516565b909850965060608b013591508082111561369657600080fd5b506136a38b828c01613609565b9450506136b260808a01613505565b925060a0890135915060c089013590509295985092959890939650565b6000602082840312156136e157600080fd5b5035919050565b60005b838110156137035781810151838201526020016136eb565b50506000910152565b600081518084526137248160208601602086016136e8565b601f01601f19169290920160200192915050565b6020815260006113c3602083018461370c565b60006001600160401b038211156137645761376461355e565b5060051b60200190565b6001600160a01b0381168114610ab157600080fd5b600082601f83011261379457600080fd5b813560206137a46135d98361374b565b82815260059290921b840181019181810190868411156137c357600080fd5b8286015b848110156137e75780356137da8161376e565b83529183019183016137c7565b509695505050505050565b600082601f83011261380357600080fd5b813560206138136135d98361374b565b82815260059290921b8401810191818101908684111561383257600080fd5b8286015b848110156137e75780358352918301918301613836565b600082601f83011261385e57600080fd5b8135602061386e6135d98361374b565b82815260059290921b8401810191818101908684111561388d57600080fd5b8286015b848110156137e75780356001600160401b038111156138b05760008081fd5b6138be8986838b0101613609565b845250918301918301613891565b600080600080608085870312156138e257600080fd5b84356001600160401b03808211156138f957600080fd5b61390588838901613783565b9550602087013591508082111561391b57600080fd5b613927888389016137f2565b9450604087013591508082111561393d57600080fd5b5061394a8782880161384d565b949793965093946060013593505050565b600080600080600060a0868803121561397357600080fd5b8535945061398360208701613505565b935061399160408701613505565b94979396509394606081013594506080013592915050565b634e487b7160e01b600052602160045260246000fd5b60208101600883106139e157634e487b7160e01b600052602160045260246000fd5b91905290565b600080604083850312156139fa57600080fd5b823591506020830135613a0c8161376e565b809150509250929050565b60008060408385031215613a2a57600080fd5b82359150613a3a60208401613505565b90509250929050565b600080600080600060808688031215613a5b57600080fd5b85359450613a6b60208701613505565b935060408601356001600160401b0380821115613a8757600080fd5b613a9389838a01613516565b90955093506060880135915080821115613aac57600080fd5b50613ab988828901613609565b9150509295509295909350565b60008060008060608587031215613adc57600080fd5b84359350613aec60208601613505565b925060408501356001600160401b03811115613b0757600080fd5b613b1387828801613516565b95989497509550505050565b60008060008060808587031215613b3557600080fd5b84356001600160401b0380821115613b4c57600080fd5b613b5888838901613783565b95506020870135915080821115613b6e57600080fd5b613b7a888389016137f2565b94506040870135915080821115613b9057600080fd5b613b9c8883890161384d565b93506060870135915080821115613bb257600080fd5b508501601f81018713613bc457600080fd5b613bd3878235602084016135cb565b91505092959194509250565b600081518084526020808501945080840160005b83811015613c0f57815187529582019590820190600101613bf3565b509495945050505050565b60ff60f81b8816815260e060208201526000613c3960e083018961370c565b8281036040840152613c4b818961370c565b606084018890526001600160a01b038716608085015260a0840186905283810360c08501529050610a138185613bdf565b600080600060608486031215613c9157600080fd5b8335613c9c8161376e565b92506020840135915060408401356001600160401b03811115613cbe57600080fd5b613cca86828701613609565b9150509250925092565b600060208284031215613ce657600080fd5b81356113c38161376e565b60008060008060608587031215613d0757600080fd5b8435613d128161376e565b93506020850135925060408501356001600160401b03811115613b0757600080fd5b60008060408385031215613d4757600080fd5b8235613d528161376e565b946020939093013593505050565b8183823760009101908152919050565b60208082526018908201527f476f7665726e6f723a206f6e6c79476f7665726e616e63650000000000000000604082015260600190565b600181811c90821680613dbb57607f821691505b602082108103613ddb57634e487b7160e01b600052602260045260246000fd5b50919050565b60208082526021908201527f476f7665726e6f723a2070726f706f73616c206e6f74207375636365737366756040820152601b60fa1b606082015260800190565b600060208284031215613e3457600080fd5b5051919050565b600081518084526020808501945080840160005b83811015613c0f5781516001600160a01b031687529582019590820190600101613e4f565b600081518084526020808501808196508360051b8101915082860160005b85811015613ebc578284038952613eaa84835161370c565b98850198935090840190600101613e92565b5091979650505050505050565b60a081526000613edc60a0830188613e3b565b8281036020840152613eee8188613bdf565b90508281036040840152613f028187613e74565b60608401959095525050608001529392505050565b60c081526000613f2a60c0830189613e3b565b8281036020840152613f3c8189613bdf565b90508281036040840152613f508188613e74565b60608401969096525050608081019290925260a0909101529392505050565b634e487b7160e01b600052601160045260246000fd5b8082018082111561091857610918613f6f565b600060208284031215613faa57600080fd5b81516001600160401b03811115613fc057600080fd5b8201601f81018413613fd157600080fd5b8051613fdf6135d9826135a4565b818152856020838501011115613ff457600080fd5b6112998260208301602086016136e8565b8181038181111561091857610918613f6f565b634e487b7160e01b600052603260045260246000fd5b60006020828403121561404057600080fd5b815165ffffffffffff811681146113c357600080fd5b6080815260006140696080830187613e3b565b828103602084015261407b8187613bdf565b9050828103604084015261408f8186613e74565b91505082606083015295945050505050565b601f8211156140e757600081815260208120601f850160051c810160208610156140c85750805b601f850160051c820191505b81811015611dc2578281556001016140d4565b505050565b81516001600160401b038111156141055761410561355e565b614119816141138454613da7565b846140a1565b602080601f83116001811461414e57600084156141365750858301515b600019600386901b1c1916600185901b178555611dc2565b600085815260208120601f198616915b8281101561417d5788860151825594840194600190910190840161415e565b508582101561419b5787850151600019600388901b60f8161c191681555b5050505050600190811b01905550565b84815260ff84166020820152826040820152608060608201526000610fcc608083018461370c565b85815260ff8516602082015283604082015260a0606082015260006141fb60a083018561370c565b828103608084015261420d818561370c565b98975050505050505050565b60006001820161422b5761422b613f6f565b5060010190565b60006020828403121561424457600080fd5b815180151581146113c357600080fd5b60208082526021908201527f476f7665726e6f723a20696e76616c69642070726f706f73616c206c656e67746040820152600d60fb1b606082015260800190565b60006101208b8352602060018060a01b038c16818501528160408501526142be8285018c613e3b565b915083820360608501526142d2828b613bdf565b915083820360808501528189518084528284019150828160051b850101838c0160005b8381101561432357601f1987840301855261431183835161370c565b948601949250908501906001016142f5565b505086810360a0880152614337818c613e74565b9450505050508560c08401528460e084015282810361010084015261435c818561370c565b9c9b505050505050505050505050565b808202811582820484141761091857610918613f6f565b634e487b7160e01b600052601260045260246000fd5b6000826143b657634e487b7160e01b600052601260045260246000fd5b500490565b80516020808301519190811015613ddb5760001960209190910360031b1b1691905056fe476f7665726e6f723a2072656c617920726576657274656420776974686f7574206d657373616765a26469706673582212206b9906be57a4cad5ec0139f5459c9a06655642a449defd1476e20f15f1755a5164736f6c63430008110033",
  "devdoc": {
    "errors": {
      "Empty()": [
        {
          "details": "An operation (e.g. {front}) couldn't be completed due to the queue being empty."
        }
      ]
    },
    "kind": "dev",
    "methods": {
      "CLOCK_MODE()": {
        "details": "Machine-readable description of the clock as specified in EIP-6372."
      },
      "COUNTING_MODE()": {
        "details": "See {IGovernor-COUNTING_MODE}."
      },
      "cancel(address[],uint256[],bytes[],bytes32)": {
        "details": "Cancel a proposal. A proposal is cancellable by the proposer, but only while it is Pending state, i.e. before the vote starts. Emits a {ProposalCanceled} event."
      },
      "castVote(uint256,uint8)": {
        "details": "Cast a vote Emits a {VoteCast} event."
      },
      "castVoteBySig(uint256,uint8,uint8,bytes32,bytes32)": {
        "details": "Cast a vote using the user's cryptographic signature. Emits a {VoteCast} event."
      },
      "castVoteWithReason(uint256,uint8,string)": {
        "details": "Cast a vote with a reason Emits a {VoteCast} event."
      },
      "castVoteWithReasonAndParams(uint256,uint8,string,bytes)": {
        "details": "Cast a vote with a reason and additional encoded parameters Emits a {VoteCast} or {VoteCastWithParams} event depending on the length of params."
      },
      "castVoteWithReasonAndParamsBySig(uint256,uint8,string,bytes,uint8,bytes32,bytes32)": {
        "details": "Cast a vote with a reason and additional encoded parameters using the user's cryptographic signature. Emits a {VoteCast} or {VoteCastWithParams} event depending on the length of params."
      },
      "clock()": {
        "details": "Clock (as specified in EIP-6372) is set to match the token's clock. Fallback to block numbers if the token does not implement EIP-6372."
      },
      "eip712Domain()": {
        "details": "See {EIP-5267}."
      },
      "execute(address[],uint256[],bytes[],bytes32)": {
        "details": "Execute a successful proposal. This requires the quorum to be reached, the vote to be successful, and the deadline to be reached. Emits a {ProposalExecuted} event. Note: some module can modify the requirements for execution, for example by adding an additional timelock."
      },
      "getVotes(address,uint256)": {
        "details": "Voting power of an `account` at a specific `timepoint`. Note: this can be implemented in a number of ways, for example by reading the delegated balance from one (or multiple), {ERC20Votes} tokens."
      },
      "getVotesWithParams(address,uint256,bytes)": {
        "details": "Voting power of an `account` at a specific `timepoint` given additional encoded parameters."
      },
      "hasVoted(uint256,address)": {
        "details": "See {IGovernor-hasVoted}."
      },
      "hashProposal(address[],uint256[],bytes[],bytes32)": {
        "details": "Hashing function used to (re)build the proposal id from the proposal details.."
      },
      "name()": {
        "details": "Name of the governor instance (used in building the ERC712 domain separator)."
      },
      "proposalDeadline(uint256)": {
        "details": "Timepoint at which votes close. If using block number, votes close at the end of this block, so it is possible to cast a vote during this block."
      },
      "proposalEta(uint256)": {
        "details": "Public accessor to check the eta of a queued proposal"
      },
      "proposalSnapshot(uint256)": {
        "details": "Timepoint used to retrieve user's votes and quorum. If using block number (as per Compound's Comp), the snapshot is performed at the end of this block. Hence, voting for this proposal starts at the beginning of the following block."
      },
      "proposalVotes(uint256)": {
        "details": "Accessor to the internal vote counts."
      },
      "queue(address[],uint256[],bytes[],bytes32)": {
        "details": "Function to queue a proposal to the timelock."
      },
      "quorumDenominator()": {
        "details": "Returns the quorum denominator. Defaults to 100, but may be overridden."
      },
      "quorumNumerator()": {
        "details": "Returns the current quorum numerator. See {quorumDenominator}."
      },
      "quorumNumerator(uint256)": {
        "details": "Returns the quorum numerator at a specific timepoint. See {quorumDenominator}."
      },
      "timelock()": {
        "details": "Public accessor to check the address of the timelock"
      },
      "updateQuorumNumerator(uint256)": {
        "details": "Changes the quorum numerator. Emits a {QuorumNumeratorUpdated} event. Requirements: - Must be called through a governance proposal. - New numerator must be smaller or equal to the denominator."
      },
      "updateTimelock(address)": {
        "details": "Public endpoint to update the underlying timelock instance. Restricted to the timelock itself, so updates must be proposed, scheduled, and executed through governance proposals. CAUTION: It is not recommended to change the timelock while there are other queued governance proposals."
      },
      "version()": {
        "details": "Version of the governor instance (used in building the ERC712 domain separator). Default: \"1\""
      }
    },
    "version": 1
  },
  "userdoc": {
    "kind": "user",
    "methods": {
      "getVotes(address,uint256)": {
        "notice": "module:reputation"
      },
      "getVotesWithParams(address,uint256,bytes)": {
        "notice": "module:reputation"
      },
      "hashProposal(address[],uint256[],bytes[],bytes32)": {
        "notice": "module:core"
      },
      "name()": {
        "notice": "module:core"
      },
      "proposalDeadline(uint256)": {
        "notice": "module:core"
      },
      "proposalSnapshot(uint256)": {
        "notice": "module:core"
      },
      "version()": {
        "notice": "module:core"
      }
    },
    "version": 1
  },
  "storageLayout": {
    "storage": [
      {
        "astId": 9105,
        "contract": "contracts/Timelock_Governor.sol:Timelock_Governor",
        "label": "_nameFallback",
        "offset": 0,
        "slot": "0",
        "type": "t_string_storage"
      },
      {
        "astId": 9107,
        "contract": "contracts/Timelock_Governor.sol:Timelock_Governor",
        "label": "_versionFallback",
        "offset": 0,
        "slot": "1",
        "type": "t_string_storage"
      },
      {
        "astId": 2057,
        "contract": "contracts/Timelock_Governor.sol:Timelock_Governor",
        "label": "_name",
        "offset": 0,
        "slot": "2",
        "type": "t_string_storage"
      },
      {
        "astId": 2062,
        "contract": "contracts/Timelock_Governor.sol:Timelock_Governor",
        "label": "_proposals",
        "offset": 0,
        "slot": "3",
        "type": "t_mapping(t_uint256,t_struct(ProposalCore)2055_storage)"
      },
      {
        "astId": 2065,
        "contract": "contracts/Timelock_Governor.sol:Timelock_Governor",
        "label": "_governanceCall",
        "offset": 0,
        "slot": "4",
        "type": "t_struct(Bytes32Deque)11735_storage"
      },
      {
        "astId": 3270,
        "contract": "contracts/Timelock_Governor.sol:Timelock_Governor",
        "label": "_votingDelay",
        "offset": 0,
        "slot": "6",
        "type": "t_uint256"
      },
      {
        "astId": 3272,
        "contract": "contracts/Timelock_Governor.sol:Timelock_Governor",
        "label": "_votingPeriod",
        "offset": 0,
        "slot": "7",
        "type": "t_uint256"
      },
      {
        "astId": 3274,
        "contract": "contracts/Timelock_Governor.sol:Timelock_Governor",
        "label": "_proposalThreshold",
        "offset": 0,
        "slot": "8",
        "type": "t_uint256"
      },
      {
        "astId": 4660,
        "contract": "contracts/Timelock_Governor.sol:Timelock_Governor",
        "label": "_proposalVotes",
        "offset": 0,
        "slot": "9",
        "type": "t_mapping(t_uint256,t_struct(ProposalVote)4655_storage)"
      },
      {
        "astId": 5351,
        "contract": "contracts/Timelock_Governor.sol:Timelock_Governor",
        "label": "_quorumNumerator",
        "offset": 0,
        "slot": "10",
        "type": "t_uint256"
      },
      {
        "astId": 5355,
        "contract": "contracts/Timelock_Governor.sol:Timelock_Governor",
        "label": "_quorumNumeratorHistory",
        "offset": 0,
        "slot": "11",
        "type": "t_struct(Trace224)6985_storage"
      },
      {
        "astId": 4873,
        "contract": "contracts/Timelock_Governor.sol:Timelock_Governor",
        "label": "_timelock",
        "offset": 0,
        "slot": "12",
        "type": "t_contract(TimelockController)4634"
      },
      {
        "astId": 4877,
        "contract": "contracts/Timelock_Governor.sol:Timelock_Governor",
        "label": "_timelockIds",
        "offset": 0,
        "slot": "13",
        "type": "t_mapping(t_uint256,t_bytes32)"
      }
    ],
    "types": {
      "t_address": {
        "encoding": "inplace",
        "label": "address",
        "numberOfBytes": "20"
      },
      "t_array(t_struct(Checkpoint224)6990_storage)dyn_storage": {
        "base": "t_struct(Checkpoint224)6990_storage",
        "encoding": "dynamic_array",
        "label": "struct Checkpoints.Checkpoint224[]",
        "numberOfBytes": "32"
      },
      "t_bool": {
        "encoding": "inplace",
        "label": "bool",
        "numberOfBytes": "1"
      },
      "t_bytes24": {
        "encoding": "inplace",
        "label": "bytes24",
        "numberOfBytes": "24"
      },
      "t_bytes32": {
        "encoding": "inplace",
        "label": "bytes32",
        "numberOfBytes": "32"
      },
      "t_bytes4": {
        "encoding": "inplace",
        "label": "bytes4",
        "numberOfBytes": "4"
      },
      "t_contract(TimelockController)4634": {
        "encoding": "inplace",
        "label": "contract TimelockController",
        "numberOfBytes": "20"
      },
      "t_int128": {
        "encoding": "inplace",
        "label": "int128",
        "numberOfBytes": "16"
      },
      "t_mapping(t_address,t_bool)": {
        "encoding": "mapping",
        "key": "t_address",
        "label": "mapping(address => bool)",
        "numberOfBytes": "32",
        "value": "t_bool"
      },
      "t_mapping(t_int128,t_bytes32)": {
        "encoding": "mapping",
        "key": "t_int128",
        "label": "mapping(int128 => bytes32)",
        "numberOfBytes": "32",
        "value": "t_bytes32"
      },
      "t_mapping(t_uint256,t_bytes32)": {
        "encoding": "mapping",
        "key": "t_uint256",
        "label": "mapping(uint256 => bytes32)",
        "numberOfBytes": "32",
        "value": "t_bytes32"
      },
      "t_mapping(t_uint256,t_struct(ProposalCore)2055_storage)": {
        "encoding": "mapping",
        "key": "t_uint256",
        "label": "mapping(uint256 => struct Governor.ProposalCore)",
        "numberOfBytes": "32",
        "value": "t_struct(ProposalCore)2055_storage"
      },
      "t_mapping(t_uint256,t_struct(ProposalVote)4655_storage)": {
        "encoding": "mapping",
        "key": "t_uint256",
        "label": "mapping(uint256 => struct GovernorCountingSimple.ProposalVote)",
        "numberOfBytes": "32",
        "value": "t_struct(ProposalVote)4655_storage"
      },
      "t_string_storage": {
        "encoding": "bytes",
        "label": "string",
        "numberOfBytes": "32"
      },
      "t_struct(Bytes32Deque)11735_storage": {
        "encoding": "inplace",
        "label": "struct DoubleEndedQueue.Bytes32Deque",
        "members": [
          {
            "astId": 11728,
            "contract": "contracts/Timelock_Governor.sol:Timelock_Governor",
            "label": "_begin",
            "offset": 0,
            "slot": "0",
            "type": "t_int128"
          },
          {
            "astId": 11730,
            "contract": "contracts/Timelock_Governor.sol:Timelock_Governor",
            "label": "_end",
            "offset": 16,
            "slot": "0",
            "type": "t_int128"
          },
          {
            "astId": 11734,
            "contract": "contracts/Timelock_Governor.sol:Timelock_Governor",
            "label": "_data",
            "offset": 0,
            "slot": "1",
            "type": "t_mapping(t_int128,t_bytes32)"
          }
        ],
        "numberOfBytes": "64"
      },
      "t_struct(Checkpoint224)6990_storage": {
        "encoding": "inplace",
        "label": "struct Checkpoints.Checkpoint224",
        "members": [
          {
            "astId": 6987,
            "contract": "contracts/Timelock_Governor.sol:Timelock_Governor",
            "label": "_key",
            "offset": 0,
            "slot": "0",
            "type": "t_uint32"
          },
          {
            "astId": 6989,
            "contract": "contracts/Timelock_Governor.sol:Timelock_Governor",
            "label": "_value",
            "offset": 4,
            "slot": "0",
            "type": "t_uint224"
          }
        ],
        "numberOfBytes": "32"
      },
      "t_struct(ProposalCore)2055_storage": {
        "encoding": "inplace",
        "label": "struct Governor.ProposalCore",
        "members": [
          {
            "astId": 2042,
            "contract": "contracts/Timelock_Governor.sol:Timelock_Governor",
            "label": "voteStart",
            "offset": 0,
            "slot": "0",
            "type": "t_uint64"
          },
          {
            "astId": 2044,
            "contract": "contracts/Timelock_Governor.sol:Timelock_Governor",
            "label": "proposer",
            "offset": 8,
            "slot": "0",
            "type": "t_address"
          },
          {
            "astId": 2046,
            "contract": "contracts/Timelock_Governor.sol:Timelock_Governor",
            "label": "__gap_unused0",
            "offset": 28,
            "slot": "0",
            "type": "t_bytes4"
          },
          {
            "astId": 2048,
            "contract": "contracts/Timelock_Governor.sol:Timelock_Governor",
            "label": "voteEnd",
            "offset": 0,
            "slot": "1",
            "type": "t_uint64"
          },
          {
            "astId": 2050,
            "contract": "contracts/Timelock_Governor.sol:Timelock_Governor",
            "label": "__gap_unused1",
            "offset": 8,
            "slot": "1",
            "type": "t_bytes24"
          },
          {
            "astId": 2052,
            "contract": "contracts/Timelock_Governor.sol:Timelock_Governor",
            "label": "executed",
            "offset": 0,
            "slot": "2",
            "type": "t_bool"
          },
          {
            "astId": 2054,
            "contract": "contracts/Timelock_Governor.sol:Timelock_Governor",
            "label": "canceled",
            "offset": 1,
            "slot": "2",
            "type": "t_bool"
          }
        ],
        "numberOfBytes": "96"
      },
      "t_struct(ProposalVote)4655_storage": {
        "encoding": "inplace",
        "label": "struct GovernorCountingSimple.ProposalVote",
        "members": [
          {
            "astId": 4646,
            "contract": "contracts/Timelock_Governor.sol:Timelock_Governor",
            "label": "againstVotes",
            "offset": 0,
            "slot": "0",
            "type": "t_uint256"
          },
          {
            "astId": 4648,
            "contract": "contracts/Timelock_Governor.sol:Timelock_Governor",
            "label": "forVotes",
            "offset": 0,
            "slot": "1",
            "type": "t_uint256"
          },
          {
            "astId": 4650,
            "contract": "contracts/Timelock_Governor.sol:Timelock_Governor",
            "label": "abstainVotes",
            "offset": 0,
            "slot": "2",
            "type": "t_uint256"
          },
          {
            "astId": 4654,
            "contract": "contracts/Timelock_Governor.sol:Timelock_Governor",
            "label": "hasVoted",
            "offset": 0,
            "slot": "3",
            "type": "t_mapping(t_address,t_bool)"
          }
        ],
        "numberOfBytes": "128"
      },
      "t_struct(Trace224)6985_storage": {
        "encoding": "inplace",
        "label": "struct Checkpoints.Trace224",
        "members": [
          {
            "astId": 6984,
            "contract": "contracts/Timelock_Governor.sol:Timelock_Governor",
            "label": "_checkpoints",
            "offset": 0,
            "slot": "0",
            "type": "t_array(t_struct(Checkpoint224)6990_storage)dyn_storage"
          }
        ],
        "numberOfBytes": "32"
      },
      "t_uint224": {
        "encoding": "inplace",
        "label": "uint224",
        "numberOfBytes": "28"
      },
      "t_uint256": {
        "encoding": "inplace",
        "label": "uint256",
        "numberOfBytes": "32"
      },
      "t_uint32": {
        "encoding": "inplace",
        "label": "uint32",
        "numberOfBytes": "4"
      },
      "t_uint64": {
        "encoding": "inplace",
        "label": "uint64",
        "numberOfBytes": "8"
      }
    }
  }
}